{
    "contractName": "RecordHealthCareData",
    "abi": [
        {
            "inputs": [],
            "stateMutability": "nonpayable",
            "type": "constructor"
        },
        {
            "inputs": [
                {
                    "internalType": "address",
                    "name": "_address",
                    "type": "address"
                }
            ],
            "name": "RevokePermission",
            "outputs": [
                {
                    "internalType": "bool",
                    "name": "success",
                    "type": "bool"
                }
            ],
            "stateMutability": "nonpayable",
            "type": "function"
        },
        {
            "inputs": [],
            "name": "appointmentCount",
            "outputs": [
                {
                    "internalType": "uint32",
                    "name": "",
                    "type": "uint32"
                }
            ],
            "stateMutability": "view",
            "type": "function"
        },
        {
            "inputs": [
                {
                    "internalType": "uint256",
                    "name": "",
                    "type": "uint256"
                }
            ],
            "name": "appointmentList",
            "outputs": [
                {
                    "internalType": "address",
                    "name": "",
                    "type": "address"
                }
            ],
            "stateMutability": "view",
            "type": "function"
        },
        {
            "inputs": [],
            "name": "doctorCount",
            "outputs": [
                {
                    "internalType": "uint32",
                    "name": "",
                    "type": "uint32"
                }
            ],
            "stateMutability": "view",
            "type": "function"
        },
        {
            "inputs": [
                {
                    "internalType": "uint256",
                    "name": "",
                    "type": "uint256"
                }
            ],
            "name": "doctorList",
            "outputs": [
                {
                    "internalType": "address",
                    "name": "",
                    "type": "address"
                }
            ],
            "stateMutability": "view",
            "type": "function"
        },
        {
            "inputs": [
                {
                    "internalType": "string",
                    "name": "_ic",
                    "type": "string"
                },
                {
                    "internalType": "string",
                    "name": "_name",
                    "type": "string"
                },
                {
                    "internalType": "string",
                    "name": "_phone",
                    "type": "string"
                },
                {
                    "internalType": "string",
                    "name": "_gender",
                    "type": "string"
                },
                {
                    "internalType": "string",
                    "name": "_dob",
                    "type": "string"
                },
                {
                    "internalType": "string",
                    "name": "_height",
                    "type": "string"
                },
                {
                    "internalType": "string",
                    "name": "_weight",
                    "type": "string"
                },
                {
                    "internalType": "string",
                    "name": "_houseaddr",
                    "type": "string"
                },
                {
                    "internalType": "string",
                    "name": "_bloodgroup",
                    "type": "string"
                },
                {
                    "internalType": "string",
                    "name": "_emergencyName",
                    "type": "string"
                },
                {
                    "internalType": "string",
                    "name": "_emergencyContact",
                    "type": "string"
                }
            ],
            "name": "editDetailsPatient",
            "outputs": [],
            "stateMutability": "nonpayable",
            "type": "function"
        },
        {
            "inputs": [
                {
                    "internalType": "string",
                    "name": "_ic",
                    "type": "string"
                },
                {
                    "internalType": "string",
                    "name": "_name",
                    "type": "string"
                },
                {
                    "internalType": "string",
                    "name": "_phone",
                    "type": "string"
                },
                {
                    "internalType": "string",
                    "name": "_gender",
                    "type": "string"
                },
                {
                    "internalType": "string",
                    "name": "_dob",
                    "type": "string"
                },
                {
                    "internalType": "string",
                    "name": "_qualification",
                    "type": "string"
                },
                {
                    "internalType": "string",
                    "name": "_major",
                    "type": "string"
                }
            ],
            "name": "editDoctor",
            "outputs": [],
            "stateMutability": "nonpayable",
            "type": "function"
        },
        {
            "inputs": [],
            "name": "getAppointmentCount",
            "outputs": [
                {
                    "internalType": "uint32",
                    "name": "",
                    "type": "uint32"
                }
            ],
            "stateMutability": "view",
            "type": "function"
        },
        {
            "inputs": [
                {
                    "internalType": "address",
                    "name": "_address",
                    "type": "address"
                }
            ],
            "name": "getAppointmentPerPatient",
            "outputs": [
                {
                    "internalType": "uint32",
                    "name": "",
                    "type": "uint32"
                }
            ],
            "stateMutability": "view",
            "type": "function"
        },
        {
            "inputs": [],
            "name": "getAppointments",
            "outputs": [
                {
                    "internalType": "address[]",
                    "name": "",
                    "type": "address[]"
                }
            ],
            "stateMutability": "view",
            "type": "function"
        },
        {
            "inputs": [],
            "name": "getDoctorCount",
            "outputs": [
                {
                    "internalType": "uint32",
                    "name": "",
                    "type": "uint32"
                }
            ],
            "stateMutability": "view",
            "type": "function"
        },
        {
            "inputs": [],
            "name": "getDoctors",
            "outputs": [
                {
                    "internalType": "address[]",
                    "name": "",
                    "type": "address[]"
                }
            ],
            "stateMutability": "view",
            "type": "function"
        },
        {
            "inputs": [],
            "name": "getPatientCount",
            "outputs": [
                {
                    "internalType": "uint32",
                    "name": "",
                    "type": "uint32"
                }
            ],
            "stateMutability": "view",
            "type": "function"
        },
        {
            "inputs": [],
            "name": "getPatients",
            "outputs": [
                {
                    "internalType": "address[]",
                    "name": "",
                    "type": "address[]"
                }
            ],
            "stateMutability": "view",
            "type": "function"
        },
        {
            "inputs": [],
            "name": "getPermissionGrantedCount",
            "outputs": [
                {
                    "internalType": "uint32",
                    "name": "",
                    "type": "uint32"
                }
            ],
            "stateMutability": "view",
            "type": "function"
        },
        {
            "inputs": [
                {
                    "internalType": "address",
                    "name": "_address",
                    "type": "address"
                }
            ],
            "name": "givePermission",
            "outputs": [
                {
                    "internalType": "bool",
                    "name": "success",
                    "type": "bool"
                }
            ],
            "stateMutability": "nonpayable",
            "type": "function"
        },
        {
            "inputs": [],
            "name": "owner",
            "outputs": [
                {
                    "internalType": "address",
                    "name": "",
                    "type": "address"
                }
            ],
            "stateMutability": "view",
            "type": "function"
        },
        {
            "inputs": [],
            "name": "patientCount",
            "outputs": [
                {
                    "internalType": "uint32",
                    "name": "",
                    "type": "uint32"
                }
            ],
            "stateMutability": "view",
            "type": "function"
        },
        {
            "inputs": [
                {
                    "internalType": "uint256",
                    "name": "",
                    "type": "uint256"
                }
            ],
            "name": "patientList",
            "outputs": [
                {
                    "internalType": "address",
                    "name": "",
                    "type": "address"
                }
            ],
            "stateMutability": "view",
            "type": "function"
        },
        {
            "inputs": [],
            "name": "permissionGrantedCount",
            "outputs": [
                {
                    "internalType": "uint32",
                    "name": "",
                    "type": "uint32"
                }
            ],
            "stateMutability": "view",
            "type": "function"
        },
        {
            "inputs": [
                {
                    "internalType": "address",
                    "name": "_address",
                    "type": "address"
                }
            ],
            "name": "searchAppointment",
            "outputs": [
                {
                    "internalType": "address",
                    "name": "",
                    "type": "address"
                },
                {
                    "internalType": "string",
                    "name": "",
                    "type": "string"
                },
                {
                    "internalType": "string",
                    "name": "",
                    "type": "string"
                },
                {
                    "internalType": "string",
                    "name": "",
                    "type": "string"
                },
                {
                    "internalType": "string",
                    "name": "",
                    "type": "string"
                },
                {
                    "internalType": "string",
                    "name": "",
                    "type": "string"
                },
                {
                    "internalType": "string",
                    "name": "",
                    "type": "string"
                }
            ],
            "stateMutability": "view",
            "type": "function"
        },
        {
            "inputs": [
                {
                    "internalType": "address",
                    "name": "_address",
                    "type": "address"
                }
            ],
            "name": "searchAppointmentDate",
            "outputs": [
                {
                    "internalType": "uint256",
                    "name": "",
                    "type": "uint256"
                }
            ],
            "stateMutability": "view",
            "type": "function"
        },
        {
            "inputs": [
                {
                    "internalType": "address",
                    "name": "_address",
                    "type": "address"
                }
            ],
            "name": "searchDoctor",
            "outputs": [
                {
                    "internalType": "string",
                    "name": "",
                    "type": "string"
                },
                {
                    "internalType": "string",
                    "name": "",
                    "type": "string"
                },
                {
                    "internalType": "string",
                    "name": "",
                    "type": "string"
                },
                {
                    "internalType": "string",
                    "name": "",
                    "type": "string"
                },
                {
                    "internalType": "string",
                    "name": "",
                    "type": "string"
                },
                {
                    "internalType": "string",
                    "name": "",
                    "type": "string"
                },
                {
                    "internalType": "string",
                    "name": "",
                    "type": "string"
                }
            ],
            "stateMutability": "view",
            "type": "function"
        },
        {
            "inputs": [
                {
                    "internalType": "address",
                    "name": "_address",
                    "type": "address"
                }
            ],
            "name": "searchDoctorDate",
            "outputs": [
                {
                    "internalType": "uint256",
                    "name": "",
                    "type": "uint256"
                }
            ],
            "stateMutability": "view",
            "type": "function"
        },
        {
            "inputs": [
                {
                    "internalType": "address",
                    "name": "_address",
                    "type": "address"
                }
            ],
            "name": "searchPatientDemographic",
            "outputs": [
                {
                    "internalType": "string",
                    "name": "",
                    "type": "string"
                },
                {
                    "internalType": "string",
                    "name": "",
                    "type": "string"
                },
                {
                    "internalType": "string",
                    "name": "",
                    "type": "string"
                },
                {
                    "internalType": "string",
                    "name": "",
                    "type": "string"
                },
                {
                    "internalType": "string",
                    "name": "",
                    "type": "string"
                },
                {
                    "internalType": "string",
                    "name": "",
                    "type": "string"
                },
                {
                    "internalType": "string",
                    "name": "",
                    "type": "string"
                }
            ],
            "stateMutability": "view",
            "type": "function"
        },
        {
            "inputs": [
                {
                    "internalType": "address",
                    "name": "_address",
                    "type": "address"
                }
            ],
            "name": "searchPatientMedical",
            "outputs": [
                {
                    "internalType": "string",
                    "name": "",
                    "type": "string"
                },
                {
                    "internalType": "string",
                    "name": "",
                    "type": "string"
                },
                {
                    "internalType": "string",
                    "name": "",
                    "type": "string"
                },
                {
                    "internalType": "string",
                    "name": "",
                    "type": "string"
                },
                {
                    "internalType": "string",
                    "name": "",
                    "type": "string"
                }
            ],
            "stateMutability": "view",
            "type": "function"
        },
        {
            "inputs": [
                {
                    "internalType": "address",
                    "name": "_address",
                    "type": "address"
                }
            ],
            "name": "searchRecordDate",
            "outputs": [
                {
                    "internalType": "uint256",
                    "name": "",
                    "type": "uint256"
                }
            ],
            "stateMutability": "view",
            "type": "function"
        },
        {
            "inputs": [
                {
                    "internalType": "address",
                    "name": "_addr",
                    "type": "address"
                },
                {
                    "internalType": "string",
                    "name": "_date",
                    "type": "string"
                },
                {
                    "internalType": "string",
                    "name": "_time",
                    "type": "string"
                },
                {
                    "internalType": "string",
                    "name": "_diagnosis",
                    "type": "string"
                },
                {
                    "internalType": "string",
                    "name": "_description",
                    "type": "string"
                },
                {
                    "internalType": "string",
                    "name": "_status",
                    "type": "string"
                }
            ],
            "name": "setAppointment",
            "outputs": [],
            "stateMutability": "nonpayable",
            "type": "function"
        },
        {
            "inputs": [
                {
                    "internalType": "string",
                    "name": "_ic",
                    "type": "string"
                },
                {
                    "internalType": "string",
                    "name": "_name",
                    "type": "string"
                },
                {
                    "internalType": "string",
                    "name": "_phone",
                    "type": "string"
                },
                {
                    "internalType": "string",
                    "name": "_gender",
                    "type": "string"
                },
                {
                    "internalType": "string",
                    "name": "_dob",
                    "type": "string"
                },
                {
                    "internalType": "string",
                    "name": "_height",
                    "type": "string"
                },
                {
                    "internalType": "string",
                    "name": "_weight",
                    "type": "string"
                },
                {
                    "internalType": "string",
                    "name": "_houseaddr",
                    "type": "string"
                },
                {
                    "internalType": "string",
                    "name": "_bloodgroup",
                    "type": "string"
                },
                {
                    "internalType": "string",
                    "name": "_emergencyName",
                    "type": "string"
                },
                {
                    "internalType": "string",
                    "name": "_emergencyContact",
                    "type": "string"
                }
            ],
            "name": "setDetailsPatient",
            "outputs": [],
            "stateMutability": "nonpayable",
            "type": "function"
        },
        {
            "inputs": [
                {
                    "internalType": "string",
                    "name": "_ic",
                    "type": "string"
                },
                {
                    "internalType": "string",
                    "name": "_name",
                    "type": "string"
                },
                {
                    "internalType": "string",
                    "name": "_phone",
                    "type": "string"
                },
                {
                    "internalType": "string",
                    "name": "_gender",
                    "type": "string"
                },
                {
                    "internalType": "string",
                    "name": "_dob",
                    "type": "string"
                },
                {
                    "internalType": "string",
                    "name": "_qualification",
                    "type": "string"
                },
                {
                    "internalType": "string",
                    "name": "_major",
                    "type": "string"
                }
            ],
            "name": "setDoctor",
            "outputs": [],
            "stateMutability": "nonpayable",
            "type": "function"
        },
        {
            "inputs": [
                {
                    "internalType": "address",
                    "name": "_addr",
                    "type": "address"
                },
                {
                    "internalType": "string",
                    "name": "_date",
                    "type": "string"
                },
                {
                    "internalType": "string",
                    "name": "_time",
                    "type": "string"
                },
                {
                    "internalType": "string",
                    "name": "_diagnosis",
                    "type": "string"
                },
                {
                    "internalType": "string",
                    "name": "_description",
                    "type": "string"
                },
                {
                    "internalType": "string",
                    "name": "_status",
                    "type": "string"
                }
            ],
            "name": "updateAppointment",
            "outputs": [],
            "stateMutability": "nonpayable",
            "type": "function"
        }
    ],
    "bytecode": "6080604052600b80546001600160801b031916905534801561002057600080fd5b50600080546001600160a01b03191633179055614282806100426000396000f3fe608060405234801561001057600080fd5b50600436106101e55760003560e01c80638db2fc951161010f578063babb1d41116100a2578063caee6c8511610071578063caee6c8514610490578063e6fce0d2146104a3578063e93a15b9146104b6578063eebc3fb2146104e557600080fd5b8063babb1d4114610445578063bd6f972b14610458578063c0cb24ba1461046b578063c190665b1461048257600080fd5b8063a0303c41116100de578063a0303c4114610407578063a5aca8bc14610417578063a6d1ab4e1461042a578063b13d5d941461043d57600080fd5b80638db2fc95146103b35780639080af67146103c657806392041982146103d957806396b80d08146103ff57600080fd5b80633d391f701161018757806378522bc41161015657806378522bc41461035f57806379111c1c146103775780638b945c6d1461038d5780638da5cb5b146103a057600080fd5b80633d391f70146103035780634c14b38d14610316578063625961fc1461033757806374e011421461034a57600080fd5b806324c24b2b116101c357806324c24b2b1461027e57806329e4afbb146102a45780632a825ba0146102b95780633bc98280146102dd57600080fd5b806302516abd146101ea578063127ca4b41461023e57806312ad1c3714610269575b600080fd5b6102296101f8366004613a28565b3360009081526007602090815260408083206001600160a01b0394909416835292905220805460ff19169055600190565b60405190151581526020015b60405180910390f35b61025161024c366004613a4a565b6104fc565b6040516001600160a01b039091168152602001610235565b610271610526565b6040516102359190613a63565b600b54600160601b900463ffffffff165b60405163ffffffff9091168152602001610235565b600b54600160401b900463ffffffff1661028f565b6102cc6102c7366004613a28565b610588565b604051610235959493929190613af6565b6102f06102eb366004613a28565b610d0b565b6040516102359796959493929190613b63565b610229610311366004613a28565b6114d4565b610329610324366004613a28565b611548565b604051908152602001610235565b610329610345366004613a28565b61187d565b61035d610358366004613c9d565b611ccb565b005b600b5461028f90640100000000900463ffffffff1681565b600b54640100000000900463ffffffff1661028f565b61035d61039b366004613d7e565b611e59565b600054610251906001600160a01b031681565b61035d6103c1366004613e99565b611fef565b61035d6103d4366004613c9d565b61212d565b6103ec6103e7366004613a28565b612241565b6040516102359796959493929190614056565b610271612a09565b600b5461028f9063ffffffff1681565b61035d610425366004613d7e565b612a69565b61035d610438366004613e99565b612b29565b610271612d0c565b610251610453366004613a4a565b612d6c565b610329610466366004613a28565b612d7c565b600b5461028f90600160601b900463ffffffff1681565b600b5463ffffffff1661028f565b6102f061049e366004613a28565b6134a4565b6102516104b1366004613a4a565b6139fc565b61028f6104c4366004613a28565b6001600160a01b03166000908152600a602052604090205463ffffffff1690565b600b5461028f90600160401b900463ffffffff1681565b6002818154811061050c57600080fd5b6000918252602090912001546001600160a01b0316905081565b6060600180548060200260200160405190810160405280929190818152602001828054801561057e57602002820191906000526020600020905b81546001600160a01b03168152600190910190602001808311610560575b5050505050905090565b6001600160a01b0381166000908152600760209081526040808320338452909152902054606090819081908190819060ff166105c357600080fd5b6001600160a01b03861660009081526004602052604080822081516101c081019092528054829082906105f59061408c565b80601f01602080910402602001604051908101604052809291908181526020018280546106219061408c565b801561066e5780601f106106435761010080835404028352916020019161066e565b820191906000526020600020905b81548152906001019060200180831161065157829003601f168201915b505050505081526020016001820180546106879061408c565b80601f01602080910402602001604051908101604052809291908181526020018280546106b39061408c565b80156107005780601f106106d557610100808354040283529160200191610700565b820191906000526020600020905b8154815290600101906020018083116106e357829003601f168201915b505050505081526020016002820180546107199061408c565b80601f01602080910402602001604051908101604052809291908181526020018280546107459061408c565b80156107925780601f1061076757610100808354040283529160200191610792565b820191906000526020600020905b81548152906001019060200180831161077557829003601f168201915b505050505081526020016003820180546107ab9061408c565b80601f01602080910402602001604051908101604052809291908181526020018280546107d79061408c565b80156108245780601f106107f957610100808354040283529160200191610824565b820191906000526020600020905b81548152906001019060200180831161080757829003601f168201915b5050505050815260200160048201805461083d9061408c565b80601f01602080910402602001604051908101604052809291908181526020018280546108699061408c565b80156108b65780601f1061088b576101008083540402835291602001916108b6565b820191906000526020600020905b81548152906001019060200180831161089957829003601f168201915b505050505081526020016005820180546108cf9061408c565b80601f01602080910402602001604051908101604052809291908181526020018280546108fb9061408c565b80156109485780601f1061091d57610100808354040283529160200191610948565b820191906000526020600020905b81548152906001019060200180831161092b57829003601f168201915b505050505081526020016006820180546109619061408c565b80601f016020809104026020016040519081016040528092919081815260200182805461098d9061408c565b80156109da5780601f106109af576101008083540402835291602001916109da565b820191906000526020600020905b8154815290600101906020018083116109bd57829003601f168201915b505050505081526020016007820180546109f39061408c565b80601f0160208091040260200160405190810160405280929190818152602001828054610a1f9061408c565b8015610a6c5780601f10610a4157610100808354040283529160200191610a6c565b820191906000526020600020905b815481529060010190602001808311610a4f57829003601f168201915b50505050508152602001600882018054610a859061408c565b80601f0160208091040260200160405190810160405280929190818152602001828054610ab19061408c565b8015610afe5780601f10610ad357610100808354040283529160200191610afe565b820191906000526020600020905b815481529060010190602001808311610ae157829003601f168201915b50505050508152602001600982018054610b179061408c565b80601f0160208091040260200160405190810160405280929190818152602001828054610b439061408c565b8015610b905780601f10610b6557610100808354040283529160200191610b90565b820191906000526020600020905b815481529060010190602001808311610b7357829003601f168201915b50505050508152602001600a82018054610ba99061408c565b80601f0160208091040260200160405190810160405280929190818152602001828054610bd59061408c565b8015610c225780601f10610bf757610100808354040283529160200191610c22565b820191906000526020600020905b815481529060010190602001808311610c0557829003601f168201915b50505050508152602001600b82018054610c3b9061408c565b80601f0160208091040260200160405190810160405280929190818152602001828054610c679061408c565b8015610cb45780601f10610c8957610100808354040283529160200191610cb4565b820191906000526020600020905b815481529060010190602001808311610c9757829003601f168201915b5050509183525050600c8201546001600160a01b03166020820152600d9091015460409091015260e081015161010082015161012083015161014084015161016090940151929b919a509850919650945092505050565b6001600160a01b038116600090815260076020908152604080832033845290915290205460609081908190819081908190819060ff16610d825760405162461bcd60e51b815260206004820152600d60248201526c1058d8d95cdcc819195b9a5959609a1b60448201526064015b60405180910390fd5b6001600160a01b03881660009081526004602052604080822081516101c08101909252805482908290610db49061408c565b80601f0160208091040260200160405190810160405280929190818152602001828054610de09061408c565b8015610e2d5780601f10610e0257610100808354040283529160200191610e2d565b820191906000526020600020905b815481529060010190602001808311610e1057829003601f168201915b50505050508152602001600182018054610e469061408c565b80601f0160208091040260200160405190810160405280929190818152602001828054610e729061408c565b8015610ebf5780601f10610e9457610100808354040283529160200191610ebf565b820191906000526020600020905b815481529060010190602001808311610ea257829003601f168201915b50505050508152602001600282018054610ed89061408c565b80601f0160208091040260200160405190810160405280929190818152602001828054610f049061408c565b8015610f515780601f10610f2657610100808354040283529160200191610f51565b820191906000526020600020905b815481529060010190602001808311610f3457829003601f168201915b50505050508152602001600382018054610f6a9061408c565b80601f0160208091040260200160405190810160405280929190818152602001828054610f969061408c565b8015610fe35780601f10610fb857610100808354040283529160200191610fe3565b820191906000526020600020905b815481529060010190602001808311610fc657829003601f168201915b50505050508152602001600482018054610ffc9061408c565b80601f01602080910402602001604051908101604052809291908181526020018280546110289061408c565b80156110755780601f1061104a57610100808354040283529160200191611075565b820191906000526020600020905b81548152906001019060200180831161105857829003601f168201915b5050505050815260200160058201805461108e9061408c565b80601f01602080910402602001604051908101604052809291908181526020018280546110ba9061408c565b80156111075780601f106110dc57610100808354040283529160200191611107565b820191906000526020600020905b8154815290600101906020018083116110ea57829003601f168201915b505050505081526020016006820180546111209061408c565b80601f016020809104026020016040519081016040528092919081815260200182805461114c9061408c565b80156111995780601f1061116e57610100808354040283529160200191611199565b820191906000526020600020905b81548152906001019060200180831161117c57829003601f168201915b505050505081526020016007820180546111b29061408c565b80601f01602080910402602001604051908101604052809291908181526020018280546111de9061408c565b801561122b5780601f106112005761010080835404028352916020019161122b565b820191906000526020600020905b81548152906001019060200180831161120e57829003601f168201915b505050505081526020016008820180546112449061408c565b80601f01602080910402602001604051908101604052809291908181526020018280546112709061408c565b80156112bd5780601f10611292576101008083540402835291602001916112bd565b820191906000526020600020905b8154815290600101906020018083116112a057829003601f168201915b505050505081526020016009820180546112d69061408c565b80601f01602080910402602001604051908101604052809291908181526020018280546113029061408c565b801561134f5780601f106113245761010080835404028352916020019161134f565b820191906000526020600020905b81548152906001019060200180831161133257829003601f168201915b50505050508152602001600a820180546113689061408c565b80601f01602080910402602001604051908101604052809291908181526020018280546113949061408c565b80156113e15780601f106113b6576101008083540402835291602001916113e1565b820191906000526020600020905b8154815290600101906020018083116113c457829003601f168201915b50505050508152602001600b820180546113fa9061408c565b80601f01602080910402602001604051908101604052809291908181526020018280546114269061408c565b80156114735780601f1061144857610100808354040283529160200191611473565b820191906000526020600020905b81548152906001019060200180831161145657829003601f168201915b5050509183525050600c8201546001600160a01b0316602080830191909152600d90920154604091820152825191830151908301516060840151608085015160a086015160c090960151949f939e50919c509a509850919650945092505050565b3360009081526007602090815260408083206001600160a01b03851684529091528120805460ff19166001179055600b805463ffffffff600160601b9091041690600c611520836140c6565b91906101000a81548163ffffffff021916908363ffffffff1602179055505060019050919050565b6001600160a01b038082166000908152600660209081526040808320815161010081018352815486168152600182015490951692850192909252600282018054939485949093928401919061159c9061408c565b80601f01602080910402602001604051908101604052809291908181526020018280546115c89061408c565b80156116155780601f106115ea57610100808354040283529160200191611615565b820191906000526020600020905b8154815290600101906020018083116115f857829003601f168201915b5050505050815260200160038201805461162e9061408c565b80601f016020809104026020016040519081016040528092919081815260200182805461165a9061408c565b80156116a75780601f1061167c576101008083540402835291602001916116a7565b820191906000526020600020905b81548152906001019060200180831161168a57829003601f168201915b505050505081526020016004820180546116c09061408c565b80601f01602080910402602001604051908101604052809291908181526020018280546116ec9061408c565b80156117395780601f1061170e57610100808354040283529160200191611739565b820191906000526020600020905b81548152906001019060200180831161171c57829003601f168201915b505050505081526020016005820180546117529061408c565b80601f016020809104026020016040519081016040528092919081815260200182805461177e9061408c565b80156117cb5780601f106117a0576101008083540402835291602001916117cb565b820191906000526020600020905b8154815290600101906020018083116117ae57829003601f168201915b505050505081526020016006820180546117e49061408c565b80601f01602080910402602001604051908101604052809291908181526020018280546118109061408c565b801561185d5780601f106118325761010080835404028352916020019161185d565b820191906000526020600020905b81548152906001019060200180831161184057829003601f168201915b50505091835250506007919091015460209091015260e001519392505050565b6001600160a01b03811660009081526005602052604080822081516101208101909252805483929190829082906118b39061408c565b80601f01602080910402602001604051908101604052809291908181526020018280546118df9061408c565b801561192c5780601f106119015761010080835404028352916020019161192c565b820191906000526020600020905b81548152906001019060200180831161190f57829003601f168201915b505050505081526020016001820180546119459061408c565b80601f01602080910402602001604051908101604052809291908181526020018280546119719061408c565b80156119be5780601f10611993576101008083540402835291602001916119be565b820191906000526020600020905b8154815290600101906020018083116119a157829003601f168201915b505050505081526020016002820180546119d79061408c565b80601f0160208091040260200160405190810160405280929190818152602001828054611a039061408c565b8015611a505780601f10611a2557610100808354040283529160200191611a50565b820191906000526020600020905b815481529060010190602001808311611a3357829003601f168201915b50505050508152602001600382018054611a699061408c565b80601f0160208091040260200160405190810160405280929190818152602001828054611a959061408c565b8015611ae25780601f10611ab757610100808354040283529160200191611ae2565b820191906000526020600020905b815481529060010190602001808311611ac557829003601f168201915b50505050508152602001600482018054611afb9061408c565b80601f0160208091040260200160405190810160405280929190818152602001828054611b279061408c565b8015611b745780601f10611b4957610100808354040283529160200191611b74565b820191906000526020600020905b815481529060010190602001808311611b5757829003601f168201915b50505050508152602001600582018054611b8d9061408c565b80601f0160208091040260200160405190810160405280929190818152602001828054611bb99061408c565b8015611c065780601f10611bdb57610100808354040283529160200191611c06565b820191906000526020600020905b815481529060010190602001808311611be957829003601f168201915b50505050508152602001600682018054611c1f9061408c565b80601f0160208091040260200160405190810160405280929190818152602001828054611c4b9061408c565b8015611c985780601f10611c6d57610100808354040283529160200191611c98565b820191906000526020600020905b815481529060010190602001808311611c7b57829003601f168201915b505050918352505060078201546001600160a01b0316602082015260089091015460409091015261010001519392505050565b3360009081526009602052604090205460ff16611cfa5760405162461bcd60e51b8152600401610d79906140f7565b6001600160a01b038616600081815260066020526040902080546001600160a01b03199081163317825560018201805490911690921790915560028101611d41878261418c565b5060038101611d50868261418c565b5060058101611d5f858261418c565b5060048101611d6e848261418c565b5060068101611d7d838261418c565b50426007820155600380546001810182556000919091527fc2575a0e9e593c00f959f8c92f12db2869c3395a3b0502d05e2516446f71f85b0180546001600160a01b0319166001600160a01b038916179055600b8054600160401b900463ffffffff16906008611dec836140c6565b82546101009290920a63ffffffff8181021990931691831602179091556001600160a01b0389166000908152600a6020526040812080549092169250611e31836140c6565b91906101000a81548163ffffffff021916908363ffffffff1602179055505050505050505050565b3360009081526009602052604090205460ff1615611ec35760405162461bcd60e51b815260206004820152602160248201527f2054686973206164647265737320697320616c7265616479206120646f63746f6044820152603960f91b6064820152608401610d79565b33600090815260056020526040902080611edd898261418c565b5060018101611eec888261418c565b5060028101611efb878261418c565b5060038101611f0a868261418c565b5060048101611f19858261418c565b5060058101611f28848261418c565b5060068101611f37838261418c565b50600781018054336001600160a01b031991821681179092554260088401556002805460018181019092557f405787fa12a823e0f2b7631cc41b3ba8828b3321ca811111fa75cd3aa3bb5ace0180549092168317909155600091825260096020526040909120805460ff19169091179055600b8054640100000000900463ffffffff16906004611fc6836140c6565b91906101000a81548163ffffffff021916908363ffffffff160217905550505050505050505050565b3360009081526008602052604090205460ff1661205c5760405162461bcd60e51b815260206004820152602560248201527f54686973206164647265737320646f6573206e6f742068617665207065726d6960448201526439b9b4b7b760d91b6064820152608401610d79565b336000908152600460205260409020806120768d8261418c565b50600181016120858c8261418c565b50600281016120948b8261418c565b50600381016120a38a8261418c565b50600481016120b2898261418c565b50600581016120c1888261418c565b50600681016120d0878261418c565b50600781016120df868261418c565b50600881016120ee858261418c565b50600a81016120fd848261418c565b50600b810161210c838261418c565b50600c0180546001600160a01b031916331790555050505050505050505050565b3360009081526009602052604090205460ff166121b4576040805162461bcd60e51b81526020600482015260248101919091527f54686973206164647265737320646f6573206e6f742068617665207065726d6960448201527f7373696f6e20746f20757064617465206e6577206170706f696e746d656e74736064820152608401610d79565b6001600160a01b038616600081815260066020526040902080546001600160a01b031990811633178255600182018054909116909217909155600281016121fb878261418c565b506003810161220a868261418c565b5060058101612219858261418c565b5060048101612228848261418c565b5060068101612237838261418c565b5050505050505050565b6001600160a01b0380821660009081526006602090815260408083208151610100810183528154861681526001820154909516928501929092526002820180549394606094859485948594859485948b949193919291840191906122a49061408c565b80601f01602080910402602001604051908101604052809291908181526020018280546122d09061408c565b801561231d5780601f106122f25761010080835404028352916020019161231d565b820191906000526020600020905b81548152906001019060200180831161230057829003601f168201915b505050505081526020016003820180546123369061408c565b80601f01602080910402602001604051908101604052809291908181526020018280546123629061408c565b80156123af5780601f10612384576101008083540402835291602001916123af565b820191906000526020600020905b81548152906001019060200180831161239257829003601f168201915b505050505081526020016004820180546123c89061408c565b80601f01602080910402602001604051908101604052809291908181526020018280546123f49061408c565b80156124415780601f1061241657610100808354040283529160200191612441565b820191906000526020600020905b81548152906001019060200180831161242457829003601f168201915b5050505050815260200160058201805461245a9061408c565b80601f01602080910402602001604051908101604052809291908181526020018280546124869061408c565b80156124d35780601f106124a8576101008083540402835291602001916124d3565b820191906000526020600020905b8154815290600101906020018083116124b657829003601f168201915b505050505081526020016006820180546124ec9061408c565b80601f01602080910402602001604051908101604052809291908181526020018280546125189061408c565b80156125655780601f1061253a57610100808354040283529160200191612565565b820191906000526020600020905b81548152906001019060200180831161254857829003601f168201915b50505050508152602001600782015481525050905060006005600083600001516001600160a01b03166001600160a01b03168152602001908152602001600020604051806101200160405290816000820180546125c19061408c565b80601f01602080910402602001604051908101604052809291908181526020018280546125ed9061408c565b801561263a5780601f1061260f5761010080835404028352916020019161263a565b820191906000526020600020905b81548152906001019060200180831161261d57829003601f168201915b505050505081526020016001820180546126539061408c565b80601f016020809104026020016040519081016040528092919081815260200182805461267f9061408c565b80156126cc5780601f106126a1576101008083540402835291602001916126cc565b820191906000526020600020905b8154815290600101906020018083116126af57829003601f168201915b505050505081526020016002820180546126e59061408c565b80601f01602080910402602001604051908101604052809291908181526020018280546127119061408c565b801561275e5780601f106127335761010080835404028352916020019161275e565b820191906000526020600020905b81548152906001019060200180831161274157829003601f168201915b505050505081526020016003820180546127779061408c565b80601f01602080910402602001604051908101604052809291908181526020018280546127a39061408c565b80156127f05780601f106127c5576101008083540402835291602001916127f0565b820191906000526020600020905b8154815290600101906020018083116127d357829003601f168201915b505050505081526020016004820180546128099061408c565b80601f01602080910402602001604051908101604052809291908181526020018280546128359061408c565b80156128825780601f1061285757610100808354040283529160200191612882565b820191906000526020600020905b81548152906001019060200180831161286557829003601f168201915b5050505050815260200160058201805461289b9061408c565b80601f01602080910402602001604051908101604052809291908181526020018280546128c79061408c565b80156129145780601f106128e957610100808354040283529160200191612914565b820191906000526020600020905b8154815290600101906020018083116128f757829003601f168201915b5050505050815260200160068201805461292d9061408c565b80601f01602080910402602001604051908101604052809291908181526020018280546129599061408c565b80156129a65780601f1061297b576101008083540402835291602001916129a6565b820191906000526020600020905b81548152906001019060200180831161298957829003601f168201915b505050918352505060078201546001600160a01b03166020808301919091526008909201546040918201528451929091015190840151606085015160a0860151608087015160c090970151949f939e50919c509a50985092965094509092505050565b6060600380548060200260200160405190810160405280929190818152602001828054801561057e576020028201919060005260206000209081546001600160a01b03168152600190910190602001808311610560575050505050905090565b3360009081526009602052604090205460ff16612a985760405162461bcd60e51b8152600401610d79906140f7565b33600090815260056020526040902080612ab2898261418c565b5060018101612ac1888261418c565b5060028101612ad0878261418c565b5060038101612adf868261418c565b5060048101612aee858261418c565b5060058101612afd848261418c565b5060068101612b0c838261418c565b5060070180546001600160a01b0319163317905550505050505050565b3360009081526008602052604090205460ff1615612b935760405162461bcd60e51b815260206004820152602160248201527f54686973206164647265737320697320616c726561647920612070617469656e6044820152601d60fa1b6064820152608401610d79565b33600090815260046020526040902080612bad8d8261418c565b5060018101612bbc8c8261418c565b5060028101612bcb8b8261418c565b5060038101612bda8a8261418c565b5060048101612be9898261418c565b5060058101612bf8888261418c565b5060068101612c07878261418c565b5060078101612c16868261418c565b5060088101612c25858261418c565b50600a8101612c34848261418c565b50600b8101612c43838261418c565b50600c81018054336001600160a01b0319918216811790925542600d8401556001805480820182557fb10e2d527612073b26eecdfd717e6a320cf44b4afac2b0732d9fcbe2b7fa0cf601805490921683179091556000918252600860209081526040808420805460ff19908116851790915560078352818520909252832080549091169091179055600b805463ffffffff1691612cdf836140c6565b91906101000a81548163ffffffff021916908363ffffffff16021790555050505050505050505050505050565b6060600280548060200260200160405190810160405280929190818152602001828054801561057e576020028201919060005260206000209081546001600160a01b03168152600190910190602001808311610560575050505050905090565b6001818154811061050c57600080fd5b6001600160a01b03811660009081526004602052604080822081516101c0810190925280548392919082908290612db29061408c565b80601f0160208091040260200160405190810160405280929190818152602001828054612dde9061408c565b8015612e2b5780601f10612e0057610100808354040283529160200191612e2b565b820191906000526020600020905b815481529060010190602001808311612e0e57829003601f168201915b50505050508152602001600182018054612e449061408c565b80601f0160208091040260200160405190810160405280929190818152602001828054612e709061408c565b8015612ebd5780601f10612e9257610100808354040283529160200191612ebd565b820191906000526020600020905b815481529060010190602001808311612ea057829003601f168201915b50505050508152602001600282018054612ed69061408c565b80601f0160208091040260200160405190810160405280929190818152602001828054612f029061408c565b8015612f4f5780601f10612f2457610100808354040283529160200191612f4f565b820191906000526020600020905b815481529060010190602001808311612f3257829003601f168201915b50505050508152602001600382018054612f689061408c565b80601f0160208091040260200160405190810160405280929190818152602001828054612f949061408c565b8015612fe15780601f10612fb657610100808354040283529160200191612fe1565b820191906000526020600020905b815481529060010190602001808311612fc457829003601f168201915b50505050508152602001600482018054612ffa9061408c565b80601f01602080910402602001604051908101604052809291908181526020018280546130269061408c565b80156130735780601f1061304857610100808354040283529160200191613073565b820191906000526020600020905b81548152906001019060200180831161305657829003601f168201915b5050505050815260200160058201805461308c9061408c565b80601f01602080910402602001604051908101604052809291908181526020018280546130b89061408c565b80156131055780601f106130da57610100808354040283529160200191613105565b820191906000526020600020905b8154815290600101906020018083116130e857829003601f168201915b5050505050815260200160068201805461311e9061408c565b80601f016020809104026020016040519081016040528092919081815260200182805461314a9061408c565b80156131975780601f1061316c57610100808354040283529160200191613197565b820191906000526020600020905b81548152906001019060200180831161317a57829003601f168201915b505050505081526020016007820180546131b09061408c565b80601f01602080910402602001604051908101604052809291908181526020018280546131dc9061408c565b80156132295780601f106131fe57610100808354040283529160200191613229565b820191906000526020600020905b81548152906001019060200180831161320c57829003601f168201915b505050505081526020016008820180546132429061408c565b80601f016020809104026020016040519081016040528092919081815260200182805461326e9061408c565b80156132bb5780601f10613290576101008083540402835291602001916132bb565b820191906000526020600020905b81548152906001019060200180831161329e57829003601f168201915b505050505081526020016009820180546132d49061408c565b80601f01602080910402602001604051908101604052809291908181526020018280546133009061408c565b801561334d5780601f106133225761010080835404028352916020019161334d565b820191906000526020600020905b81548152906001019060200180831161333057829003601f168201915b50505050508152602001600a820180546133669061408c565b80601f01602080910402602001604051908101604052809291908181526020018280546133929061408c565b80156133df5780601f106133b4576101008083540402835291602001916133df565b820191906000526020600020905b8154815290600101906020018083116133c257829003601f168201915b50505050508152602001600b820180546133f89061408c565b80601f01602080910402602001604051908101604052809291908181526020018280546134249061408c565b80156134715780601f1061344657610100808354040283529160200191613471565b820191906000526020600020905b81548152906001019060200180831161345457829003601f168201915b5050509183525050600c8201546001600160a01b03166020820152600d909101546040909101526101a001519392505050565b3360009081526009602052604090205460609081908190819081908190819060ff166135235760405162461bcd60e51b815260206004820152602860248201527f4f6e6c7920646f63746f72732063616e20616363657373207468697320696e6660448201526737b936b0ba34b7b760c11b6064820152608401610d79565b6001600160a01b03881660009081526009602052604090205460ff166135845760405162461bcd60e51b8152602060048201526016602482015275496e76616c696420646f63746f72206164647265737360501b6044820152606401610d79565b6001600160a01b038816600090815260056020526040808220815161012081019092528054829082906135b69061408c565b80601f01602080910402602001604051908101604052809291908181526020018280546135e29061408c565b801561362f5780601f106136045761010080835404028352916020019161362f565b820191906000526020600020905b81548152906001019060200180831161361257829003601f168201915b505050505081526020016001820180546136489061408c565b80601f01602080910402602001604051908101604052809291908181526020018280546136749061408c565b80156136c15780601f10613696576101008083540402835291602001916136c1565b820191906000526020600020905b8154815290600101906020018083116136a457829003601f168201915b505050505081526020016002820180546136da9061408c565b80601f01602080910402602001604051908101604052809291908181526020018280546137069061408c565b80156137535780601f1061372857610100808354040283529160200191613753565b820191906000526020600020905b81548152906001019060200180831161373657829003601f168201915b5050505050815260200160038201805461376c9061408c565b80601f01602080910402602001604051908101604052809291908181526020018280546137989061408c565b80156137e55780601f106137ba576101008083540402835291602001916137e5565b820191906000526020600020905b8154815290600101906020018083116137c857829003601f168201915b505050505081526020016004820180546137fe9061408c565b80601f016020809104026020016040519081016040528092919081815260200182805461382a9061408c565b80156138775780601f1061384c57610100808354040283529160200191613877565b820191906000526020600020905b81548152906001019060200180831161385a57829003601f168201915b505050505081526020016005820180546138909061408c565b80601f01602080910402602001604051908101604052809291908181526020018280546138bc9061408c565b80156139095780601f106138de57610100808354040283529160200191613909565b820191906000526020600020905b8154815290600101906020018083116138ec57829003601f168201915b505050505081526020016006820180546139229061408c565b80601f016020809104026020016040519081016040528092919081815260200182805461394e9061408c565b801561399b5780601f106139705761010080835404028352916020019161399b565b820191906000526020600020905b81548152906001019060200180831161397e57829003601f168201915b505050918352505060078201546001600160a01b0316602080830191909152600890920154604091820152825191830151908301516060840151608085015160a086015160c090960151949f939e50919c509a509850919650945092505050565b6003818154811061050c57600080fd5b80356001600160a01b0381168114613a2357600080fd5b919050565b600060208284031215613a3a57600080fd5b613a4382613a0c565b9392505050565b600060208284031215613a5c57600080fd5b5035919050565b6020808252825182820181905260009190848201906040850190845b81811015613aa45783516001600160a01b031683529284019291840191600101613a7f565b50909695505050505050565b6000815180845260005b81811015613ad657602081850181015186830182015201613aba565b506000602082860101526020601f19601f83011685010191505092915050565b60a081526000613b0960a0830188613ab0565b8281036020840152613b1b8188613ab0565b90508281036040840152613b2f8187613ab0565b90508281036060840152613b438186613ab0565b90508281036080840152613b578185613ab0565b98975050505050505050565b60e081526000613b7660e083018a613ab0565b8281036020840152613b88818a613ab0565b90508281036040840152613b9c8189613ab0565b90508281036060840152613bb08188613ab0565b90508281036080840152613bc48187613ab0565b905082810360a0840152613bd88186613ab0565b905082810360c0840152613bec8185613ab0565b9a9950505050505050505050565b634e487b7160e01b600052604160045260246000fd5b600082601f830112613c2157600080fd5b813567ffffffffffffffff80821115613c3c57613c3c613bfa565b604051601f8301601f19908116603f01168101908282118183101715613c6457613c64613bfa565b81604052838152866020858801011115613c7d57600080fd5b836020870160208301376000602085830101528094505050505092915050565b60008060008060008060c08789031215613cb657600080fd5b613cbf87613a0c565b9550602087013567ffffffffffffffff80821115613cdc57600080fd5b613ce88a838b01613c10565b96506040890135915080821115613cfe57600080fd5b613d0a8a838b01613c10565b95506060890135915080821115613d2057600080fd5b613d2c8a838b01613c10565b94506080890135915080821115613d4257600080fd5b613d4e8a838b01613c10565b935060a0890135915080821115613d6457600080fd5b50613d7189828a01613c10565b9150509295509295509295565b600080600080600080600060e0888a031215613d9957600080fd5b873567ffffffffffffffff80821115613db157600080fd5b613dbd8b838c01613c10565b985060208a0135915080821115613dd357600080fd5b613ddf8b838c01613c10565b975060408a0135915080821115613df557600080fd5b613e018b838c01613c10565b965060608a0135915080821115613e1757600080fd5b613e238b838c01613c10565b955060808a0135915080821115613e3957600080fd5b613e458b838c01613c10565b945060a08a0135915080821115613e5b57600080fd5b613e678b838c01613c10565b935060c08a0135915080821115613e7d57600080fd5b50613e8a8a828b01613c10565b91505092959891949750929550565b60008060008060008060008060008060006101608c8e031215613ebb57600080fd5b67ffffffffffffffff808d351115613ed257600080fd5b613edf8e8e358f01613c10565b9b508060208e01351115613ef257600080fd5b613f028e60208f01358f01613c10565b9a508060408e01351115613f1557600080fd5b613f258e60408f01358f01613c10565b99508060608e01351115613f3857600080fd5b613f488e60608f01358f01613c10565b98508060808e01351115613f5b57600080fd5b613f6b8e60808f01358f01613c10565b97508060a08e01351115613f7e57600080fd5b613f8e8e60a08f01358f01613c10565b96508060c08e01351115613fa157600080fd5b613fb18e60c08f01358f01613c10565b95508060e08e01351115613fc457600080fd5b613fd48e60e08f01358f01613c10565b9450806101008e01351115613fe857600080fd5b613ff98e6101008f01358f01613c10565b9350806101208e0135111561400d57600080fd5b61401e8e6101208f01358f01613c10565b9250806101408e0135111561403257600080fd5b506140448d6101408e01358e01613c10565b90509295989b509295989b9093969950565b6001600160a01b038816815260e06020820181905260009061407a90830189613ab0565b8281036040840152613b9c8189613ab0565b600181811c908216806140a057607f821691505b6020821081036140c057634e487b7160e01b600052602260045260246000fd5b50919050565b600063ffffffff8083168181036140ed57634e487b7160e01b600052601160045260246000fd5b6001019392505050565b60208082526026908201527f54686973206164647265737320646f6573206e6f742068617665207065726d69604082015265039b9b4b7b7160d51b606082015260800190565b601f82111561418757600081815260208120601f850160051c810160208610156141645750805b601f850160051c820191505b8181101561418357828155600101614170565b5050505b505050565b815167ffffffffffffffff8111156141a6576141a6613bfa565b6141ba816141b4845461408c565b8461413d565b602080601f8311600181146141ef57600084156141d75750858301515b600019600386901b1c1916600185901b178555614183565b600085815260208120601f198616915b8281101561421e578886015182559484019460019091019084016141ff565b508582101561423c5787850151600019600388901b60f8161c191681555b5050505050600190811b0190555056fea2646970667358221220c5e882334815158f2fe7e872dc0f02c0003c9764634772a2e9273243f724d14964736f6c63430008130033",
    "sourcePath": "d:/PROJECT_BLOCKCHAIN/FinalMainProject/blockchain/contracts/RecordHealthcareData.sol",
    "compiler": {
        "name": "solc",
        "version": "0.8.19+commit.7dd6d404"
    },
    "functionHashes": {
        "RevokePermission(address)": "02516abd",
        "appointmentCount()": "eebc3fb2",
        "appointmentList(uint256)": "e6fce0d2",
        "doctorCount()": "78522bc4",
        "doctorList(uint256)": "127ca4b4",
        "editDetailsPatient(string,string,string,string,string,string,string,string,string,string,string)": "8db2fc95",
        "editDoctor(string,string,string,string,string,string,string)": "a5aca8bc",
        "getAppointmentCount()": "29e4afbb",
        "getAppointmentPerPatient(address)": "e93a15b9",
        "getAppointments()": "96b80d08",
        "getDoctorCount()": "79111c1c",
        "getDoctors()": "b13d5d94",
        "getPatientCount()": "c190665b",
        "getPatients()": "12ad1c37",
        "getPermissionGrantedCount()": "24c24b2b",
        "givePermission(address)": "3d391f70",
        "owner()": "8da5cb5b",
        "patientCount()": "a0303c41",
        "patientList(uint256)": "babb1d41",
        "permissionGrantedCount()": "c0cb24ba",
        "searchAppointment(address)": "92041982",
        "searchAppointmentDate(address)": "4c14b38d",
        "searchDoctor(address)": "caee6c85",
        "searchDoctorDate(address)": "625961fc",
        "searchPatientDemographic(address)": "3bc98280",
        "searchPatientMedical(address)": "2a825ba0",
        "searchRecordDate(address)": "bd6f972b",
        "setAppointment(address,string,string,string,string,string)": "74e01142",
        "setDetailsPatient(string,string,string,string,string,string,string,string,string,string,string)": "a6d1ab4e",
        "setDoctor(string,string,string,string,string,string,string)": "8b945c6d",
        "updateAppointment(address,string,string,string,string,string)": "9080af67"
    },
    "gasEstimates": {
        "creation": {
            "codeDepositCost": "3405200",
            "executionCost": "52268",
            "totalCost": "3457468"
        },
        "external": {
            "RevokePermission(address)": "24774",
            "appointmentCount()": "2440",
            "appointmentList(uint256)": "4680",
            "doctorCount()": "2369",
            "doctorList(uint256)": "4683",
            "editDetailsPatient(string,string,string,string,string,string,string,string,string,string,string)": "infinite",
            "editDoctor(string,string,string,string,string,string,string)": "infinite",
            "getAppointmentCount()": "2392",
            "getAppointmentPerPatient(address)": "2640",
            "getAppointments()": "infinite",
            "getDoctorCount()": "2385",
            "getDoctors()": "infinite",
            "getPatientCount()": "2418",
            "getPatients()": "infinite",
            "getPermissionGrantedCount()": "2359",
            "givePermission(address)": "51335",
            "owner()": "2448",
            "patientCount()": "2358",
            "patientList(uint256)": "4659",
            "permissionGrantedCount()": "2419",
            "searchAppointment(address)": "infinite",
            "searchAppointmentDate(address)": "infinite",
            "searchDoctor(address)": "infinite",
            "searchDoctorDate(address)": "infinite",
            "searchPatientDemographic(address)": "infinite",
            "searchPatientMedical(address)": "infinite",
            "searchRecordDate(address)": "infinite",
            "setAppointment(address,string,string,string,string,string)": "infinite",
            "setDetailsPatient(string,string,string,string,string,string,string,string,string,string,string)": "infinite",
            "setDoctor(string,string,string,string,string,string,string)": "infinite",
            "updateAppointment(address,string,string,string,string,string)": "infinite"
        }
    }
}