{
  "contractName": "Migrations",
  "abi": [
    {
      "inputs": [],
      "stateMutability": "nonpayable",
      "type": "constructor"
    },
    {
      "inputs": [],
      "name": "owner",
      "outputs": [
        {
          "internalType": "address",
          "name": "",
          "type": "address"
        }
      ],
      "stateMutability": "view",
      "type": "function",
      "constant": true
    },
    {
      "inputs": [
        {
          "internalType": "uint256",
          "name": "completed",
          "type": "uint256"
        }
      ],
      "name": "setCompleted",
      "outputs": [],
      "stateMutability": "nonpayable",
      "type": "function"
    },
    {
      "inputs": [
        {
          "internalType": "address",
          "name": "new_address",
          "type": "address"
        }
      ],
      "name": "upgrade",
      "outputs": [],
      "stateMutability": "nonpayable",
      "type": "function"
    }
  ],
  "bytecode": "0x608060405234801561001057600080fd5b50600080546001600160a01b031916331790556101af806100326000396000f3fe608060405234801561001057600080fd5b50600436106100415760003560e01c80630900f010146100465780638da5cb5b1461005b578063fdacd5761461008a575b600080fd5b610059610054366004610130565b61009d565b005b60005461006e906001600160a01b031681565b6040516001600160a01b03909116815260200160405180910390f35b610059610098366004610160565b610119565b6000546001600160a01b0316330361011657600154604051637ed66abb60e11b815282916001600160a01b0383169163fdacd576916100e29160040190815260200190565b600060405180830381600087803b1580156100fc57600080fd5b505af1158015610110573d6000803e3d6000fd5b50505050505b50565b6000546001600160a01b0316330361011657600155565b60006020828403121561014257600080fd5b81356001600160a01b038116811461015957600080fd5b9392505050565b60006020828403121561017257600080fd5b503591905056fea26469706673582212209296e178df704d73f6d5185fc359c6358da2cac302db273805c2f16e6a39d30b64736f6c63430008130033",
  "immutableReferences": {},
  "source": "// SPDX-License-Identifier: MIT \r\npragma solidity 0.8.19;\r\n\r\ncontract Migrations {\r\n    address public owner;\r\n    uint last_completed_migration;\r\n\r\n    constructor() {\r\n        owner = msg.sender;\r\n    }\r\n\r\n    modifier restricted() {\r\n        if (msg.sender == owner) _;\r\n    }\r\n\r\n    function setCompleted(uint completed) public restricted {\r\n        last_completed_migration = completed;\r\n    }\r\n\r\n    function upgrade(address new_address) public restricted {\r\n        Migrations upgraded = Migrations(new_address);\r\n        upgraded.setCompleted(last_completed_migration);\r\n    }\r\n}\r\n",
  "sourcePath": "D:\\PROJECT_BLOCKCHAIN\\FinalMainProject\\blockchain\\contracts\\Migrations.sol",
  "compiler": {
    "name": "solc",
    "version": "0.8.19+commit.7dd6d404.Emscripten.clang"
  },
  "schemaVersion": "3.4.16",
  "updatedAt": "2024-01-27T04:14:31.059Z",
  "networkType": "ethereum",
  "devdoc": {
    "kind": "dev",
    "methods": {},
    "version": 1
  },
  "userdoc": {
    "kind": "user",
    "methods": {},
    "version": 1
  }
}