{
  "contractName": "RecordHealthCareData",
  "abi": [
    {
      "inputs": [],
      "stateMutability": "nonpayable",
      "type": "constructor"
    },
    {
      "inputs": [],
      "name": "appointmentCount",
      "outputs": [
        {
          "internalType": "uint32",
          "name": "",
          "type": "uint32"
        }
      ],
      "stateMutability": "view",
      "type": "function",
      "constant": true
    },
    {
      "inputs": [
        {
          "internalType": "uint256",
          "name": "",
          "type": "uint256"
        }
      ],
      "name": "appointmentList",
      "outputs": [
        {
          "internalType": "address",
          "name": "",
          "type": "address"
        }
      ],
      "stateMutability": "view",
      "type": "function",
      "constant": true
    },
    {
      "inputs": [],
      "name": "doctorCount",
      "outputs": [
        {
          "internalType": "uint32",
          "name": "",
          "type": "uint32"
        }
      ],
      "stateMutability": "view",
      "type": "function",
      "constant": true
    },
    {
      "inputs": [
        {
          "internalType": "uint256",
          "name": "",
          "type": "uint256"
        }
      ],
      "name": "doctorList",
      "outputs": [
        {
          "internalType": "address",
          "name": "",
          "type": "address"
        }
      ],
      "stateMutability": "view",
      "type": "function",
      "constant": true
    },
    {
      "inputs": [],
      "name": "owner",
      "outputs": [
        {
          "internalType": "address",
          "name": "",
          "type": "address"
        }
      ],
      "stateMutability": "view",
      "type": "function",
      "constant": true
    },
    {
      "inputs": [],
      "name": "patientCount",
      "outputs": [
        {
          "internalType": "uint32",
          "name": "",
          "type": "uint32"
        }
      ],
      "stateMutability": "view",
      "type": "function",
      "constant": true
    },
    {
      "inputs": [
        {
          "internalType": "uint256",
          "name": "",
          "type": "uint256"
        }
      ],
      "name": "patientList",
      "outputs": [
        {
          "internalType": "address",
          "name": "",
          "type": "address"
        }
      ],
      "stateMutability": "view",
      "type": "function",
      "constant": true
    },
    {
      "inputs": [],
      "name": "permissionGrantedCount",
      "outputs": [
        {
          "internalType": "uint32",
          "name": "",
          "type": "uint32"
        }
      ],
      "stateMutability": "view",
      "type": "function",
      "constant": true
    },
    {
      "inputs": [
        {
          "internalType": "string",
          "name": "_ic",
          "type": "string"
        },
        {
          "internalType": "string",
          "name": "_name",
          "type": "string"
        },
        {
          "internalType": "string",
          "name": "_phone",
          "type": "string"
        },
        {
          "internalType": "string",
          "name": "_gender",
          "type": "string"
        },
        {
          "internalType": "string",
          "name": "_dob",
          "type": "string"
        },
        {
          "internalType": "string",
          "name": "_height",
          "type": "string"
        },
        {
          "internalType": "string",
          "name": "_weight",
          "type": "string"
        },
        {
          "internalType": "string",
          "name": "_houseaddr",
          "type": "string"
        },
        {
          "internalType": "string",
          "name": "_bloodgroup",
          "type": "string"
        },
        {
          "internalType": "string",
          "name": "_emergencyName",
          "type": "string"
        },
        {
          "internalType": "string",
          "name": "_emergencyContact",
          "type": "string"
        }
      ],
      "name": "setDetailsPatient",
      "outputs": [],
      "stateMutability": "nonpayable",
      "type": "function"
    },
    {
      "inputs": [
        {
          "internalType": "string",
          "name": "_ic",
          "type": "string"
        },
        {
          "internalType": "string",
          "name": "_name",
          "type": "string"
        },
        {
          "internalType": "string",
          "name": "_phone",
          "type": "string"
        },
        {
          "internalType": "string",
          "name": "_gender",
          "type": "string"
        },
        {
          "internalType": "string",
          "name": "_dob",
          "type": "string"
        },
        {
          "internalType": "string",
          "name": "_height",
          "type": "string"
        },
        {
          "internalType": "string",
          "name": "_weight",
          "type": "string"
        },
        {
          "internalType": "string",
          "name": "_houseaddr",
          "type": "string"
        },
        {
          "internalType": "string",
          "name": "_bloodgroup",
          "type": "string"
        },
        {
          "internalType": "string",
          "name": "_emergencyName",
          "type": "string"
        },
        {
          "internalType": "string",
          "name": "_emergencyContact",
          "type": "string"
        }
      ],
      "name": "editDetailsPatient",
      "outputs": [],
      "stateMutability": "nonpayable",
      "type": "function"
    },
    {
      "inputs": [
        {
          "internalType": "string",
          "name": "_ic",
          "type": "string"
        },
        {
          "internalType": "string",
          "name": "_name",
          "type": "string"
        },
        {
          "internalType": "string",
          "name": "_phone",
          "type": "string"
        },
        {
          "internalType": "string",
          "name": "_gender",
          "type": "string"
        },
        {
          "internalType": "string",
          "name": "_dob",
          "type": "string"
        },
        {
          "internalType": "string",
          "name": "_qualification",
          "type": "string"
        },
        {
          "internalType": "string",
          "name": "_major",
          "type": "string"
        }
      ],
      "name": "setDoctor",
      "outputs": [],
      "stateMutability": "nonpayable",
      "type": "function"
    },
    {
      "inputs": [
        {
          "internalType": "string",
          "name": "_ic",
          "type": "string"
        },
        {
          "internalType": "string",
          "name": "_name",
          "type": "string"
        },
        {
          "internalType": "string",
          "name": "_phone",
          "type": "string"
        },
        {
          "internalType": "string",
          "name": "_gender",
          "type": "string"
        },
        {
          "internalType": "string",
          "name": "_dob",
          "type": "string"
        },
        {
          "internalType": "string",
          "name": "_qualification",
          "type": "string"
        },
        {
          "internalType": "string",
          "name": "_major",
          "type": "string"
        }
      ],
      "name": "editDoctor",
      "outputs": [],
      "stateMutability": "nonpayable",
      "type": "function"
    },
    {
      "inputs": [
        {
          "internalType": "address",
          "name": "_addr",
          "type": "address"
        },
        {
          "internalType": "string",
          "name": "_date",
          "type": "string"
        },
        {
          "internalType": "string",
          "name": "_time",
          "type": "string"
        },
        {
          "internalType": "string",
          "name": "_diagnosis",
          "type": "string"
        },
        {
          "internalType": "string",
          "name": "_description",
          "type": "string"
        },
        {
          "internalType": "string",
          "name": "_status",
          "type": "string"
        }
      ],
      "name": "setAppointment",
      "outputs": [],
      "stateMutability": "nonpayable",
      "type": "function"
    },
    {
      "inputs": [
        {
          "internalType": "address",
          "name": "_addr",
          "type": "address"
        },
        {
          "internalType": "string",
          "name": "_date",
          "type": "string"
        },
        {
          "internalType": "string",
          "name": "_time",
          "type": "string"
        },
        {
          "internalType": "string",
          "name": "_diagnosis",
          "type": "string"
        },
        {
          "internalType": "string",
          "name": "_description",
          "type": "string"
        },
        {
          "internalType": "string",
          "name": "_status",
          "type": "string"
        }
      ],
      "name": "updateAppointment",
      "outputs": [],
      "stateMutability": "nonpayable",
      "type": "function"
    },
    {
      "inputs": [
        {
          "internalType": "address",
          "name": "_address",
          "type": "address"
        }
      ],
      "name": "givePermission",
      "outputs": [
        {
          "internalType": "bool",
          "name": "success",
          "type": "bool"
        }
      ],
      "stateMutability": "nonpayable",
      "type": "function"
    },
    {
      "inputs": [
        {
          "internalType": "address",
          "name": "_address",
          "type": "address"
        }
      ],
      "name": "RevokePermission",
      "outputs": [
        {
          "internalType": "bool",
          "name": "success",
          "type": "bool"
        }
      ],
      "stateMutability": "nonpayable",
      "type": "function"
    },
    {
      "inputs": [],
      "name": "getPatients",
      "outputs": [
        {
          "internalType": "address[]",
          "name": "",
          "type": "address[]"
        }
      ],
      "stateMutability": "view",
      "type": "function",
      "constant": true
    },
    {
      "inputs": [],
      "name": "getDoctors",
      "outputs": [
        {
          "internalType": "address[]",
          "name": "",
          "type": "address[]"
        }
      ],
      "stateMutability": "view",
      "type": "function",
      "constant": true
    },
    {
      "inputs": [],
      "name": "getAppointments",
      "outputs": [
        {
          "internalType": "address[]",
          "name": "",
          "type": "address[]"
        }
      ],
      "stateMutability": "view",
      "type": "function",
      "constant": true
    },
    {
      "inputs": [
        {
          "internalType": "address",
          "name": "_address",
          "type": "address"
        }
      ],
      "name": "searchPatientDemographic",
      "outputs": [
        {
          "internalType": "string",
          "name": "",
          "type": "string"
        },
        {
          "internalType": "string",
          "name": "",
          "type": "string"
        },
        {
          "internalType": "string",
          "name": "",
          "type": "string"
        },
        {
          "internalType": "string",
          "name": "",
          "type": "string"
        },
        {
          "internalType": "string",
          "name": "",
          "type": "string"
        },
        {
          "internalType": "string",
          "name": "",
          "type": "string"
        },
        {
          "internalType": "string",
          "name": "",
          "type": "string"
        }
      ],
      "stateMutability": "view",
      "type": "function",
      "constant": true
    },
    {
      "inputs": [
        {
          "internalType": "address",
          "name": "_address",
          "type": "address"
        }
      ],
      "name": "searchPatientMedical",
      "outputs": [
        {
          "internalType": "string",
          "name": "",
          "type": "string"
        },
        {
          "internalType": "string",
          "name": "",
          "type": "string"
        },
        {
          "internalType": "string",
          "name": "",
          "type": "string"
        },
        {
          "internalType": "string",
          "name": "",
          "type": "string"
        },
        {
          "internalType": "string",
          "name": "",
          "type": "string"
        }
      ],
      "stateMutability": "view",
      "type": "function",
      "constant": true
    },
    {
      "inputs": [
        {
          "internalType": "address",
          "name": "_address",
          "type": "address"
        }
      ],
      "name": "searchDoctor",
      "outputs": [
        {
          "internalType": "string",
          "name": "",
          "type": "string"
        },
        {
          "internalType": "string",
          "name": "",
          "type": "string"
        },
        {
          "internalType": "string",
          "name": "",
          "type": "string"
        },
        {
          "internalType": "string",
          "name": "",
          "type": "string"
        },
        {
          "internalType": "string",
          "name": "",
          "type": "string"
        },
        {
          "internalType": "string",
          "name": "",
          "type": "string"
        },
        {
          "internalType": "string",
          "name": "",
          "type": "string"
        }
      ],
      "stateMutability": "view",
      "type": "function",
      "constant": true
    },
    {
      "inputs": [
        {
          "internalType": "address",
          "name": "_address",
          "type": "address"
        }
      ],
      "name": "searchAppointment",
      "outputs": [
        {
          "internalType": "address",
          "name": "",
          "type": "address"
        },
        {
          "internalType": "string",
          "name": "",
          "type": "string"
        },
        {
          "internalType": "string",
          "name": "",
          "type": "string"
        },
        {
          "internalType": "string",
          "name": "",
          "type": "string"
        },
        {
          "internalType": "string",
          "name": "",
          "type": "string"
        },
        {
          "internalType": "string",
          "name": "",
          "type": "string"
        },
        {
          "internalType": "string",
          "name": "",
          "type": "string"
        }
      ],
      "stateMutability": "view",
      "type": "function",
      "constant": true
    },
    {
      "inputs": [
        {
          "internalType": "address",
          "name": "_address",
          "type": "address"
        }
      ],
      "name": "searchRecordDate",
      "outputs": [
        {
          "internalType": "uint256",
          "name": "",
          "type": "uint256"
        }
      ],
      "stateMutability": "view",
      "type": "function",
      "constant": true
    },
    {
      "inputs": [
        {
          "internalType": "address",
          "name": "_address",
          "type": "address"
        }
      ],
      "name": "searchDoctorDate",
      "outputs": [
        {
          "internalType": "uint256",
          "name": "",
          "type": "uint256"
        }
      ],
      "stateMutability": "view",
      "type": "function",
      "constant": true
    },
    {
      "inputs": [
        {
          "internalType": "address",
          "name": "_address",
          "type": "address"
        }
      ],
      "name": "searchAppointmentDate",
      "outputs": [
        {
          "internalType": "uint256",
          "name": "",
          "type": "uint256"
        }
      ],
      "stateMutability": "view",
      "type": "function",
      "constant": true
    },
    {
      "inputs": [],
      "name": "getPatientCount",
      "outputs": [
        {
          "internalType": "uint32",
          "name": "",
          "type": "uint32"
        }
      ],
      "stateMutability": "view",
      "type": "function",
      "constant": true
    },
    {
      "inputs": [],
      "name": "getDoctorCount",
      "outputs": [
        {
          "internalType": "uint32",
          "name": "",
          "type": "uint32"
        }
      ],
      "stateMutability": "view",
      "type": "function",
      "constant": true
    },
    {
      "inputs": [],
      "name": "getAppointmentCount",
      "outputs": [
        {
          "internalType": "uint32",
          "name": "",
          "type": "uint32"
        }
      ],
      "stateMutability": "view",
      "type": "function",
      "constant": true
    },
    {
      "inputs": [],
      "name": "getPermissionGrantedCount",
      "outputs": [
        {
          "internalType": "uint32",
          "name": "",
          "type": "uint32"
        }
      ],
      "stateMutability": "view",
      "type": "function",
      "constant": true
    },
    {
      "inputs": [
        {
          "internalType": "address",
          "name": "_address",
          "type": "address"
        }
      ],
      "name": "getAppointmentPerPatient",
      "outputs": [
        {
          "internalType": "uint32",
          "name": "",
          "type": "uint32"
        }
      ],
      "stateMutability": "view",
      "type": "function",
      "constant": true
    }
  ],
  "bytecode": "0x6080604052600b80546001600160801b031916905534801561002057600080fd5b50600080546001600160a01b031916331790556141d6806100426000396000f3fe608060405234801561001057600080fd5b50600436106101e55760003560e01c80638db2fc951161010f578063babb1d41116100a2578063caee6c8511610071578063caee6c8514610490578063e6fce0d2146104a3578063e93a15b9146104b6578063eebc3fb2146104e557600080fd5b8063babb1d4114610445578063bd6f972b14610458578063c0cb24ba1461046b578063c190665b1461048257600080fd5b8063a0303c41116100de578063a0303c4114610407578063a5aca8bc14610417578063a6d1ab4e1461042a578063b13d5d941461043d57600080fd5b80638db2fc95146103b35780639080af67146103c657806392041982146103d957806396b80d08146103ff57600080fd5b80633d391f701161018757806378522bc41161015657806378522bc41461035f57806379111c1c146103775780638b945c6d1461038d5780638da5cb5b146103a057600080fd5b80633d391f70146103035780634c14b38d14610316578063625961fc1461033757806374e011421461034a57600080fd5b806324c24b2b116101c357806324c24b2b1461027e57806329e4afbb146102a45780632a825ba0146102b95780633bc98280146102dd57600080fd5b806302516abd146101ea578063127ca4b41461023e57806312ad1c3714610269575b600080fd5b6102296101f836600461397c565b3360009081526007602090815260408083206001600160a01b0394909416835292905220805460ff19169055600190565b60405190151581526020015b60405180910390f35b61025161024c36600461399e565b6104fc565b6040516001600160a01b039091168152602001610235565b610271610526565b60405161023591906139b7565b600b54600160601b900463ffffffff165b60405163ffffffff9091168152602001610235565b600b54600160401b900463ffffffff1661028f565b6102cc6102c736600461397c565b610588565b604051610235959493929190613a4a565b6102f06102eb36600461397c565b610d0b565b6040516102359796959493929190613ab7565b61022961031136600461397c565b6114d4565b61032961032436600461397c565b611548565b604051908152602001610235565b61032961034536600461397c565b61187d565b61035d610358366004613bf1565b611ccb565b005b600b5461028f90640100000000900463ffffffff1681565b600b54640100000000900463ffffffff1661028f565b61035d61039b366004613cd2565b611e59565b600054610251906001600160a01b031681565b61035d6103c1366004613ded565b611fef565b61035d6103d4366004613bf1565b61212d565b6103ec6103e736600461397c565b612241565b6040516102359796959493929190613faa565b610271612a09565b600b5461028f9063ffffffff1681565b61035d610425366004613cd2565b612a69565b61035d610438366004613ded565b612b29565b610271612d0c565b61025161045336600461399e565b612d6c565b61032961046636600461397c565b612d7c565b600b5461028f90600160601b900463ffffffff1681565b600b5463ffffffff1661028f565b6102f061049e36600461397c565b6134a4565b6102516104b136600461399e565b613950565b61028f6104c436600461397c565b6001600160a01b03166000908152600a602052604090205463ffffffff1690565b600b5461028f90600160401b900463ffffffff1681565b6002818154811061050c57600080fd5b6000918252602090912001546001600160a01b0316905081565b6060600180548060200260200160405190810160405280929190818152602001828054801561057e57602002820191906000526020600020905b81546001600160a01b03168152600190910190602001808311610560575b5050505050905090565b6001600160a01b0381166000908152600760209081526040808320338452909152902054606090819081908190819060ff166105c357600080fd5b6001600160a01b03861660009081526004602052604080822081516101c081019092528054829082906105f590613fe0565b80601f016020809104026020016040519081016040528092919081815260200182805461062190613fe0565b801561066e5780601f106106435761010080835404028352916020019161066e565b820191906000526020600020905b81548152906001019060200180831161065157829003601f168201915b5050505050815260200160018201805461068790613fe0565b80601f01602080910402602001604051908101604052809291908181526020018280546106b390613fe0565b80156107005780601f106106d557610100808354040283529160200191610700565b820191906000526020600020905b8154815290600101906020018083116106e357829003601f168201915b5050505050815260200160028201805461071990613fe0565b80601f016020809104026020016040519081016040528092919081815260200182805461074590613fe0565b80156107925780601f1061076757610100808354040283529160200191610792565b820191906000526020600020905b81548152906001019060200180831161077557829003601f168201915b505050505081526020016003820180546107ab90613fe0565b80601f01602080910402602001604051908101604052809291908181526020018280546107d790613fe0565b80156108245780601f106107f957610100808354040283529160200191610824565b820191906000526020600020905b81548152906001019060200180831161080757829003601f168201915b5050505050815260200160048201805461083d90613fe0565b80601f016020809104026020016040519081016040528092919081815260200182805461086990613fe0565b80156108b65780601f1061088b576101008083540402835291602001916108b6565b820191906000526020600020905b81548152906001019060200180831161089957829003601f168201915b505050505081526020016005820180546108cf90613fe0565b80601f01602080910402602001604051908101604052809291908181526020018280546108fb90613fe0565b80156109485780601f1061091d57610100808354040283529160200191610948565b820191906000526020600020905b81548152906001019060200180831161092b57829003601f168201915b5050505050815260200160068201805461096190613fe0565b80601f016020809104026020016040519081016040528092919081815260200182805461098d90613fe0565b80156109da5780601f106109af576101008083540402835291602001916109da565b820191906000526020600020905b8154815290600101906020018083116109bd57829003601f168201915b505050505081526020016007820180546109f390613fe0565b80601f0160208091040260200160405190810160405280929190818152602001828054610a1f90613fe0565b8015610a6c5780601f10610a4157610100808354040283529160200191610a6c565b820191906000526020600020905b815481529060010190602001808311610a4f57829003601f168201915b50505050508152602001600882018054610a8590613fe0565b80601f0160208091040260200160405190810160405280929190818152602001828054610ab190613fe0565b8015610afe5780601f10610ad357610100808354040283529160200191610afe565b820191906000526020600020905b815481529060010190602001808311610ae157829003601f168201915b50505050508152602001600982018054610b1790613fe0565b80601f0160208091040260200160405190810160405280929190818152602001828054610b4390613fe0565b8015610b905780601f10610b6557610100808354040283529160200191610b90565b820191906000526020600020905b815481529060010190602001808311610b7357829003601f168201915b50505050508152602001600a82018054610ba990613fe0565b80601f0160208091040260200160405190810160405280929190818152602001828054610bd590613fe0565b8015610c225780601f10610bf757610100808354040283529160200191610c22565b820191906000526020600020905b815481529060010190602001808311610c0557829003601f168201915b50505050508152602001600b82018054610c3b90613fe0565b80601f0160208091040260200160405190810160405280929190818152602001828054610c6790613fe0565b8015610cb45780601f10610c8957610100808354040283529160200191610cb4565b820191906000526020600020905b815481529060010190602001808311610c9757829003601f168201915b5050509183525050600c8201546001600160a01b03166020820152600d9091015460409091015260e081015161010082015161012083015161014084015161016090940151929b919a509850919650945092505050565b6001600160a01b038116600090815260076020908152604080832033845290915290205460609081908190819081908190819060ff16610d825760405162461bcd60e51b815260206004820152600d60248201526c1058d8d95cdcc819195b9a5959609a1b60448201526064015b60405180910390fd5b6001600160a01b03881660009081526004602052604080822081516101c08101909252805482908290610db490613fe0565b80601f0160208091040260200160405190810160405280929190818152602001828054610de090613fe0565b8015610e2d5780601f10610e0257610100808354040283529160200191610e2d565b820191906000526020600020905b815481529060010190602001808311610e1057829003601f168201915b50505050508152602001600182018054610e4690613fe0565b80601f0160208091040260200160405190810160405280929190818152602001828054610e7290613fe0565b8015610ebf5780601f10610e9457610100808354040283529160200191610ebf565b820191906000526020600020905b815481529060010190602001808311610ea257829003601f168201915b50505050508152602001600282018054610ed890613fe0565b80601f0160208091040260200160405190810160405280929190818152602001828054610f0490613fe0565b8015610f515780601f10610f2657610100808354040283529160200191610f51565b820191906000526020600020905b815481529060010190602001808311610f3457829003601f168201915b50505050508152602001600382018054610f6a90613fe0565b80601f0160208091040260200160405190810160405280929190818152602001828054610f9690613fe0565b8015610fe35780601f10610fb857610100808354040283529160200191610fe3565b820191906000526020600020905b815481529060010190602001808311610fc657829003601f168201915b50505050508152602001600482018054610ffc90613fe0565b80601f016020809104026020016040519081016040528092919081815260200182805461102890613fe0565b80156110755780601f1061104a57610100808354040283529160200191611075565b820191906000526020600020905b81548152906001019060200180831161105857829003601f168201915b5050505050815260200160058201805461108e90613fe0565b80601f01602080910402602001604051908101604052809291908181526020018280546110ba90613fe0565b80156111075780601f106110dc57610100808354040283529160200191611107565b820191906000526020600020905b8154815290600101906020018083116110ea57829003601f168201915b5050505050815260200160068201805461112090613fe0565b80601f016020809104026020016040519081016040528092919081815260200182805461114c90613fe0565b80156111995780601f1061116e57610100808354040283529160200191611199565b820191906000526020600020905b81548152906001019060200180831161117c57829003601f168201915b505050505081526020016007820180546111b290613fe0565b80601f01602080910402602001604051908101604052809291908181526020018280546111de90613fe0565b801561122b5780601f106112005761010080835404028352916020019161122b565b820191906000526020600020905b81548152906001019060200180831161120e57829003601f168201915b5050505050815260200160088201805461124490613fe0565b80601f016020809104026020016040519081016040528092919081815260200182805461127090613fe0565b80156112bd5780601f10611292576101008083540402835291602001916112bd565b820191906000526020600020905b8154815290600101906020018083116112a057829003601f168201915b505050505081526020016009820180546112d690613fe0565b80601f016020809104026020016040519081016040528092919081815260200182805461130290613fe0565b801561134f5780601f106113245761010080835404028352916020019161134f565b820191906000526020600020905b81548152906001019060200180831161133257829003601f168201915b50505050508152602001600a8201805461136890613fe0565b80601f016020809104026020016040519081016040528092919081815260200182805461139490613fe0565b80156113e15780601f106113b6576101008083540402835291602001916113e1565b820191906000526020600020905b8154815290600101906020018083116113c457829003601f168201915b50505050508152602001600b820180546113fa90613fe0565b80601f016020809104026020016040519081016040528092919081815260200182805461142690613fe0565b80156114735780601f1061144857610100808354040283529160200191611473565b820191906000526020600020905b81548152906001019060200180831161145657829003601f168201915b5050509183525050600c8201546001600160a01b0316602080830191909152600d90920154604091820152825191830151908301516060840151608085015160a086015160c090960151949f939e50919c509a509850919650945092505050565b3360009081526007602090815260408083206001600160a01b03851684529091528120805460ff19166001179055600b805463ffffffff600160601b9091041690600c6115208361401a565b91906101000a81548163ffffffff021916908363ffffffff1602179055505060019050919050565b6001600160a01b038082166000908152600660209081526040808320815161010081018352815486168152600182015490951692850192909252600282018054939485949093928401919061159c90613fe0565b80601f01602080910402602001604051908101604052809291908181526020018280546115c890613fe0565b80156116155780601f106115ea57610100808354040283529160200191611615565b820191906000526020600020905b8154815290600101906020018083116115f857829003601f168201915b5050505050815260200160038201805461162e90613fe0565b80601f016020809104026020016040519081016040528092919081815260200182805461165a90613fe0565b80156116a75780601f1061167c576101008083540402835291602001916116a7565b820191906000526020600020905b81548152906001019060200180831161168a57829003601f168201915b505050505081526020016004820180546116c090613fe0565b80601f01602080910402602001604051908101604052809291908181526020018280546116ec90613fe0565b80156117395780601f1061170e57610100808354040283529160200191611739565b820191906000526020600020905b81548152906001019060200180831161171c57829003601f168201915b5050505050815260200160058201805461175290613fe0565b80601f016020809104026020016040519081016040528092919081815260200182805461177e90613fe0565b80156117cb5780601f106117a0576101008083540402835291602001916117cb565b820191906000526020600020905b8154815290600101906020018083116117ae57829003601f168201915b505050505081526020016006820180546117e490613fe0565b80601f016020809104026020016040519081016040528092919081815260200182805461181090613fe0565b801561185d5780601f106118325761010080835404028352916020019161185d565b820191906000526020600020905b81548152906001019060200180831161184057829003601f168201915b50505091835250506007919091015460209091015260e001519392505050565b6001600160a01b03811660009081526005602052604080822081516101208101909252805483929190829082906118b390613fe0565b80601f01602080910402602001604051908101604052809291908181526020018280546118df90613fe0565b801561192c5780601f106119015761010080835404028352916020019161192c565b820191906000526020600020905b81548152906001019060200180831161190f57829003601f168201915b5050505050815260200160018201805461194590613fe0565b80601f016020809104026020016040519081016040528092919081815260200182805461197190613fe0565b80156119be5780601f10611993576101008083540402835291602001916119be565b820191906000526020600020905b8154815290600101906020018083116119a157829003601f168201915b505050505081526020016002820180546119d790613fe0565b80601f0160208091040260200160405190810160405280929190818152602001828054611a0390613fe0565b8015611a505780601f10611a2557610100808354040283529160200191611a50565b820191906000526020600020905b815481529060010190602001808311611a3357829003601f168201915b50505050508152602001600382018054611a6990613fe0565b80601f0160208091040260200160405190810160405280929190818152602001828054611a9590613fe0565b8015611ae25780601f10611ab757610100808354040283529160200191611ae2565b820191906000526020600020905b815481529060010190602001808311611ac557829003601f168201915b50505050508152602001600482018054611afb90613fe0565b80601f0160208091040260200160405190810160405280929190818152602001828054611b2790613fe0565b8015611b745780601f10611b4957610100808354040283529160200191611b74565b820191906000526020600020905b815481529060010190602001808311611b5757829003601f168201915b50505050508152602001600582018054611b8d90613fe0565b80601f0160208091040260200160405190810160405280929190818152602001828054611bb990613fe0565b8015611c065780601f10611bdb57610100808354040283529160200191611c06565b820191906000526020600020905b815481529060010190602001808311611be957829003601f168201915b50505050508152602001600682018054611c1f90613fe0565b80601f0160208091040260200160405190810160405280929190818152602001828054611c4b90613fe0565b8015611c985780601f10611c6d57610100808354040283529160200191611c98565b820191906000526020600020905b815481529060010190602001808311611c7b57829003601f168201915b505050918352505060078201546001600160a01b0316602082015260089091015460409091015261010001519392505050565b3360009081526009602052604090205460ff16611cfa5760405162461bcd60e51b8152600401610d799061404b565b6001600160a01b038616600081815260066020526040902080546001600160a01b03199081163317825560018201805490911690921790915560028101611d4187826140e0565b5060038101611d5086826140e0565b5060058101611d5f85826140e0565b5060048101611d6e84826140e0565b5060068101611d7d83826140e0565b50426007820155600380546001810182556000919091527fc2575a0e9e593c00f959f8c92f12db2869c3395a3b0502d05e2516446f71f85b0180546001600160a01b0319166001600160a01b038916179055600b8054600160401b900463ffffffff16906008611dec8361401a565b82546101009290920a63ffffffff8181021990931691831602179091556001600160a01b0389166000908152600a6020526040812080549092169250611e318361401a565b91906101000a81548163ffffffff021916908363ffffffff1602179055505050505050505050565b3360009081526009602052604090205460ff1615611ec35760405162461bcd60e51b815260206004820152602160248201527f2054686973206164647265737320697320616c7265616479206120646f63746f6044820152603960f91b6064820152608401610d79565b33600090815260056020526040902080611edd89826140e0565b5060018101611eec88826140e0565b5060028101611efb87826140e0565b5060038101611f0a86826140e0565b5060048101611f1985826140e0565b5060058101611f2884826140e0565b5060068101611f3783826140e0565b50600781018054336001600160a01b031991821681179092554260088401556002805460018181019092557f405787fa12a823e0f2b7631cc41b3ba8828b3321ca811111fa75cd3aa3bb5ace0180549092168317909155600091825260096020526040909120805460ff19169091179055600b8054640100000000900463ffffffff16906004611fc68361401a565b91906101000a81548163ffffffff021916908363ffffffff160217905550505050505050505050565b3360009081526008602052604090205460ff1661205c5760405162461bcd60e51b815260206004820152602560248201527f54686973206164647265737320646f6573206e6f742068617665207065726d6960448201526439b9b4b7b760d91b6064820152608401610d79565b336000908152600460205260409020806120768d826140e0565b50600181016120858c826140e0565b50600281016120948b826140e0565b50600381016120a38a826140e0565b50600481016120b289826140e0565b50600581016120c188826140e0565b50600681016120d087826140e0565b50600781016120df86826140e0565b50600881016120ee85826140e0565b50600a81016120fd84826140e0565b50600b810161210c83826140e0565b50600c0180546001600160a01b031916331790555050505050505050505050565b3360009081526009602052604090205460ff166121b4576040805162461bcd60e51b81526020600482015260248101919091527f54686973206164647265737320646f6573206e6f742068617665207065726d6960448201527f7373696f6e20746f20757064617465206e6577206170706f696e746d656e74736064820152608401610d79565b6001600160a01b038616600081815260066020526040902080546001600160a01b031990811633178255600182018054909116909217909155600281016121fb87826140e0565b506003810161220a86826140e0565b506005810161221985826140e0565b506004810161222884826140e0565b506006810161223783826140e0565b5050505050505050565b6001600160a01b0380821660009081526006602090815260408083208151610100810183528154861681526001820154909516928501929092526002820180549394606094859485948594859485948b949193919291840191906122a490613fe0565b80601f01602080910402602001604051908101604052809291908181526020018280546122d090613fe0565b801561231d5780601f106122f25761010080835404028352916020019161231d565b820191906000526020600020905b81548152906001019060200180831161230057829003601f168201915b5050505050815260200160038201805461233690613fe0565b80601f016020809104026020016040519081016040528092919081815260200182805461236290613fe0565b80156123af5780601f10612384576101008083540402835291602001916123af565b820191906000526020600020905b81548152906001019060200180831161239257829003601f168201915b505050505081526020016004820180546123c890613fe0565b80601f01602080910402602001604051908101604052809291908181526020018280546123f490613fe0565b80156124415780601f1061241657610100808354040283529160200191612441565b820191906000526020600020905b81548152906001019060200180831161242457829003601f168201915b5050505050815260200160058201805461245a90613fe0565b80601f016020809104026020016040519081016040528092919081815260200182805461248690613fe0565b80156124d35780601f106124a8576101008083540402835291602001916124d3565b820191906000526020600020905b8154815290600101906020018083116124b657829003601f168201915b505050505081526020016006820180546124ec90613fe0565b80601f016020809104026020016040519081016040528092919081815260200182805461251890613fe0565b80156125655780601f1061253a57610100808354040283529160200191612565565b820191906000526020600020905b81548152906001019060200180831161254857829003601f168201915b50505050508152602001600782015481525050905060006005600083600001516001600160a01b03166001600160a01b03168152602001908152602001600020604051806101200160405290816000820180546125c190613fe0565b80601f01602080910402602001604051908101604052809291908181526020018280546125ed90613fe0565b801561263a5780601f1061260f5761010080835404028352916020019161263a565b820191906000526020600020905b81548152906001019060200180831161261d57829003601f168201915b5050505050815260200160018201805461265390613fe0565b80601f016020809104026020016040519081016040528092919081815260200182805461267f90613fe0565b80156126cc5780601f106126a1576101008083540402835291602001916126cc565b820191906000526020600020905b8154815290600101906020018083116126af57829003601f168201915b505050505081526020016002820180546126e590613fe0565b80601f016020809104026020016040519081016040528092919081815260200182805461271190613fe0565b801561275e5780601f106127335761010080835404028352916020019161275e565b820191906000526020600020905b81548152906001019060200180831161274157829003601f168201915b5050505050815260200160038201805461277790613fe0565b80601f01602080910402602001604051908101604052809291908181526020018280546127a390613fe0565b80156127f05780601f106127c5576101008083540402835291602001916127f0565b820191906000526020600020905b8154815290600101906020018083116127d357829003601f168201915b5050505050815260200160048201805461280990613fe0565b80601f016020809104026020016040519081016040528092919081815260200182805461283590613fe0565b80156128825780601f1061285757610100808354040283529160200191612882565b820191906000526020600020905b81548152906001019060200180831161286557829003601f168201915b5050505050815260200160058201805461289b90613fe0565b80601f01602080910402602001604051908101604052809291908181526020018280546128c790613fe0565b80156129145780601f106128e957610100808354040283529160200191612914565b820191906000526020600020905b8154815290600101906020018083116128f757829003601f168201915b5050505050815260200160068201805461292d90613fe0565b80601f016020809104026020016040519081016040528092919081815260200182805461295990613fe0565b80156129a65780601f1061297b576101008083540402835291602001916129a6565b820191906000526020600020905b81548152906001019060200180831161298957829003601f168201915b505050918352505060078201546001600160a01b03166020808301919091526008909201546040918201528451929091015190840151606085015160a0860151608087015160c090970151949f939e50919c509a50985092965094509092505050565b6060600380548060200260200160405190810160405280929190818152602001828054801561057e576020028201919060005260206000209081546001600160a01b03168152600190910190602001808311610560575050505050905090565b3360009081526009602052604090205460ff16612a985760405162461bcd60e51b8152600401610d799061404b565b33600090815260056020526040902080612ab289826140e0565b5060018101612ac188826140e0565b5060028101612ad087826140e0565b5060038101612adf86826140e0565b5060048101612aee85826140e0565b5060058101612afd84826140e0565b5060068101612b0c83826140e0565b5060070180546001600160a01b0319163317905550505050505050565b3360009081526008602052604090205460ff1615612b935760405162461bcd60e51b815260206004820152602160248201527f54686973206164647265737320697320616c726561647920612070617469656e6044820152601d60fa1b6064820152608401610d79565b33600090815260046020526040902080612bad8d826140e0565b5060018101612bbc8c826140e0565b5060028101612bcb8b826140e0565b5060038101612bda8a826140e0565b5060048101612be989826140e0565b5060058101612bf888826140e0565b5060068101612c0787826140e0565b5060078101612c1686826140e0565b5060088101612c2585826140e0565b50600a8101612c3484826140e0565b50600b8101612c4383826140e0565b50600c81018054336001600160a01b0319918216811790925542600d8401556001805480820182557fb10e2d527612073b26eecdfd717e6a320cf44b4afac2b0732d9fcbe2b7fa0cf601805490921683179091556000918252600860209081526040808420805460ff19908116851790915560078352818520909252832080549091169091179055600b805463ffffffff1691612cdf8361401a565b91906101000a81548163ffffffff021916908363ffffffff16021790555050505050505050505050505050565b6060600280548060200260200160405190810160405280929190818152602001828054801561057e576020028201919060005260206000209081546001600160a01b03168152600190910190602001808311610560575050505050905090565b6001818154811061050c57600080fd5b6001600160a01b03811660009081526004602052604080822081516101c0810190925280548392919082908290612db290613fe0565b80601f0160208091040260200160405190810160405280929190818152602001828054612dde90613fe0565b8015612e2b5780601f10612e0057610100808354040283529160200191612e2b565b820191906000526020600020905b815481529060010190602001808311612e0e57829003601f168201915b50505050508152602001600182018054612e4490613fe0565b80601f0160208091040260200160405190810160405280929190818152602001828054612e7090613fe0565b8015612ebd5780601f10612e9257610100808354040283529160200191612ebd565b820191906000526020600020905b815481529060010190602001808311612ea057829003601f168201915b50505050508152602001600282018054612ed690613fe0565b80601f0160208091040260200160405190810160405280929190818152602001828054612f0290613fe0565b8015612f4f5780601f10612f2457610100808354040283529160200191612f4f565b820191906000526020600020905b815481529060010190602001808311612f3257829003601f168201915b50505050508152602001600382018054612f6890613fe0565b80601f0160208091040260200160405190810160405280929190818152602001828054612f9490613fe0565b8015612fe15780601f10612fb657610100808354040283529160200191612fe1565b820191906000526020600020905b815481529060010190602001808311612fc457829003601f168201915b50505050508152602001600482018054612ffa90613fe0565b80601f016020809104026020016040519081016040528092919081815260200182805461302690613fe0565b80156130735780601f1061304857610100808354040283529160200191613073565b820191906000526020600020905b81548152906001019060200180831161305657829003601f168201915b5050505050815260200160058201805461308c90613fe0565b80601f01602080910402602001604051908101604052809291908181526020018280546130b890613fe0565b80156131055780601f106130da57610100808354040283529160200191613105565b820191906000526020600020905b8154815290600101906020018083116130e857829003601f168201915b5050505050815260200160068201805461311e90613fe0565b80601f016020809104026020016040519081016040528092919081815260200182805461314a90613fe0565b80156131975780601f1061316c57610100808354040283529160200191613197565b820191906000526020600020905b81548152906001019060200180831161317a57829003601f168201915b505050505081526020016007820180546131b090613fe0565b80601f01602080910402602001604051908101604052809291908181526020018280546131dc90613fe0565b80156132295780601f106131fe57610100808354040283529160200191613229565b820191906000526020600020905b81548152906001019060200180831161320c57829003601f168201915b5050505050815260200160088201805461324290613fe0565b80601f016020809104026020016040519081016040528092919081815260200182805461326e90613fe0565b80156132bb5780601f10613290576101008083540402835291602001916132bb565b820191906000526020600020905b81548152906001019060200180831161329e57829003601f168201915b505050505081526020016009820180546132d490613fe0565b80601f016020809104026020016040519081016040528092919081815260200182805461330090613fe0565b801561334d5780601f106133225761010080835404028352916020019161334d565b820191906000526020600020905b81548152906001019060200180831161333057829003601f168201915b50505050508152602001600a8201805461336690613fe0565b80601f016020809104026020016040519081016040528092919081815260200182805461339290613fe0565b80156133df5780601f106133b4576101008083540402835291602001916133df565b820191906000526020600020905b8154815290600101906020018083116133c257829003601f168201915b50505050508152602001600b820180546133f890613fe0565b80601f016020809104026020016040519081016040528092919081815260200182805461342490613fe0565b80156134715780601f1061344657610100808354040283529160200191613471565b820191906000526020600020905b81548152906001019060200180831161345457829003601f168201915b5050509183525050600c8201546001600160a01b03166020820152600d909101546040909101526101a001519392505050565b6001600160a01b03811660009081526009602052604090205460609081908190819081908190819060ff166134d857600080fd5b6001600160a01b0388166000908152600560205260408082208151610120810190925280548290829061350a90613fe0565b80601f016020809104026020016040519081016040528092919081815260200182805461353690613fe0565b80156135835780601f1061355857610100808354040283529160200191613583565b820191906000526020600020905b81548152906001019060200180831161356657829003601f168201915b5050505050815260200160018201805461359c90613fe0565b80601f01602080910402602001604051908101604052809291908181526020018280546135c890613fe0565b80156136155780601f106135ea57610100808354040283529160200191613615565b820191906000526020600020905b8154815290600101906020018083116135f857829003601f168201915b5050505050815260200160028201805461362e90613fe0565b80601f016020809104026020016040519081016040528092919081815260200182805461365a90613fe0565b80156136a75780601f1061367c576101008083540402835291602001916136a7565b820191906000526020600020905b81548152906001019060200180831161368a57829003601f168201915b505050505081526020016003820180546136c090613fe0565b80601f01602080910402602001604051908101604052809291908181526020018280546136ec90613fe0565b80156137395780601f1061370e57610100808354040283529160200191613739565b820191906000526020600020905b81548152906001019060200180831161371c57829003601f168201915b5050505050815260200160048201805461375290613fe0565b80601f016020809104026020016040519081016040528092919081815260200182805461377e90613fe0565b80156137cb5780601f106137a0576101008083540402835291602001916137cb565b820191906000526020600020905b8154815290600101906020018083116137ae57829003601f168201915b505050505081526020016005820180546137e490613fe0565b80601f016020809104026020016040519081016040528092919081815260200182805461381090613fe0565b801561385d5780601f106138325761010080835404028352916020019161385d565b820191906000526020600020905b81548152906001019060200180831161384057829003601f168201915b5050505050815260200160068201805461387690613fe0565b80601f01602080910402602001604051908101604052809291908181526020018280546138a290613fe0565b80156138ef5780601f106138c4576101008083540402835291602001916138ef565b820191906000526020600020905b8154815290600101906020018083116138d257829003601f168201915b505050918352505060078201546001600160a01b0316602080830191909152600890920154604091820152825191830151908301516060840151608085015160a086015160c090960151949f939e50919c509a509850919650945092505050565b6003818154811061050c57600080fd5b80356001600160a01b038116811461397757600080fd5b919050565b60006020828403121561398e57600080fd5b61399782613960565b9392505050565b6000602082840312156139b057600080fd5b5035919050565b6020808252825182820181905260009190848201906040850190845b818110156139f85783516001600160a01b0316835292840192918401916001016139d3565b50909695505050505050565b6000815180845260005b81811015613a2a57602081850181015186830182015201613a0e565b506000602082860101526020601f19601f83011685010191505092915050565b60a081526000613a5d60a0830188613a04565b8281036020840152613a6f8188613a04565b90508281036040840152613a838187613a04565b90508281036060840152613a978186613a04565b90508281036080840152613aab8185613a04565b98975050505050505050565b60e081526000613aca60e083018a613a04565b8281036020840152613adc818a613a04565b90508281036040840152613af08189613a04565b90508281036060840152613b048188613a04565b90508281036080840152613b188187613a04565b905082810360a0840152613b2c8186613a04565b905082810360c0840152613b408185613a04565b9a9950505050505050505050565b634e487b7160e01b600052604160045260246000fd5b600082601f830112613b7557600080fd5b813567ffffffffffffffff80821115613b9057613b90613b4e565b604051601f8301601f19908116603f01168101908282118183101715613bb857613bb8613b4e565b81604052838152866020858801011115613bd157600080fd5b836020870160208301376000602085830101528094505050505092915050565b60008060008060008060c08789031215613c0a57600080fd5b613c1387613960565b9550602087013567ffffffffffffffff80821115613c3057600080fd5b613c3c8a838b01613b64565b96506040890135915080821115613c5257600080fd5b613c5e8a838b01613b64565b95506060890135915080821115613c7457600080fd5b613c808a838b01613b64565b94506080890135915080821115613c9657600080fd5b613ca28a838b01613b64565b935060a0890135915080821115613cb857600080fd5b50613cc589828a01613b64565b9150509295509295509295565b600080600080600080600060e0888a031215613ced57600080fd5b873567ffffffffffffffff80821115613d0557600080fd5b613d118b838c01613b64565b985060208a0135915080821115613d2757600080fd5b613d338b838c01613b64565b975060408a0135915080821115613d4957600080fd5b613d558b838c01613b64565b965060608a0135915080821115613d6b57600080fd5b613d778b838c01613b64565b955060808a0135915080821115613d8d57600080fd5b613d998b838c01613b64565b945060a08a0135915080821115613daf57600080fd5b613dbb8b838c01613b64565b935060c08a0135915080821115613dd157600080fd5b50613dde8a828b01613b64565b91505092959891949750929550565b60008060008060008060008060008060006101608c8e031215613e0f57600080fd5b67ffffffffffffffff808d351115613e2657600080fd5b613e338e8e358f01613b64565b9b508060208e01351115613e4657600080fd5b613e568e60208f01358f01613b64565b9a508060408e01351115613e6957600080fd5b613e798e60408f01358f01613b64565b99508060608e01351115613e8c57600080fd5b613e9c8e60608f01358f01613b64565b98508060808e01351115613eaf57600080fd5b613ebf8e60808f01358f01613b64565b97508060a08e01351115613ed257600080fd5b613ee28e60a08f01358f01613b64565b96508060c08e01351115613ef557600080fd5b613f058e60c08f01358f01613b64565b95508060e08e01351115613f1857600080fd5b613f288e60e08f01358f01613b64565b9450806101008e01351115613f3c57600080fd5b613f4d8e6101008f01358f01613b64565b9350806101208e01351115613f6157600080fd5b613f728e6101208f01358f01613b64565b9250806101408e01351115613f8657600080fd5b50613f988d6101408e01358e01613b64565b90509295989b509295989b9093969950565b6001600160a01b038816815260e060208201819052600090613fce90830189613a04565b8281036040840152613af08189613a04565b600181811c90821680613ff457607f821691505b60208210810361401457634e487b7160e01b600052602260045260246000fd5b50919050565b600063ffffffff80831681810361404157634e487b7160e01b600052601160045260246000fd5b6001019392505050565b60208082526026908201527f54686973206164647265737320646f6573206e6f742068617665207065726d69604082015265039b9b4b7b7160d51b606082015260800190565b601f8211156140db57600081815260208120601f850160051c810160208610156140b85750805b601f850160051c820191505b818110156140d7578281556001016140c4565b5050505b505050565b815167ffffffffffffffff8111156140fa576140fa613b4e565b61410e816141088454613fe0565b84614091565b602080601f831160018114614143576000841561412b5750858301515b600019600386901b1c1916600185901b1785556140d7565b600085815260208120601f198616915b8281101561417257888601518255948401946001909101908401614153565b50858210156141905787850151600019600388901b60f8161c191681555b5050505050600190811b0190555056fea26469706673582212209265d600b2a998c79890c0b920b55f938bf6c5bb15b9078681222e155e47056d64736f6c63430008130033",
  "immutableReferences": {},
  "source": "// SPDX-License-Identifier: MIT\r\npragma solidity ^0.8.19;\r\n\r\ncontract RecordHealthCareData {\r\n    // Datatype user-defined\r\n    struct Patients {\r\n        // The citizen identification card of Patient\r\n        string ic;\r\n        // The name of the patient\r\n        string name;\r\n        // The patient's contact phone number\r\n        string phone;\r\n        // The gender of the patient(e.g,\"Male\" or \"Female)\r\n        string gender;\r\n        // The patient's date of birth\r\n        string dob;\r\n        //The patient's height, which could be in a specific unit of measurement like centimeters\r\n        string height;\r\n        //The patient's weight, typically measured in kilograms\r\n        string weight;\r\n        // The patient's residential address, which includes details about their home location.\r\n        string houseaddr;\r\n        // The patient's blood group (e.g., \"A+\", \"B-\", etc.).\r\n        string bloodgroup;\r\n        // Information the patient is currently taking or has taken.\r\n        string medication;\r\n        // The name of the person to contact in case of an emergency.\r\n        string emergencyName;\r\n        // The contact information (e.g., phone number) for the emergency contact person.\r\n        string emergencyContact;\r\n        // The Ethereum address of the patient\r\n        address addr;\r\n        // A timestamp or date associated with the patient's record\r\n        uint256 date;\r\n    }\r\n    struct Doctors {\r\n        // The citizen identification card of Doctor\r\n        string ic;\r\n        // The name of the doctor\r\n        string name;\r\n        // The contact phone number of the doctor.\r\n        string phone;\r\n        // The gender of the doctor (e.g., \"Male\" or \"Female\").\r\n        string gender;\r\n        // The doctor's date of birth.\r\n        string dob;\r\n        //  Information about the doctor's professional qualifications or degrees, indicating their level of education and specialization.\r\n        string qualification;\r\n        // The major or specialization area of the doctor's medical practice\r\n        string major;\r\n        // The Ethereum address of the doctor\r\n        address addr;\r\n        // A timestamp or date associated with the doctor's record, indicating when the information was recorded or last updated.\r\n        uint256 date;\r\n    }\r\n    struct Appointments {\r\n        // The ethereum address of the doctor involved in the appointment\r\n        address doctoraddr;\r\n        // The ethereum address of the patient involved in the appointment\r\n        address patientaddr;\r\n        // Storing the date and time of the appointment.\r\n        string date;\r\n        string time;\r\n        // For holding medical information related to the appointment.\r\n\r\n        string description;\r\n        string diagnosis;\r\n        string status;\r\n        // Representing the timestamp when the appointment record was created.\r\n        uint256 creationDate;\r\n    }\r\n\r\n    // Define arrray contain patient, doctor, appointments\r\n    address public owner;\r\n    address[] public patientList;\r\n    address[] public doctorList;\r\n    address[] public appointmentList;\r\n\r\n    mapping(address => Patients) patients;\r\n    mapping(address => Doctors) doctors;\r\n    mapping(address => Appointments) appointments;\r\n\r\n    mapping(address => mapping(address => bool)) isApproved;\r\n    mapping(address => bool) isPatient;\r\n    mapping(address => bool) isDoctor;\r\n    mapping(address => uint32) AppointmentPerPatient;\r\n\r\n    // Define original value of a number of patient, doctor, appointment = 0,\r\n    uint32 public patientCount = 0;\r\n    uint32 public doctorCount = 0;\r\n    uint32 public appointmentCount = 0;\r\n    uint32 public permissionGrantedCount = 0;\r\n\r\n    // Define modifiers to check that an account can perform a specific function\r\n    modifier onlyDoctor() {\r\n        require(isDoctor[msg.sender], \"This address does not have permission \");\r\n        _;\r\n    }\r\n    modifier onlyPatient() {\r\n        require(isPatient[msg.sender], \"This address does not have permission\");\r\n        _;\r\n    }\r\n\r\n    constructor() {\r\n        owner = msg.sender;\r\n    }\r\n\r\n    //Retrieve patient details from user sign up page and store the details into the blockchain\r\n    function setDetailsPatient(\r\n        string memory _ic,\r\n        string memory _name,\r\n        string memory _phone,\r\n        string memory _gender,\r\n        string memory _dob,\r\n        string memory _height,\r\n        string memory _weight,\r\n        string memory _houseaddr,\r\n        string memory _bloodgroup,\r\n        string memory _emergencyName,\r\n        string memory _emergencyContact\r\n    ) public {\r\n        require(!isPatient[msg.sender], \"This address is already a patient\");\r\n        Patients storage p = patients[msg.sender];\r\n        p.ic = _ic;\r\n        p.name = _name;\r\n        p.phone = _phone;\r\n        p.gender = _gender;\r\n        p.dob = _dob;\r\n        p.height = _height;\r\n        p.weight = _weight;\r\n        p.houseaddr = _houseaddr;\r\n        p.bloodgroup = _bloodgroup;\r\n        p.emergencyName = _emergencyName;\r\n        p.emergencyContact = _emergencyContact;\r\n        p.addr = msg.sender;\r\n        p.date = block.timestamp;\r\n        patientList.push(msg.sender);\r\n        isPatient[msg.sender] = true;\r\n        isApproved[msg.sender][msg.sender] = true;\r\n        patientCount++;\r\n    }\r\n\r\n    // Allows patient to edit their existing record\r\n    function editDetailsPatient(\r\n        string memory _ic,\r\n        string memory _name,\r\n        string memory _phone,\r\n        string memory _gender,\r\n        string memory _dob,\r\n        string memory _height,\r\n        string memory _weight,\r\n        string memory _houseaddr,\r\n        string memory _bloodgroup,\r\n        string memory _emergencyName,\r\n        string memory _emergencyContact\r\n    ) public onlyPatient {\r\n        Patients storage p = patients[msg.sender];\r\n        p.ic =_ic;\r\n        p.name = _name;\r\n        p.phone = _phone;\r\n        p.gender = _gender;\r\n        p.dob = _dob;\r\n        p.height = _height;\r\n        p.weight = _weight;\r\n        p.houseaddr = _houseaddr;\r\n        p.bloodgroup = _bloodgroup;\r\n        p.emergencyName = _emergencyName;\r\n        p.emergencyContact = _emergencyContact;\r\n        p.addr = msg.sender;\r\n    }\r\n\r\n    // Retrieve patient details from doctor registration page and store details into the blockchain\r\n    function setDoctor(\r\n        string memory _ic,\r\n        string memory _name,\r\n        string memory _phone,\r\n        string memory _gender,\r\n        string memory _dob,\r\n        string memory _qualification,\r\n        string memory _major\r\n    ) public {\r\n        require(!isDoctor[msg.sender], \" This address is already a doctor\");\r\n        Doctors storage d = doctors[msg.sender];\r\n        d.ic = _ic;\r\n        d.name = _name;\r\n        d.phone = _phone;\r\n        d.gender = _gender;\r\n        d.dob = _dob;\r\n        d.qualification = _qualification;\r\n        d.major = _major;\r\n        d.addr = msg.sender;\r\n        d.date = block.timestamp;\r\n        doctorList.push(msg.sender);\r\n        isDoctor[msg.sender] = true;\r\n        doctorCount++;\r\n    }\r\n\r\n    // Allows doctors to edit their existing profile\r\n    function editDoctor(\r\n        string memory _ic,\r\n        string memory _name,\r\n        string memory _phone,\r\n        string memory _gender,\r\n        string memory _dob,\r\n        string memory _qualification,\r\n        string memory _major\r\n    ) public onlyDoctor {\r\n        Doctors storage d = doctors[msg.sender];\r\n        d.ic = _ic;\r\n        d.name = _name;\r\n        d.phone = _phone;\r\n        d.gender = _gender;\r\n        d.dob = _dob;\r\n        d.qualification = _qualification;\r\n        d.major = _major;\r\n        d.addr = msg.sender;\r\n    }\r\n\r\n    // Retrieve appointment details from appointment page and store the details into the blockchain\r\n    function setAppointment(\r\n        address _addr,\r\n        string memory _date,\r\n        string memory _time,\r\n        string memory _diagnosis,\r\n        string memory _description,\r\n        string memory _status\r\n    ) public onlyDoctor {\r\n        Appointments storage a = appointments[_addr];\r\n        a.doctoraddr = msg.sender;\r\n        a.patientaddr = _addr;\r\n        a.date = _date;\r\n        a.time = _time;\r\n        a.diagnosis = _diagnosis;\r\n        a.description = _description;\r\n        a.status = _status;\r\n        a.creationDate = block.timestamp;\r\n        appointmentList.push(_addr);\r\n        appointmentCount++;\r\n        AppointmentPerPatient[_addr]++;\r\n    }\r\n\r\n    function updateAppointment(\r\n        address _addr,\r\n        string memory _date,\r\n        string memory _time,\r\n        string memory _diagnosis,\r\n        string memory _description,\r\n        string memory _status\r\n    ) public {\r\n        require(\r\n            isDoctor[msg.sender],\r\n            \"This address does not have permission to update new appointments\"\r\n        );\r\n        Appointments storage a = appointments[_addr];\r\n        a.doctoraddr = msg.sender;\r\n        a.patientaddr = _addr;\r\n        a.date = _date;\r\n        a.time = _time;\r\n        a.diagnosis = _diagnosis;\r\n\r\n        a.description = _description;\r\n        a.status = _status;\r\n    }\r\n\r\n    //Owner of the record must give permission to doctor only they are allowed to view records\r\n    //Hm 'givePermission' c s dng  cho php ch s hu ca hp ng thng minh cp quyn truy cp cho mt bc s c th  xem h s ca bnh nhn\r\n    function givePermission(address _address) public returns (bool success) {\r\n        // Dng m ny thc hin vic cp quyn truy cp cho bc s. N t gi tr lin quan n a ch'_address' ca bc s trong mapping 'isApproved' thnh 'true'\r\n        // iu ny c ngha l bc s  c quyn truy cp vo h s ca bnh nhn.\r\n        isApproved[msg.sender][_address] = true;\r\n        //  Dng m ny tng bin permissionGrantedCount ln mt n v.  c s dng vi mc ch  theo di s lng quyn truy cp  c cp\r\n        permissionGrantedCount++;\r\n        //  Hm tr v true  bo hiu rng vic cp quyn truy cp  c thc hin thnh cng\r\n        return true;\r\n    }\r\n\r\n    // Owner of the record can take away the permission granted to doctors to view records\r\n    // cho php ch s hu h s thu hi quyn truy cp  cp cho cc bc s xem h s\r\n    function RevokePermission(address _address) public returns (bool success) {\r\n        // Dng m ny thc hin vic thu hi quyn truy cp.\r\n        // N thit lp gi tr lin quan n a ch ca bc s '_address' trong mapping 'isApproved' thnh 'false'\r\n        // Mapping isApproved c kh nng lu tr thng tin v vic liu bc s c quyn xem h s ca bnh nhn hay khng\r\n        // t bng false => Quyn truy cp b thu hi\r\n        isApproved[msg.sender][_address] = false;\r\n        // : Dng m ny cho bit rng vic thc thi hm  thnh cng v n tr v true  ch ra rng vic thu hi quyn truy cp  c thc hin thnh cng.\r\n        return true;\r\n    }\r\n\r\n    //Retrieve a list of all patients address\r\n    function getPatients() public view returns (address[] memory) {\r\n        return patientList;\r\n    }\r\n\r\n    // Retrieve a list of all doctors address\r\n    function getDoctors() public view returns (address[] memory) {\r\n        return doctorList;\r\n    }\r\n\r\n    // Retrieve a list of all appointments address\r\n    function getAppointments() public view returns (address[] memory) {\r\n        return appointmentList;\r\n    }\r\n\r\n    //Search patient details by entering a patient address (Only record owner or doctor with permission will be allowed to access)\r\n    function searchPatientDemographic(\r\n        address _address\r\n    )\r\n        public\r\n        view\r\n        returns (\r\n            string memory,\r\n            string memory,\r\n            string memory,\r\n            string memory,\r\n            string memory,\r\n            string memory,\r\n            string memory\r\n        )\r\n    {\r\n        require(isApproved[_address][msg.sender], \"Access denied\");\r\n        Patients memory p = patients[_address];\r\n        return (p.ic, p.name, p.phone, p.gender, p.dob, p.height, p.weight);\r\n    }\r\n\r\n    //Search patient details by entering a patient address(Only record owner or doctor with permission will be allowed to access)\r\n    function searchPatientMedical(\r\n        address _address\r\n    )\r\n        public\r\n        view\r\n        returns (\r\n            string memory,\r\n            string memory,\r\n            string memory,\r\n            string memory,\r\n            string memory\r\n        )\r\n    {\r\n        require(isApproved[_address][msg.sender]);\r\n        Patients memory p = patients[_address];\r\n        return (\r\n            p.houseaddr,\r\n            p.bloodgroup,\r\n            p.medication,\r\n            p.emergencyName,\r\n            p.emergencyContact\r\n        );\r\n    }\r\n\r\n    // Search doctor details by entering a doctor address ( Only doctor will allowed to access )\r\n    function searchDoctor(\r\n        address _address\r\n    )\r\n        public\r\n        view\r\n        returns (\r\n            string memory,\r\n            string memory,\r\n            string memory,\r\n            string memory,\r\n            string memory,\r\n            string memory,\r\n            string memory\r\n        )\r\n    {\r\n        require(isDoctor[_address]);\r\n        Doctors memory d = doctors[_address];\r\n        return (d.ic, d.name, d.phone, d.gender, d.dob, d.qualification, d.major);\r\n    }\r\n\r\n    // Search appointment details by entering a patient address\r\n    function searchAppointment(\r\n        address _address\r\n    )\r\n        public\r\n        view\r\n        returns (\r\n            address,\r\n            string memory,\r\n            string memory,\r\n            string memory,\r\n            string memory,\r\n            string memory,\r\n            string memory\r\n        )\r\n    {\r\n        // Use memory for reading appointment data\r\n        Appointments memory a = appointments[_address];\r\n\r\n        // Use memory for reading doctor data\r\n        Doctors memory d = doctors[a.doctoraddr];\r\n\r\n        return (\r\n            a.doctoraddr,\r\n            d.name,\r\n            a.date,\r\n            a.time,\r\n            a.diagnosis,\r\n            a.description,\r\n            a.status\r\n        );\r\n    }\r\n\r\n    // Search patient record creation date by entering a patient address\r\n    function searchRecordDate(address _address) public view returns (uint) {\r\n        Patients memory p = patients[_address];\r\n        return (p.date);\r\n    }\r\n\r\n    //Search doctor profile creation date by entering a doctor address\r\n    function searchDoctorDate(address _address) public view returns (uint) {\r\n        Doctors memory d = doctors[_address];\r\n\r\n        return (d.date);\r\n    }\r\n\r\n    // Search appointment creation date by entering a patient address\r\n    function searchAppointmentDate(\r\n        address _address\r\n    ) public view returns (uint) {\r\n        Appointments memory a = appointments[_address];\r\n        return (a.creationDate);\r\n    }\r\n\r\n    // Retrieve patient count\r\n    function getPatientCount() public view returns (uint32) {\r\n        return patientCount;\r\n    }\r\n\r\n    // Retrieve doctor count\r\n    function getDoctorCount() public view returns (uint32) {\r\n        return doctorCount;\r\n    }\r\n\r\n    //Retrieve appointment count\r\n    function getAppointmentCount() public view returns (uint32) {\r\n        return appointmentCount;\r\n    }\r\n\r\n    //Retrieve permission granted count\r\n    function getPermissionGrantedCount() public view returns (uint32) {\r\n        return permissionGrantedCount;\r\n    }\r\n\r\n    //Retrieve permission granted count\r\n    function getAppointmentPerPatient(\r\n        address _address\r\n    ) public view returns (uint32) {\r\n        return AppointmentPerPatient[_address];\r\n    }\r\n}\r\n",
  "sourcePath": "D:\\PROJECT_BLOCKCHAIN\\FinalMainProject\\blockchain\\contracts\\RecordHealthcareData.sol",
  "compiler": {
    "name": "solc",
    "version": "0.8.19+commit.7dd6d404.Emscripten.clang"
  },
  "schemaVersion": "3.4.16",
  "updatedAt": "2024-01-17T10:26:13.450Z",
  "networkType": "ethereum",
  "devdoc": {
    "kind": "dev",
    "methods": {},
    "version": 1
  },
  "userdoc": {
    "kind": "user",
    "methods": {},
    "version": 1
  }
}