{
  "contractName": "RecordHealthCare",
  "abi": [
    {
      "inputs": [],
      "stateMutability": "nonpayable",
      "type": "constructor"
    },
    {
      "inputs": [],
      "name": "appointmentCount",
      "outputs": [
        {
          "internalType": "uint32",
          "name": "",
          "type": "uint32"
        }
      ],
      "stateMutability": "view",
      "type": "function",
      "constant": true
    },
    {
      "inputs": [
        {
          "internalType": "uint256",
          "name": "",
          "type": "uint256"
        }
      ],
      "name": "appointmentList",
      "outputs": [
        {
          "internalType": "address",
          "name": "",
          "type": "address"
        }
      ],
      "stateMutability": "view",
      "type": "function",
      "constant": true
    },
    {
      "inputs": [],
      "name": "doctorCount",
      "outputs": [
        {
          "internalType": "uint32",
          "name": "",
          "type": "uint32"
        }
      ],
      "stateMutability": "view",
      "type": "function",
      "constant": true
    },
    {
      "inputs": [
        {
          "internalType": "uint256",
          "name": "",
          "type": "uint256"
        }
      ],
      "name": "doctorList",
      "outputs": [
        {
          "internalType": "address",
          "name": "",
          "type": "address"
        }
      ],
      "stateMutability": "view",
      "type": "function",
      "constant": true
    },
    {
      "inputs": [],
      "name": "owner",
      "outputs": [
        {
          "internalType": "address",
          "name": "",
          "type": "address"
        }
      ],
      "stateMutability": "view",
      "type": "function",
      "constant": true
    },
    {
      "inputs": [],
      "name": "patientCount",
      "outputs": [
        {
          "internalType": "uint32",
          "name": "",
          "type": "uint32"
        }
      ],
      "stateMutability": "view",
      "type": "function",
      "constant": true
    },
    {
      "inputs": [
        {
          "internalType": "uint256",
          "name": "",
          "type": "uint256"
        }
      ],
      "name": "patientList",
      "outputs": [
        {
          "internalType": "address",
          "name": "",
          "type": "address"
        }
      ],
      "stateMutability": "view",
      "type": "function",
      "constant": true
    },
    {
      "inputs": [],
      "name": "permissionGrantedCount",
      "outputs": [
        {
          "internalType": "uint32",
          "name": "",
          "type": "uint32"
        }
      ],
      "stateMutability": "view",
      "type": "function",
      "constant": true
    },
    {
      "inputs": [
        {
          "internalType": "string",
          "name": "_name",
          "type": "string"
        },
        {
          "internalType": "string",
          "name": "_phone",
          "type": "string"
        },
        {
          "internalType": "string",
          "name": "_gender",
          "type": "string"
        },
        {
          "internalType": "string",
          "name": "_dob",
          "type": "string"
        },
        {
          "internalType": "string",
          "name": "_height",
          "type": "string"
        },
        {
          "internalType": "string",
          "name": "_weight",
          "type": "string"
        },
        {
          "internalType": "string",
          "name": "_houseaddr",
          "type": "string"
        },
        {
          "internalType": "string",
          "name": "_bloodgroup",
          "type": "string"
        },
        {
          "internalType": "string",
          "name": "_allergies",
          "type": "string"
        },
        {
          "internalType": "string",
          "name": "_emergencyName",
          "type": "string"
        },
        {
          "internalType": "string",
          "name": "_emergencyContact",
          "type": "string"
        }
      ],
      "name": "setDetailsPatient",
      "outputs": [],
      "stateMutability": "nonpayable",
      "type": "function"
    },
    {
      "inputs": [
        {
          "internalType": "string",
          "name": "_name",
          "type": "string"
        },
        {
          "internalType": "string",
          "name": "_phone",
          "type": "string"
        },
        {
          "internalType": "string",
          "name": "_gender",
          "type": "string"
        },
        {
          "internalType": "string",
          "name": "_dob",
          "type": "string"
        },
        {
          "internalType": "string",
          "name": "_height",
          "type": "string"
        },
        {
          "internalType": "string",
          "name": "_weight",
          "type": "string"
        },
        {
          "internalType": "string",
          "name": "_houseaddr",
          "type": "string"
        },
        {
          "internalType": "string",
          "name": "_bloodgroup",
          "type": "string"
        },
        {
          "internalType": "string",
          "name": "_allergies",
          "type": "string"
        },
        {
          "internalType": "string",
          "name": "_emergencyName",
          "type": "string"
        },
        {
          "internalType": "string",
          "name": "_emergencyContact",
          "type": "string"
        }
      ],
      "name": "editDetailsPatient",
      "outputs": [],
      "stateMutability": "nonpayable",
      "type": "function"
    },
    {
      "inputs": [
        {
          "internalType": "string",
          "name": "_name",
          "type": "string"
        },
        {
          "internalType": "string",
          "name": "_phone",
          "type": "string"
        },
        {
          "internalType": "string",
          "name": "_gender",
          "type": "string"
        },
        {
          "internalType": "string",
          "name": "_dob",
          "type": "string"
        },
        {
          "internalType": "string",
          "name": "_qualification",
          "type": "string"
        },
        {
          "internalType": "string",
          "name": "_major",
          "type": "string"
        }
      ],
      "name": "setDoctor",
      "outputs": [],
      "stateMutability": "nonpayable",
      "type": "function"
    },
    {
      "inputs": [
        {
          "internalType": "string",
          "name": "_name",
          "type": "string"
        },
        {
          "internalType": "string",
          "name": "_phone",
          "type": "string"
        },
        {
          "internalType": "string",
          "name": "_gender",
          "type": "string"
        },
        {
          "internalType": "string",
          "name": "_dob",
          "type": "string"
        },
        {
          "internalType": "string",
          "name": "_qualification",
          "type": "string"
        },
        {
          "internalType": "string",
          "name": "_major",
          "type": "string"
        }
      ],
      "name": "editDoctor",
      "outputs": [],
      "stateMutability": "nonpayable",
      "type": "function"
    },
    {
      "inputs": [
        {
          "internalType": "address",
          "name": "_addr",
          "type": "address"
        },
        {
          "internalType": "string",
          "name": "_date",
          "type": "string"
        },
        {
          "internalType": "string",
          "name": "_time",
          "type": "string"
        },
        {
          "internalType": "string",
          "name": "_diagnosis",
          "type": "string"
        },
        {
          "internalType": "string",
          "name": "_description",
          "type": "string"
        },
        {
          "internalType": "string",
          "name": "_status",
          "type": "string"
        }
      ],
      "name": "setAppointment",
      "outputs": [],
      "stateMutability": "nonpayable",
      "type": "function"
    },
    {
      "inputs": [
        {
          "internalType": "address",
          "name": "_addr",
          "type": "address"
        },
        {
          "internalType": "string",
          "name": "_date",
          "type": "string"
        },
        {
          "internalType": "string",
          "name": "_time",
          "type": "string"
        },
        {
          "internalType": "string",
          "name": "_diagnosis",
          "type": "string"
        },
        {
          "internalType": "string",
          "name": "_description",
          "type": "string"
        },
        {
          "internalType": "string",
          "name": "_status",
          "type": "string"
        }
      ],
      "name": "updateAppointment",
      "outputs": [],
      "stateMutability": "nonpayable",
      "type": "function"
    },
    {
      "inputs": [
        {
          "internalType": "address",
          "name": "_address",
          "type": "address"
        }
      ],
      "name": "givePermission",
      "outputs": [
        {
          "internalType": "bool",
          "name": "success",
          "type": "bool"
        }
      ],
      "stateMutability": "nonpayable",
      "type": "function"
    },
    {
      "inputs": [
        {
          "internalType": "address",
          "name": "_address",
          "type": "address"
        }
      ],
      "name": "RevokePermission",
      "outputs": [
        {
          "internalType": "bool",
          "name": "success",
          "type": "bool"
        }
      ],
      "stateMutability": "nonpayable",
      "type": "function"
    },
    {
      "inputs": [],
      "name": "getPatients",
      "outputs": [
        {
          "internalType": "address[]",
          "name": "",
          "type": "address[]"
        }
      ],
      "stateMutability": "view",
      "type": "function",
      "constant": true
    },
    {
      "inputs": [],
      "name": "getDoctors",
      "outputs": [
        {
          "internalType": "address[]",
          "name": "",
          "type": "address[]"
        }
      ],
      "stateMutability": "view",
      "type": "function",
      "constant": true
    },
    {
      "inputs": [],
      "name": "getAppointments",
      "outputs": [
        {
          "internalType": "address[]",
          "name": "",
          "type": "address[]"
        }
      ],
      "stateMutability": "view",
      "type": "function",
      "constant": true
    },
    {
      "inputs": [
        {
          "internalType": "address",
          "name": "_address",
          "type": "address"
        }
      ],
      "name": "searchPatientDemographic",
      "outputs": [
        {
          "internalType": "string",
          "name": "",
          "type": "string"
        },
        {
          "internalType": "string",
          "name": "",
          "type": "string"
        },
        {
          "internalType": "string",
          "name": "",
          "type": "string"
        },
        {
          "internalType": "string",
          "name": "",
          "type": "string"
        },
        {
          "internalType": "string",
          "name": "",
          "type": "string"
        },
        {
          "internalType": "string",
          "name": "",
          "type": "string"
        }
      ],
      "stateMutability": "view",
      "type": "function",
      "constant": true
    },
    {
      "inputs": [
        {
          "internalType": "address",
          "name": "_address",
          "type": "address"
        }
      ],
      "name": "searchPatientMedical",
      "outputs": [
        {
          "internalType": "string",
          "name": "",
          "type": "string"
        },
        {
          "internalType": "string",
          "name": "",
          "type": "string"
        },
        {
          "internalType": "string",
          "name": "",
          "type": "string"
        },
        {
          "internalType": "string",
          "name": "",
          "type": "string"
        },
        {
          "internalType": "string",
          "name": "",
          "type": "string"
        },
        {
          "internalType": "string",
          "name": "",
          "type": "string"
        }
      ],
      "stateMutability": "view",
      "type": "function",
      "constant": true
    },
    {
      "inputs": [
        {
          "internalType": "address",
          "name": "_address",
          "type": "address"
        }
      ],
      "name": "searchDoctor",
      "outputs": [
        {
          "internalType": "string",
          "name": "",
          "type": "string"
        },
        {
          "internalType": "string",
          "name": "",
          "type": "string"
        },
        {
          "internalType": "string",
          "name": "",
          "type": "string"
        },
        {
          "internalType": "string",
          "name": "",
          "type": "string"
        },
        {
          "internalType": "string",
          "name": "",
          "type": "string"
        },
        {
          "internalType": "string",
          "name": "",
          "type": "string"
        }
      ],
      "stateMutability": "view",
      "type": "function",
      "constant": true
    },
    {
      "inputs": [
        {
          "internalType": "address",
          "name": "_address",
          "type": "address"
        }
      ],
      "name": "searchAppointment",
      "outputs": [
        {
          "internalType": "address",
          "name": "",
          "type": "address"
        },
        {
          "internalType": "string",
          "name": "",
          "type": "string"
        },
        {
          "internalType": "string",
          "name": "",
          "type": "string"
        },
        {
          "internalType": "string",
          "name": "",
          "type": "string"
        },
        {
          "internalType": "string",
          "name": "",
          "type": "string"
        },
        {
          "internalType": "string",
          "name": "",
          "type": "string"
        },
        {
          "internalType": "string",
          "name": "",
          "type": "string"
        }
      ],
      "stateMutability": "view",
      "type": "function",
      "constant": true
    },
    {
      "inputs": [
        {
          "internalType": "address",
          "name": "_address",
          "type": "address"
        }
      ],
      "name": "searchRecordDate",
      "outputs": [
        {
          "internalType": "uint256",
          "name": "",
          "type": "uint256"
        }
      ],
      "stateMutability": "view",
      "type": "function",
      "constant": true
    },
    {
      "inputs": [
        {
          "internalType": "address",
          "name": "_address",
          "type": "address"
        }
      ],
      "name": "searchDoctorDate",
      "outputs": [
        {
          "internalType": "uint256",
          "name": "",
          "type": "uint256"
        }
      ],
      "stateMutability": "view",
      "type": "function",
      "constant": true
    },
    {
      "inputs": [
        {
          "internalType": "address",
          "name": "_address",
          "type": "address"
        }
      ],
      "name": "searchAppointmentDate",
      "outputs": [
        {
          "internalType": "uint256",
          "name": "",
          "type": "uint256"
        }
      ],
      "stateMutability": "view",
      "type": "function",
      "constant": true
    },
    {
      "inputs": [],
      "name": "getPatientCount",
      "outputs": [
        {
          "internalType": "uint32",
          "name": "",
          "type": "uint32"
        }
      ],
      "stateMutability": "view",
      "type": "function",
      "constant": true
    },
    {
      "inputs": [],
      "name": "getDoctorCount",
      "outputs": [
        {
          "internalType": "uint32",
          "name": "",
          "type": "uint32"
        }
      ],
      "stateMutability": "view",
      "type": "function",
      "constant": true
    },
    {
      "inputs": [],
      "name": "getAppointmentCount",
      "outputs": [
        {
          "internalType": "uint32",
          "name": "",
          "type": "uint32"
        }
      ],
      "stateMutability": "view",
      "type": "function",
      "constant": true
    },
    {
      "inputs": [],
      "name": "getPermissionGrantedCount",
      "outputs": [
        {
          "internalType": "uint32",
          "name": "",
          "type": "uint32"
        }
      ],
      "stateMutability": "view",
      "type": "function",
      "constant": true
    },
    {
      "inputs": [
        {
          "internalType": "address",
          "name": "_address",
          "type": "address"
        }
      ],
      "name": "getAppointmentPerPatient",
      "outputs": [
        {
          "internalType": "uint32",
          "name": "",
          "type": "uint32"
        }
      ],
      "stateMutability": "view",
      "type": "function",
      "constant": true
    }
  ],
  "bytecode": "0x6080604052600b80546001600160801b031916905534801561002057600080fd5b50600080546001600160a01b03191633179055613eca806100426000396000f3fe608060405234801561001057600080fd5b50600436106101e55760003560e01c80638db2fc951161010f578063babb1d41116100a2578063caee6c8511610071578063caee6c851461047e578063e6fce0d214610491578063e93a15b9146104a4578063eebc3fb2146104d357600080fd5b8063babb1d4114610433578063bd6f972b14610446578063c0cb24ba14610459578063c190665b1461047057600080fd5b8063a0303c41116100de578063a0303c41146103f5578063a6d1ab4e14610405578063b13d5d9414610418578063b198de651461042057600080fd5b80638db2fc95146103a15780639080af67146103b457806392041982146103c757806396b80d08146103ed57600080fd5b80633d391f701161018757806374e011421161015657806374e011421461034d57806378522bc41461036057806379111c1c146103785780638da5cb5b1461038e57600080fd5b80633d391f70146102f157806341f97c09146103045780634c14b38d14610319578063625961fc1461033a57600080fd5b806324c24b2b116101c357806324c24b2b1461027e57806329e4afbb146102a45780632a825ba0146102b95780633bc98280146102de57600080fd5b806302516abd146101ea578063127ca4b41461023e57806312ad1c3714610269575b600080fd5b6102296101f836600461375c565b3360009081526007602090815260408083206001600160a01b0394909416835292905220805460ff19169055600190565b60405190151581526020015b60405180910390f35b61025161024c36600461377e565b6104ea565b6040516001600160a01b039091168152602001610235565b610271610514565b6040516102359190613797565b600b54600160601b900463ffffffff165b60405163ffffffff9091168152602001610235565b600b54600160401b900463ffffffff1661028f565b6102cc6102c736600461375c565b610576565b6040516102359695949392919061382a565b6102cc6102ec36600461375c565b610d03565b6102296102ff36600461375c565b6114c3565b61031761031236600461394f565b611537565b005b61032c61032736600461375c565b6116bd565b604051908152602001610235565b61032c61034836600461375c565b6119f2565b61031761035b366004613a44565b611dad565b600b5461028f90640100000000900463ffffffff1681565b600b54640100000000900463ffffffff1661028f565b600054610251906001600160a01b031681565b6103176103af366004613a83565b611f13565b6103176103c2366004613a44565b612051565b6103da6103d536600461375c565b612165565b6040516102359796959493929190613c40565b610271612894565b600b5461028f9063ffffffff1681565b610317610413366004613a83565b6128f4565b610271612ad7565b61031761042e36600461394f565b612b37565b61025161044136600461377e565b612be7565b61032c61045436600461375c565b612bf7565b600b5461028f90600160601b900463ffffffff1681565b600b5463ffffffff1661028f565b6102cc61048c36600461375c565b61331f565b61025161049f36600461377e565b613730565b61028f6104b236600461375c565b6001600160a01b03166000908152600a602052604090205463ffffffff1690565b600b5461028f90600160401b900463ffffffff1681565b600281815481106104fa57600080fd5b6000918252602090912001546001600160a01b0316905081565b6060600180548060200260200160405190810160405280929190818152602001828054801561056c57602002820191906000526020600020905b81546001600160a01b0316815260019091019060200180831161054e575b5050505050905090565b6001600160a01b03811660009081526007602090815260408083203384529091529020546060908190819081908190819060ff166105b357600080fd5b6001600160a01b03871660009081526004602052604080822081516101c081019092528054829082906105e590613cd4565b80601f016020809104026020016040519081016040528092919081815260200182805461061190613cd4565b801561065e5780601f106106335761010080835404028352916020019161065e565b820191906000526020600020905b81548152906001019060200180831161064157829003601f168201915b5050505050815260200160018201805461067790613cd4565b80601f01602080910402602001604051908101604052809291908181526020018280546106a390613cd4565b80156106f05780601f106106c5576101008083540402835291602001916106f0565b820191906000526020600020905b8154815290600101906020018083116106d357829003601f168201915b5050505050815260200160028201805461070990613cd4565b80601f016020809104026020016040519081016040528092919081815260200182805461073590613cd4565b80156107825780601f1061075757610100808354040283529160200191610782565b820191906000526020600020905b81548152906001019060200180831161076557829003601f168201915b5050505050815260200160038201805461079b90613cd4565b80601f01602080910402602001604051908101604052809291908181526020018280546107c790613cd4565b80156108145780601f106107e957610100808354040283529160200191610814565b820191906000526020600020905b8154815290600101906020018083116107f757829003601f168201915b5050505050815260200160048201805461082d90613cd4565b80601f016020809104026020016040519081016040528092919081815260200182805461085990613cd4565b80156108a65780601f1061087b576101008083540402835291602001916108a6565b820191906000526020600020905b81548152906001019060200180831161088957829003601f168201915b505050505081526020016005820180546108bf90613cd4565b80601f01602080910402602001604051908101604052809291908181526020018280546108eb90613cd4565b80156109385780601f1061090d57610100808354040283529160200191610938565b820191906000526020600020905b81548152906001019060200180831161091b57829003601f168201915b5050505050815260200160068201805461095190613cd4565b80601f016020809104026020016040519081016040528092919081815260200182805461097d90613cd4565b80156109ca5780601f1061099f576101008083540402835291602001916109ca565b820191906000526020600020905b8154815290600101906020018083116109ad57829003601f168201915b505050505081526020016007820180546109e390613cd4565b80601f0160208091040260200160405190810160405280929190818152602001828054610a0f90613cd4565b8015610a5c5780601f10610a3157610100808354040283529160200191610a5c565b820191906000526020600020905b815481529060010190602001808311610a3f57829003601f168201915b50505050508152602001600882018054610a7590613cd4565b80601f0160208091040260200160405190810160405280929190818152602001828054610aa190613cd4565b8015610aee5780601f10610ac357610100808354040283529160200191610aee565b820191906000526020600020905b815481529060010190602001808311610ad157829003601f168201915b50505050508152602001600982018054610b0790613cd4565b80601f0160208091040260200160405190810160405280929190818152602001828054610b3390613cd4565b8015610b805780601f10610b5557610100808354040283529160200191610b80565b820191906000526020600020905b815481529060010190602001808311610b6357829003601f168201915b50505050508152602001600a82018054610b9990613cd4565b80601f0160208091040260200160405190810160405280929190818152602001828054610bc590613cd4565b8015610c125780601f10610be757610100808354040283529160200191610c12565b820191906000526020600020905b815481529060010190602001808311610bf557829003601f168201915b50505050508152602001600b82018054610c2b90613cd4565b80601f0160208091040260200160405190810160405280929190818152602001828054610c5790613cd4565b8015610ca45780601f10610c7957610100808354040283529160200191610ca4565b820191906000526020600020905b815481529060010190602001808311610c8757829003601f168201915b5050509183525050600c8201546001600160a01b03166020820152600d9091015460409091015260c081015160e082015161010083015161012084015161014085015161016090950151939d929c50909a509850919650945092505050565b6001600160a01b03811660009081526007602090815260408083203384529091529020546060908190819081908190819060ff16610d785760405162461bcd60e51b815260206004820152600d60248201526c1058d8d95cdcc819195b9a5959609a1b60448201526064015b60405180910390fd5b6001600160a01b03871660009081526004602052604080822081516101c08101909252805482908290610daa90613cd4565b80601f0160208091040260200160405190810160405280929190818152602001828054610dd690613cd4565b8015610e235780601f10610df857610100808354040283529160200191610e23565b820191906000526020600020905b815481529060010190602001808311610e0657829003601f168201915b50505050508152602001600182018054610e3c90613cd4565b80601f0160208091040260200160405190810160405280929190818152602001828054610e6890613cd4565b8015610eb55780601f10610e8a57610100808354040283529160200191610eb5565b820191906000526020600020905b815481529060010190602001808311610e9857829003601f168201915b50505050508152602001600282018054610ece90613cd4565b80601f0160208091040260200160405190810160405280929190818152602001828054610efa90613cd4565b8015610f475780601f10610f1c57610100808354040283529160200191610f47565b820191906000526020600020905b815481529060010190602001808311610f2a57829003601f168201915b50505050508152602001600382018054610f6090613cd4565b80601f0160208091040260200160405190810160405280929190818152602001828054610f8c90613cd4565b8015610fd95780601f10610fae57610100808354040283529160200191610fd9565b820191906000526020600020905b815481529060010190602001808311610fbc57829003601f168201915b50505050508152602001600482018054610ff290613cd4565b80601f016020809104026020016040519081016040528092919081815260200182805461101e90613cd4565b801561106b5780601f106110405761010080835404028352916020019161106b565b820191906000526020600020905b81548152906001019060200180831161104e57829003601f168201915b5050505050815260200160058201805461108490613cd4565b80601f01602080910402602001604051908101604052809291908181526020018280546110b090613cd4565b80156110fd5780601f106110d2576101008083540402835291602001916110fd565b820191906000526020600020905b8154815290600101906020018083116110e057829003601f168201915b5050505050815260200160068201805461111690613cd4565b80601f016020809104026020016040519081016040528092919081815260200182805461114290613cd4565b801561118f5780601f106111645761010080835404028352916020019161118f565b820191906000526020600020905b81548152906001019060200180831161117257829003601f168201915b505050505081526020016007820180546111a890613cd4565b80601f01602080910402602001604051908101604052809291908181526020018280546111d490613cd4565b80156112215780601f106111f657610100808354040283529160200191611221565b820191906000526020600020905b81548152906001019060200180831161120457829003601f168201915b5050505050815260200160088201805461123a90613cd4565b80601f016020809104026020016040519081016040528092919081815260200182805461126690613cd4565b80156112b35780601f10611288576101008083540402835291602001916112b3565b820191906000526020600020905b81548152906001019060200180831161129657829003601f168201915b505050505081526020016009820180546112cc90613cd4565b80601f01602080910402602001604051908101604052809291908181526020018280546112f890613cd4565b80156113455780601f1061131a57610100808354040283529160200191611345565b820191906000526020600020905b81548152906001019060200180831161132857829003601f168201915b50505050508152602001600a8201805461135e90613cd4565b80601f016020809104026020016040519081016040528092919081815260200182805461138a90613cd4565b80156113d75780601f106113ac576101008083540402835291602001916113d7565b820191906000526020600020905b8154815290600101906020018083116113ba57829003601f168201915b50505050508152602001600b820180546113f090613cd4565b80601f016020809104026020016040519081016040528092919081815260200182805461141c90613cd4565b80156114695780601f1061143e57610100808354040283529160200191611469565b820191906000526020600020905b81548152906001019060200180831161144c57829003601f168201915b5050509183525050600c8201546001600160a01b0316602080830191909152600d90920154604091820152825191830151908301516060840151608085015160a090950151939d929c50909a509850919650945092505050565b3360009081526007602090815260408083206001600160a01b03851684529091528120805460ff19166001179055600b805463ffffffff600160601b9091041690600c61150f83613d0e565b91906101000a81548163ffffffff021916908363ffffffff1602179055505060019050919050565b3360009081526009602052604090205460ff16156115a15760405162461bcd60e51b815260206004820152602160248201527f2054686973206164647265737320697320616c7265616479206120646f63746f6044820152603960f91b6064820152608401610d6f565b336000908152600560205260409020806115bb8882613d8e565b50600181016115ca8782613d8e565b50600281016115d98682613d8e565b50600381016115e88582613d8e565b50600481016115f78482613d8e565b50600581016116068382613d8e565b50600681018054336001600160a01b031991821681179092554260078401556002805460018181019092557f405787fa12a823e0f2b7631cc41b3ba8828b3321ca811111fa75cd3aa3bb5ace0180549092168317909155600091825260096020526040909120805460ff19169091179055600b8054640100000000900463ffffffff1690600461169583613d0e565b91906101000a81548163ffffffff021916908363ffffffff1602179055505050505050505050565b6001600160a01b038082166000908152600660209081526040808320815161010081018352815486168152600182015490951692850192909252600282018054939485949093928401919061171190613cd4565b80601f016020809104026020016040519081016040528092919081815260200182805461173d90613cd4565b801561178a5780601f1061175f5761010080835404028352916020019161178a565b820191906000526020600020905b81548152906001019060200180831161176d57829003601f168201915b505050505081526020016003820180546117a390613cd4565b80601f01602080910402602001604051908101604052809291908181526020018280546117cf90613cd4565b801561181c5780601f106117f15761010080835404028352916020019161181c565b820191906000526020600020905b8154815290600101906020018083116117ff57829003601f168201915b5050505050815260200160048201805461183590613cd4565b80601f016020809104026020016040519081016040528092919081815260200182805461186190613cd4565b80156118ae5780601f10611883576101008083540402835291602001916118ae565b820191906000526020600020905b81548152906001019060200180831161189157829003601f168201915b505050505081526020016005820180546118c790613cd4565b80601f01602080910402602001604051908101604052809291908181526020018280546118f390613cd4565b80156119405780601f1061191557610100808354040283529160200191611940565b820191906000526020600020905b81548152906001019060200180831161192357829003601f168201915b5050505050815260200160068201805461195990613cd4565b80601f016020809104026020016040519081016040528092919081815260200182805461198590613cd4565b80156119d25780601f106119a7576101008083540402835291602001916119d2565b820191906000526020600020905b8154815290600101906020018083116119b557829003601f168201915b50505091835250506007919091015460209091015260e001519392505050565b6001600160a01b0381166000908152600560205260408082208151610100810190925280548392919082908290611a2890613cd4565b80601f0160208091040260200160405190810160405280929190818152602001828054611a5490613cd4565b8015611aa15780601f10611a7657610100808354040283529160200191611aa1565b820191906000526020600020905b815481529060010190602001808311611a8457829003601f168201915b50505050508152602001600182018054611aba90613cd4565b80601f0160208091040260200160405190810160405280929190818152602001828054611ae690613cd4565b8015611b335780601f10611b0857610100808354040283529160200191611b33565b820191906000526020600020905b815481529060010190602001808311611b1657829003601f168201915b50505050508152602001600282018054611b4c90613cd4565b80601f0160208091040260200160405190810160405280929190818152602001828054611b7890613cd4565b8015611bc55780601f10611b9a57610100808354040283529160200191611bc5565b820191906000526020600020905b815481529060010190602001808311611ba857829003601f168201915b50505050508152602001600382018054611bde90613cd4565b80601f0160208091040260200160405190810160405280929190818152602001828054611c0a90613cd4565b8015611c575780601f10611c2c57610100808354040283529160200191611c57565b820191906000526020600020905b815481529060010190602001808311611c3a57829003601f168201915b50505050508152602001600482018054611c7090613cd4565b80601f0160208091040260200160405190810160405280929190818152602001828054611c9c90613cd4565b8015611ce95780601f10611cbe57610100808354040283529160200191611ce9565b820191906000526020600020905b815481529060010190602001808311611ccc57829003601f168201915b50505050508152602001600582018054611d0290613cd4565b80601f0160208091040260200160405190810160405280929190818152602001828054611d2e90613cd4565b8015611d7b5780601f10611d5057610100808354040283529160200191611d7b565b820191906000526020600020905b815481529060010190602001808311611d5e57829003601f168201915b505050918352505060068201546001600160a01b0316602082015260079091015460409091015260e001519392505050565b3360009081526009602052604090205460ff16611ddc5760405162461bcd60e51b8152600401610d6f90613e4e565b6001600160a01b038616600081815260066020526040902080546001600160a01b03199081163317825560018201805490911690921790915560028101611e238782613d8e565b5060038101611e328682613d8e565b5060058101611e418582613d8e565b5060048101611e508482613d8e565b5060068101611e5f8382613d8e565b50426007820155600380546001810182556000919091527fc2575a0e9e593c00f959f8c92f12db2869c3395a3b0502d05e2516446f71f85b0180546001600160a01b0319166001600160a01b038916179055600b8054600160401b900463ffffffff16906008611ece83613d0e565b82546101009290920a63ffffffff8181021990931691831602179091556001600160a01b0389166000908152600a602052604081208054909216925061169583613d0e565b3360009081526008602052604090205460ff16611f805760405162461bcd60e51b815260206004820152602560248201527f54686973206164647265737320646f6573206e6f742068617665207065726d6960448201526439b9b4b7b760d91b6064820152608401610d6f565b33600090815260046020526040902080611f9a8d82613d8e565b5060018101611fa98c82613d8e565b5060028101611fb88b82613d8e565b5060038101611fc78a82613d8e565b5060048101611fd68982613d8e565b5060058101611fe58882613d8e565b5060068101611ff48782613d8e565b50600781016120038682613d8e565b50600881016120128582613d8e565b50600a81016120218482613d8e565b50600b81016120308382613d8e565b50600c0180546001600160a01b031916331790555050505050505050505050565b3360009081526009602052604090205460ff166120d8576040805162461bcd60e51b81526020600482015260248101919091527f54686973206164647265737320646f6573206e6f742068617665207065726d6960448201527f7373696f6e20746f20757064617465206e6577206170706f696e746d656e74736064820152608401610d6f565b6001600160a01b038616600081815260066020526040902080546001600160a01b0319908116331782556001820180549091169092179091556002810161211f8782613d8e565b506003810161212e8682613d8e565b506005810161213d8582613d8e565b506004810161214c8482613d8e565b506006810161215b8382613d8e565b5050505050505050565b6001600160a01b0380821660009081526006602090815260408083208151610100810183528154861681526001820154909516928501929092526002820180549394606094859485948594859485948b949193919291840191906121c890613cd4565b80601f01602080910402602001604051908101604052809291908181526020018280546121f490613cd4565b80156122415780601f1061221657610100808354040283529160200191612241565b820191906000526020600020905b81548152906001019060200180831161222457829003601f168201915b5050505050815260200160038201805461225a90613cd4565b80601f016020809104026020016040519081016040528092919081815260200182805461228690613cd4565b80156122d35780601f106122a8576101008083540402835291602001916122d3565b820191906000526020600020905b8154815290600101906020018083116122b657829003601f168201915b505050505081526020016004820180546122ec90613cd4565b80601f016020809104026020016040519081016040528092919081815260200182805461231890613cd4565b80156123655780601f1061233a57610100808354040283529160200191612365565b820191906000526020600020905b81548152906001019060200180831161234857829003601f168201915b5050505050815260200160058201805461237e90613cd4565b80601f01602080910402602001604051908101604052809291908181526020018280546123aa90613cd4565b80156123f75780601f106123cc576101008083540402835291602001916123f7565b820191906000526020600020905b8154815290600101906020018083116123da57829003601f168201915b5050505050815260200160068201805461241090613cd4565b80601f016020809104026020016040519081016040528092919081815260200182805461243c90613cd4565b80156124895780601f1061245e57610100808354040283529160200191612489565b820191906000526020600020905b81548152906001019060200180831161246c57829003601f168201915b50505050508152602001600782015481525050905060006005600083600001516001600160a01b03166001600160a01b03168152602001908152602001600020604051806101000160405290816000820180546124e590613cd4565b80601f016020809104026020016040519081016040528092919081815260200182805461251190613cd4565b801561255e5780601f106125335761010080835404028352916020019161255e565b820191906000526020600020905b81548152906001019060200180831161254157829003601f168201915b5050505050815260200160018201805461257790613cd4565b80601f01602080910402602001604051908101604052809291908181526020018280546125a390613cd4565b80156125f05780601f106125c5576101008083540402835291602001916125f0565b820191906000526020600020905b8154815290600101906020018083116125d357829003601f168201915b5050505050815260200160028201805461260990613cd4565b80601f016020809104026020016040519081016040528092919081815260200182805461263590613cd4565b80156126825780601f1061265757610100808354040283529160200191612682565b820191906000526020600020905b81548152906001019060200180831161266557829003601f168201915b5050505050815260200160038201805461269b90613cd4565b80601f01602080910402602001604051908101604052809291908181526020018280546126c790613cd4565b80156127145780601f106126e957610100808354040283529160200191612714565b820191906000526020600020905b8154815290600101906020018083116126f757829003601f168201915b5050505050815260200160048201805461272d90613cd4565b80601f016020809104026020016040519081016040528092919081815260200182805461275990613cd4565b80156127a65780601f1061277b576101008083540402835291602001916127a6565b820191906000526020600020905b81548152906001019060200180831161278957829003601f168201915b505050505081526020016005820180546127bf90613cd4565b80601f01602080910402602001604051908101604052809291908181526020018280546127eb90613cd4565b80156128385780601f1061280d57610100808354040283529160200191612838565b820191906000526020600020905b81548152906001019060200180831161281b57829003601f168201915b505050918352505060068201546001600160a01b031660208201526007909101546040918201528351915190840151606085015160a0860151608087015160c090970151949f939e50919c509a50985092965094509092505050565b6060600380548060200260200160405190810160405280929190818152602001828054801561056c576020028201919060005260206000209081546001600160a01b0316815260019091019060200180831161054e575050505050905090565b3360009081526008602052604090205460ff161561295e5760405162461bcd60e51b815260206004820152602160248201527f54686973206164647265737320697320616c726561647920612070617469656e6044820152601d60fa1b6064820152608401610d6f565b336000908152600460205260409020806129788d82613d8e565b50600181016129878c82613d8e565b50600281016129968b82613d8e565b50600381016129a58a82613d8e565b50600481016129b48982613d8e565b50600581016129c38882613d8e565b50600681016129d28782613d8e565b50600781016129e18682613d8e565b50600881016129f08582613d8e565b50600a81016129ff8482613d8e565b50600b8101612a0e8382613d8e565b50600c81018054336001600160a01b0319918216811790925542600d8401556001805480820182557fb10e2d527612073b26eecdfd717e6a320cf44b4afac2b0732d9fcbe2b7fa0cf601805490921683179091556000918252600860209081526040808420805460ff19908116851790915560078352818520909252832080549091169091179055600b805463ffffffff1691612aaa83613d0e565b91906101000a81548163ffffffff021916908363ffffffff16021790555050505050505050505050505050565b6060600280548060200260200160405190810160405280929190818152602001828054801561056c576020028201919060005260206000209081546001600160a01b0316815260019091019060200180831161054e575050505050905090565b3360009081526009602052604090205460ff16612b665760405162461bcd60e51b8152600401610d6f90613e4e565b33600090815260056020526040902080612b808882613d8e565b5060018101612b8f8782613d8e565b5060028101612b9e8682613d8e565b5060038101612bad8582613d8e565b5060048101612bbc8482613d8e565b5060058101612bcb8382613d8e565b5060060180546001600160a01b03191633179055505050505050565b600181815481106104fa57600080fd5b6001600160a01b03811660009081526004602052604080822081516101c0810190925280548392919082908290612c2d90613cd4565b80601f0160208091040260200160405190810160405280929190818152602001828054612c5990613cd4565b8015612ca65780601f10612c7b57610100808354040283529160200191612ca6565b820191906000526020600020905b815481529060010190602001808311612c8957829003601f168201915b50505050508152602001600182018054612cbf90613cd4565b80601f0160208091040260200160405190810160405280929190818152602001828054612ceb90613cd4565b8015612d385780601f10612d0d57610100808354040283529160200191612d38565b820191906000526020600020905b815481529060010190602001808311612d1b57829003601f168201915b50505050508152602001600282018054612d5190613cd4565b80601f0160208091040260200160405190810160405280929190818152602001828054612d7d90613cd4565b8015612dca5780601f10612d9f57610100808354040283529160200191612dca565b820191906000526020600020905b815481529060010190602001808311612dad57829003601f168201915b50505050508152602001600382018054612de390613cd4565b80601f0160208091040260200160405190810160405280929190818152602001828054612e0f90613cd4565b8015612e5c5780601f10612e3157610100808354040283529160200191612e5c565b820191906000526020600020905b815481529060010190602001808311612e3f57829003601f168201915b50505050508152602001600482018054612e7590613cd4565b80601f0160208091040260200160405190810160405280929190818152602001828054612ea190613cd4565b8015612eee5780601f10612ec357610100808354040283529160200191612eee565b820191906000526020600020905b815481529060010190602001808311612ed157829003601f168201915b50505050508152602001600582018054612f0790613cd4565b80601f0160208091040260200160405190810160405280929190818152602001828054612f3390613cd4565b8015612f805780601f10612f5557610100808354040283529160200191612f80565b820191906000526020600020905b815481529060010190602001808311612f6357829003601f168201915b50505050508152602001600682018054612f9990613cd4565b80601f0160208091040260200160405190810160405280929190818152602001828054612fc590613cd4565b80156130125780601f10612fe757610100808354040283529160200191613012565b820191906000526020600020905b815481529060010190602001808311612ff557829003601f168201915b5050505050815260200160078201805461302b90613cd4565b80601f016020809104026020016040519081016040528092919081815260200182805461305790613cd4565b80156130a45780601f10613079576101008083540402835291602001916130a4565b820191906000526020600020905b81548152906001019060200180831161308757829003601f168201915b505050505081526020016008820180546130bd90613cd4565b80601f01602080910402602001604051908101604052809291908181526020018280546130e990613cd4565b80156131365780601f1061310b57610100808354040283529160200191613136565b820191906000526020600020905b81548152906001019060200180831161311957829003601f168201915b5050505050815260200160098201805461314f90613cd4565b80601f016020809104026020016040519081016040528092919081815260200182805461317b90613cd4565b80156131c85780601f1061319d576101008083540402835291602001916131c8565b820191906000526020600020905b8154815290600101906020018083116131ab57829003601f168201915b50505050508152602001600a820180546131e190613cd4565b80601f016020809104026020016040519081016040528092919081815260200182805461320d90613cd4565b801561325a5780601f1061322f5761010080835404028352916020019161325a565b820191906000526020600020905b81548152906001019060200180831161323d57829003601f168201915b50505050508152602001600b8201805461327390613cd4565b80601f016020809104026020016040519081016040528092919081815260200182805461329f90613cd4565b80156132ec5780601f106132c1576101008083540402835291602001916132ec565b820191906000526020600020905b8154815290600101906020018083116132cf57829003601f168201915b5050509183525050600c8201546001600160a01b03166020820152600d909101546040909101526101a001519392505050565b6001600160a01b0381166000908152600960205260409020546060908190819081908190819060ff1661335157600080fd5b6001600160a01b0387166000908152600560205260408082208151610100810190925280548290829061338390613cd4565b80601f01602080910402602001604051908101604052809291908181526020018280546133af90613cd4565b80156133fc5780601f106133d1576101008083540402835291602001916133fc565b820191906000526020600020905b8154815290600101906020018083116133df57829003601f168201915b5050505050815260200160018201805461341590613cd4565b80601f016020809104026020016040519081016040528092919081815260200182805461344190613cd4565b801561348e5780601f106134635761010080835404028352916020019161348e565b820191906000526020600020905b81548152906001019060200180831161347157829003601f168201915b505050505081526020016002820180546134a790613cd4565b80601f01602080910402602001604051908101604052809291908181526020018280546134d390613cd4565b80156135205780601f106134f557610100808354040283529160200191613520565b820191906000526020600020905b81548152906001019060200180831161350357829003601f168201915b5050505050815260200160038201805461353990613cd4565b80601f016020809104026020016040519081016040528092919081815260200182805461356590613cd4565b80156135b25780601f10613587576101008083540402835291602001916135b2565b820191906000526020600020905b81548152906001019060200180831161359557829003601f168201915b505050505081526020016004820180546135cb90613cd4565b80601f01602080910402602001604051908101604052809291908181526020018280546135f790613cd4565b80156136445780601f1061361957610100808354040283529160200191613644565b820191906000526020600020905b81548152906001019060200180831161362757829003601f168201915b5050505050815260200160058201805461365d90613cd4565b80601f016020809104026020016040519081016040528092919081815260200182805461368990613cd4565b80156136d65780601f106136ab576101008083540402835291602001916136d6565b820191906000526020600020905b8154815290600101906020018083116136b957829003601f168201915b505050918352505060068201546001600160a01b0316602080830191909152600790920154604091820152825191830151908301516060840151608085015160a090950151939d929c50909a509850919650945092505050565b600381815481106104fa57600080fd5b80356001600160a01b038116811461375757600080fd5b919050565b60006020828403121561376e57600080fd5b61377782613740565b9392505050565b60006020828403121561379057600080fd5b5035919050565b6020808252825182820181905260009190848201906040850190845b818110156137d85783516001600160a01b0316835292840192918401916001016137b3565b50909695505050505050565b6000815180845260005b8181101561380a576020818501810151868301820152016137ee565b506000602082860101526020601f19601f83011685010191505092915050565b60c08152600061383d60c08301896137e4565b828103602084015261384f81896137e4565b9050828103604084015261386381886137e4565b9050828103606084015261387781876137e4565b9050828103608084015261388b81866137e4565b905082810360a084015261389f81856137e4565b9998505050505050505050565b634e487b7160e01b600052604160045260246000fd5b600082601f8301126138d357600080fd5b813567ffffffffffffffff808211156138ee576138ee6138ac565b604051601f8301601f19908116603f01168101908282118183101715613916576139166138ac565b8160405283815286602085880101111561392f57600080fd5b836020870160208301376000602085830101528094505050505092915050565b60008060008060008060c0878903121561396857600080fd5b863567ffffffffffffffff8082111561398057600080fd5b61398c8a838b016138c2565b975060208901359150808211156139a257600080fd5b6139ae8a838b016138c2565b965060408901359150808211156139c457600080fd5b6139d08a838b016138c2565b955060608901359150808211156139e657600080fd5b6139f28a838b016138c2565b94506080890135915080821115613a0857600080fd5b613a148a838b016138c2565b935060a0890135915080821115613a2a57600080fd5b50613a3789828a016138c2565b9150509295509295509295565b60008060008060008060c08789031215613a5d57600080fd5b613a6687613740565b9550602087013567ffffffffffffffff808211156139a257600080fd5b60008060008060008060008060008060006101608c8e031215613aa557600080fd5b67ffffffffffffffff808d351115613abc57600080fd5b613ac98e8e358f016138c2565b9b508060208e01351115613adc57600080fd5b613aec8e60208f01358f016138c2565b9a508060408e01351115613aff57600080fd5b613b0f8e60408f01358f016138c2565b99508060608e01351115613b2257600080fd5b613b328e60608f01358f016138c2565b98508060808e01351115613b4557600080fd5b613b558e60808f01358f016138c2565b97508060a08e01351115613b6857600080fd5b613b788e60a08f01358f016138c2565b96508060c08e01351115613b8b57600080fd5b613b9b8e60c08f01358f016138c2565b95508060e08e01351115613bae57600080fd5b613bbe8e60e08f01358f016138c2565b9450806101008e01351115613bd257600080fd5b613be38e6101008f01358f016138c2565b9350806101208e01351115613bf757600080fd5b613c088e6101208f01358f016138c2565b9250806101408e01351115613c1c57600080fd5b50613c2e8d6101408e01358e016138c2565b90509295989b509295989b9093969950565b6001600160a01b038816815260e060208201819052600090613c64908301896137e4565b8281036040840152613c7681896137e4565b90508281036060840152613c8a81886137e4565b90508281036080840152613c9e81876137e4565b905082810360a0840152613cb281866137e4565b905082810360c0840152613cc681856137e4565b9a9950505050505050505050565b600181811c90821680613ce857607f821691505b602082108103613d0857634e487b7160e01b600052602260045260246000fd5b50919050565b600063ffffffff808316818103613d3557634e487b7160e01b600052601160045260246000fd5b6001019392505050565b601f821115613d8957600081815260208120601f850160051c81016020861015613d665750805b601f850160051c820191505b81811015613d8557828155600101613d72565b5050505b505050565b815167ffffffffffffffff811115613da857613da86138ac565b613dbc81613db68454613cd4565b84613d3f565b602080601f831160018114613df15760008415613dd95750858301515b600019600386901b1c1916600185901b178555613d85565b600085815260208120601f198616915b82811015613e2057888601518255948401946001909101908401613e01565b5085821015613e3e5787850151600019600388901b60f8161c191681555b5050505050600190811b01905550565b60208082526026908201527f54686973206164647265737320646f6573206e6f742068617665207065726d69604082015265039b9b4b7b7160d51b60608201526080019056fea26469706673582212209ebf67fc5567f653c5cb969925ee4bb54b5d3c2ab220964297db28ade450ba0264736f6c63430008130033",
  "immutableReferences": {},
  "source": "// SPDX-License-Identifier: MIT\r\npragma solidity 0.8.19;\r\n\r\ncontract RecordHealthCare {\r\n    // Datatype user-defined\r\n    struct Patients {\r\n        // The name of the patient\r\n        string name;\r\n        // The patient's contact phone number\r\n        string phone;\r\n        // The gender of the patient(e.g,\"Male\" or \"Female)\r\n        string gender;\r\n        // The patient's date of birth\r\n        string dob;\r\n        //The patient's height, which could be in a specific unit of measurement like centimeters\r\n        string height;\r\n        //The patient's weight, typically measured in kilograms\r\n        string weight;\r\n        // The patient's residential address, which includes details about their home location.\r\n        string houseaddr;\r\n        // The patient's blood group (e.g., \"A+\", \"B-\", etc.).\r\n        string bloodgroup;\r\n        // Any allergirs that thw patient may have, such as food allergies or drug allergies\r\n        string allergies;\r\n        // Information the patient is currently taking or has taken.\r\n        string medication;\r\n        // The name of the person to contact in case of an emergency.\r\n        string emergencyName;\r\n        // The contact information (e.g., phone number) for the emergency contact person.\r\n        string emergencyContact;\r\n        // The Ethereum address of the patient\r\n        address addr;\r\n        // A timestamp or date associated with the patient's record\r\n        uint256 date;\r\n    }\r\n    struct Doctors {\r\n        // The name of the doctor\r\n        string name;\r\n        // The contact phone number of the doctor.\r\n        string phone;\r\n        // The gender of the doctor (e.g., \"Male\" or \"Female\").\r\n        string gender;\r\n        // The doctor's date of birth.\r\n        string dob;\r\n        //  Information about the doctor's professional qualifications or degrees, indicating their level of education and specialization.\r\n        string qualification;\r\n        // The major or specialization area of the doctor's medical practice\r\n        string major;\r\n        // The Ethereum address of the doctor\r\n        address addr;\r\n        // A timestamp or date associated with the doctor's record, indicating when the information was recorded or last updated.\r\n        uint256 date;\r\n    }\r\n    struct Appointments {\r\n        // The ethereum address of the doctor involved in the appointment\r\n        address doctoraddr;\r\n        // The ethereum address of the patient involved in the appointment\r\n        address patientaddr;\r\n        // Storing the date and time of the appointment.\r\n        string date;\r\n        string time;\r\n        // For holding medical information related to the appointment.\r\n        string description;\r\n        string diagnosis;\r\n        string status;\r\n        // Representing the timestamp when the appointment record was created.\r\n        uint256 creationDate;\r\n    }\r\n\r\n    // Define arrray contain patient, doctor, appointments\r\n    address public owner;\r\n    address[] public patientList;\r\n    address[] public doctorList;\r\n    address[] public appointmentList;\r\n\r\n    mapping(address => Patients) patients;\r\n    mapping(address => Doctors) doctors;\r\n    mapping(address => Appointments) appointments;\r\n\r\n    mapping(address => mapping(address => bool)) isApproved;\r\n    mapping(address => bool) isPatient;\r\n    mapping(address => bool) isDoctor;\r\n    mapping(address => uint32) AppointmentPerPatient;\r\n\r\n    // Define original value of a number of patient, doctor, appointment = 0,\r\n    uint32 public patientCount = 0;\r\n    uint32 public doctorCount = 0;\r\n    uint32 public appointmentCount = 0;\r\n    uint32 public permissionGrantedCount = 0;\r\n\r\n    // Define modifiers to check that an account can perform a specific function\r\n    modifier onlyDoctor() {\r\n        require(isDoctor[msg.sender], \"This address does not have permission \");\r\n        _;\r\n    }\r\n    modifier onlyPatient() {\r\n        require(isPatient[msg.sender], \"This address does not have permission\");\r\n        _;\r\n    }\r\n\r\n    constructor() {\r\n        owner = msg.sender;\r\n    }\r\n\r\n    //Retrieve patient details from user sign up page and store the details into the blockchain\r\n    function setDetailsPatient(\r\n        string memory _name,\r\n        string memory _phone,\r\n        string memory _gender,\r\n        string memory _dob,\r\n        string memory _height,\r\n        string memory _weight,\r\n        string memory _houseaddr,\r\n        string memory _bloodgroup,\r\n        string memory _allergies,\r\n        string memory _emergencyName,\r\n        string memory _emergencyContact\r\n    ) public {\r\n        require(!isPatient[msg.sender], \"This address is already a patient\");\r\n        Patients storage p = patients[msg.sender];\r\n        p.name = _name;\r\n        p.phone = _phone;\r\n        p.gender = _gender;\r\n        p.dob = _dob;\r\n        p.height = _height;\r\n        p.weight = _weight;\r\n        p.houseaddr = _houseaddr;\r\n        p.bloodgroup = _bloodgroup;\r\n        p.allergies = _allergies;\r\n        p.emergencyName = _emergencyName;\r\n        p.emergencyContact = _emergencyContact;\r\n        p.addr = msg.sender;\r\n        p.date = block.timestamp;\r\n        patientList.push(msg.sender);\r\n        isPatient[msg.sender] = true;\r\n        isApproved[msg.sender][msg.sender] = true;\r\n        patientCount++;\r\n    }\r\n    // Allows patient to edit their existing record\r\n    function editDetailsPatient(\r\n        string memory _name,\r\n        string memory _phone,\r\n        string memory _gender,\r\n        string memory _dob,\r\n        string memory _height,\r\n        string memory _weight,\r\n        string memory _houseaddr,\r\n        string memory _bloodgroup,\r\n        string memory _allergies,\r\n        string memory _emergencyName,\r\n        string memory _emergencyContact\r\n    ) public onlyPatient {\r\n        Patients storage p = patients[msg.sender];\r\n        p.name = _name;\r\n        p.phone = _phone;\r\n        p.gender = _gender;\r\n        p.dob = _dob;\r\n        p.height = _height;\r\n        p.weight = _weight;\r\n        p.houseaddr = _houseaddr;\r\n        p.bloodgroup = _bloodgroup;\r\n        p.allergies = _allergies;\r\n        p.emergencyName = _emergencyName;\r\n        p.emergencyContact = _emergencyContact;\r\n        p.addr = msg.sender;\r\n    }\r\n\r\n    // Retrieve patient details from doctor registration page and store details into the blockchain\r\n    function setDoctor(\r\n        string memory _name,\r\n        string memory _phone,\r\n        string memory _gender,\r\n        string memory _dob,\r\n        string memory _qualification,\r\n        string memory _major\r\n    ) public {\r\n        require(!isDoctor[msg.sender], \" This address is already a doctor\");\r\n        Doctors storage d = doctors[msg.sender];\r\n        d.name = _name;\r\n        d.phone = _phone;\r\n        d.gender = _gender;\r\n        d.dob = _dob;\r\n        d.qualification = _qualification;\r\n        d.major = _major;\r\n        d.addr = msg.sender;\r\n        d.date = block.timestamp;\r\n        doctorList.push(msg.sender);\r\n        isDoctor[msg.sender] = true;\r\n        doctorCount++;\r\n    }\r\n\r\n    // Allows doctors to edit their existing profile\r\n    function editDoctor(\r\n        string memory _name,\r\n        string memory _phone,\r\n        string memory _gender,\r\n        string memory _dob,\r\n        string memory _qualification,\r\n        string memory _major\r\n    ) public onlyDoctor {\r\n        Doctors storage d = doctors[msg.sender];\r\n        d.name = _name;\r\n        d.phone = _phone;\r\n        d.gender = _gender;\r\n        d.dob = _dob;\r\n        d.qualification = _qualification;\r\n        d.major = _major;\r\n        d.addr = msg.sender;\r\n    }\r\n\r\n    // Retrieve appointment details from appointment page and store the details into the blockchain\r\n    function setAppointment(\r\n        address _addr,\r\n        string memory _date,\r\n        string memory _time,\r\n        string memory _diagnosis,\r\n        string memory _description,\r\n        string memory _status\r\n    ) public onlyDoctor {\r\n        Appointments storage a = appointments[_addr];\r\n        a.doctoraddr = msg.sender;\r\n        a.patientaddr = _addr;\r\n        a.date = _date;\r\n        a.time = _time;\r\n        a.diagnosis = _diagnosis;\r\n        a.description = _description;\r\n        a.status = _status;\r\n        a.creationDate = block.timestamp;\r\n        appointmentList.push(_addr);\r\n        appointmentCount++;\r\n        AppointmentPerPatient[_addr]++;\r\n    }\r\n\r\n    function updateAppointment(\r\n        address _addr,\r\n        string memory _date,\r\n        string memory _time,\r\n        string memory _diagnosis,\r\n        string memory _description,\r\n        string memory _status\r\n    ) public {\r\n        require(\r\n            isDoctor[msg.sender],\r\n            \"This address does not have permission to update new appointments\"\r\n        );\r\n        Appointments storage a = appointments[_addr];\r\n        a.doctoraddr = msg.sender;\r\n        a.patientaddr = _addr;\r\n        a.date = _date;\r\n        a.time = _time;\r\n        a.diagnosis = _diagnosis;\r\n\r\n        a.description = _description;\r\n        a.status = _status;\r\n    }\r\n\r\n    //Owner of the record must give permission to doctor only they are allowed to view records\r\n    //Hm 'givePermission' c s dng  cho php ch s hu ca hp ng thng minh cp quyn truy cp cho mt bc s c th  xem h s ca bnh nhn\r\n    function givePermission(address _address) public returns (bool success) {\r\n        // Dng m ny thc hin vic cp quyn truy cp cho bc s. N t gi tr lin quan n a ch'_address' ca bc s trong mapping 'isApproved' thnh 'true'\r\n        // iu ny c ngha l bc s  c quyn truy cp vo h s ca bnh nhn.\r\n        isApproved[msg.sender][_address] = true;\r\n        //  Dng m ny tng bin permissionGrantedCount ln mt n v.  c s dng vi mc ch  theo di s lng quyn truy cp  c cp\r\n        permissionGrantedCount++;\r\n        //  Hm tr v true  bo hiu rng vic cp quyn truy cp  c thc hin thnh cng\r\n        return true;\r\n    }\r\n\r\n    // Owner of the record can take away the permission granted to doctors to view records\r\n    // cho php ch s hu h s thu hi quyn truy cp  cp cho cc bc s xem h s\r\n    function RevokePermission(address _address) public returns (bool success) {\r\n        // Dng m ny thc hin vic thu hi quyn truy cp.\r\n        // N thit lp gi tr lin quan n a ch ca bc s '_address' trong mapping 'isApproved' thnh 'false'\r\n        // Mapping isApproved c kh nng lu tr thng tin v vic liu bc s c quyn xem h s ca bnh nhn hay khng\r\n        // t bng false => Quyn truy cp b thu hi\r\n        isApproved[msg.sender][_address] = false;\r\n        // : Dng m ny cho bit rng vic thc thi hm  thnh cng v n tr v true  ch ra rng vic thu hi quyn truy cp  c thc hin thnh cng.\r\n        return true;\r\n    }\r\n\r\n    //Retrieve a list of all patients address\r\n    function getPatients() public view returns (address[] memory) {\r\n        return patientList;\r\n    }\r\n\r\n    // Retrieve a list of all doctors address\r\n    function getDoctors() public view returns (address[] memory) {\r\n        return doctorList;\r\n    }\r\n\r\n    // Retrieve a list of all appointments address\r\n    function getAppointments() public view returns (address[] memory) {\r\n        return appointmentList;\r\n    }\r\n\r\n    //Search patient details by entering a patient address (Only record owner or doctor with permission will be allowed to access)\r\n    function searchPatientDemographic(\r\n        address _address\r\n    )\r\n        public\r\n        view\r\n        returns (\r\n            string memory,\r\n            string memory,\r\n            string memory,\r\n            string memory,\r\n            string memory,\r\n            string memory\r\n        )\r\n    {\r\n        require(isApproved[_address][msg.sender], \"Access denied\");\r\n        Patients memory p = patients[_address];\r\n        return (p.name, p.phone, p.gender, p.dob, p.height, p.weight);\r\n    }\r\n\r\n    //Search patient details by entering a patient address(Only record owner or doctor with permission will be allowed to access)\r\n    function searchPatientMedical(\r\n        address _address\r\n    )\r\n        public\r\n        view\r\n        returns (\r\n            string memory,\r\n            string memory,\r\n            string memory,\r\n            string memory,\r\n            string memory,\r\n            string memory\r\n        )\r\n    {\r\n        require(isApproved[_address][msg.sender]);\r\n        Patients memory p = patients[_address];\r\n        return (\r\n            p.houseaddr,\r\n            p.bloodgroup,\r\n            p.allergies,\r\n            p.medication,\r\n            p.emergencyName,\r\n            p.emergencyContact\r\n        );\r\n    }\r\n\r\n    // Search doctor details by entering a doctor address ( Only doctor will allowed to access )\r\n    function searchDoctor(\r\n        address _address\r\n    )\r\n        public\r\n        view\r\n        returns (\r\n            string memory,\r\n            string memory,\r\n            string memory,\r\n            string memory,\r\n            string memory,\r\n            string memory\r\n        )\r\n    {\r\n        require(isDoctor[_address]);\r\n        Doctors memory d = doctors[_address];\r\n        return (d.name, d.phone, d.gender, d.dob, d.qualification, d.major);\r\n    }\r\n\r\n    // Search appointment details by entering a patient address\r\n    function searchAppointment(\r\n        address _address\r\n    )\r\n        public\r\n        view\r\n        returns (\r\n            address,\r\n            string memory,\r\n            string memory,\r\n            string memory,\r\n            string memory,\r\n            string memory,\r\n            string memory\r\n        )\r\n    {\r\n        // Use memory for reading appointment data\r\n        Appointments memory a = appointments[_address];\r\n\r\n        // Use memory for reading doctor data\r\n        Doctors memory d = doctors[a.doctoraddr];\r\n\r\n        return (\r\n            a.doctoraddr,\r\n            d.name,\r\n            a.date,\r\n            a.time,\r\n            a.diagnosis,\r\n            a.description,\r\n            a.status\r\n        );\r\n    }\r\n\r\n    // Search patient record creation date by entering a patient address\r\n    function searchRecordDate(address _address) public view returns (uint) {\r\n        Patients memory p = patients[_address];\r\n        return (p.date);\r\n    }\r\n\r\n    //Search doctor profile creation date by entering a doctor address\r\n    function searchDoctorDate(address _address) public view returns (uint) {\r\n        Doctors memory d = doctors[_address];\r\n\r\n        return (d.date);\r\n    }\r\n\r\n    // Search appointment creation date by entering a patient address\r\n    function searchAppointmentDate(\r\n        address _address\r\n    ) public view returns (uint) {\r\n        Appointments memory a = appointments[_address];\r\n        return (a.creationDate);\r\n    }\r\n\r\n    // Retrieve patient count\r\n    function getPatientCount() public view returns (uint32) {\r\n        return patientCount;\r\n    }\r\n\r\n    // Retrieve doctor count\r\n    function getDoctorCount() public view returns (uint32) {\r\n        return doctorCount;\r\n    }\r\n\r\n    //Retrieve appointment count\r\n    function getAppointmentCount() public view returns (uint32) {\r\n        return appointmentCount;\r\n    }\r\n\r\n    //Retrieve permission granted count\r\n    function getPermissionGrantedCount() public view returns (uint32) {\r\n        return permissionGrantedCount;\r\n    }\r\n\r\n    //Retrieve permission granted count\r\n    function getAppointmentPerPatient(\r\n        address _address\r\n    ) public view returns (uint32) {\r\n        return AppointmentPerPatient[_address];\r\n    }\r\n}",
  "sourcePath": "D:\\PROJECT_BLOCKCHAIN\\FinalMainProject\\blockchain\\contracts\\record.sol",
  "compiler": {
    "name": "solc",
    "version": "0.8.19+commit.7dd6d404.Emscripten.clang"
  },
  "schemaVersion": "3.4.16",
  "updatedAt": "2024-01-04T14:53:47.051Z",
  "networkType": "ethereum",
  "devdoc": {
    "kind": "dev",
    "methods": {},
    "version": 1
  },
  "userdoc": {
    "kind": "user",
    "methods": {},
    "version": 1
  }
}