{
  "contractName": "RecordHealthCare",
  "abi": [
    {
      "inputs": [],
      "stateMutability": "nonpayable",
      "type": "constructor"
    },
    {
      "inputs": [],
      "name": "appointmentCount",
      "outputs": [
        {
          "internalType": "uint32",
          "name": "",
          "type": "uint32"
        }
      ],
      "stateMutability": "view",
      "type": "function",
      "constant": true
    },
    {
      "inputs": [
        {
          "internalType": "uint256",
          "name": "",
          "type": "uint256"
        }
      ],
      "name": "appointmentList",
      "outputs": [
        {
          "internalType": "address",
          "name": "",
          "type": "address"
        }
      ],
      "stateMutability": "view",
      "type": "function",
      "constant": true
    },
    {
      "inputs": [],
      "name": "doctorCount",
      "outputs": [
        {
          "internalType": "uint32",
          "name": "",
          "type": "uint32"
        }
      ],
      "stateMutability": "view",
      "type": "function",
      "constant": true
    },
    {
      "inputs": [
        {
          "internalType": "uint256",
          "name": "",
          "type": "uint256"
        }
      ],
      "name": "doctorList",
      "outputs": [
        {
          "internalType": "address",
          "name": "",
          "type": "address"
        }
      ],
      "stateMutability": "view",
      "type": "function",
      "constant": true
    },
    {
      "inputs": [],
      "name": "owner",
      "outputs": [
        {
          "internalType": "address",
          "name": "",
          "type": "address"
        }
      ],
      "stateMutability": "view",
      "type": "function",
      "constant": true
    },
    {
      "inputs": [],
      "name": "patientCount",
      "outputs": [
        {
          "internalType": "uint32",
          "name": "",
          "type": "uint32"
        }
      ],
      "stateMutability": "view",
      "type": "function",
      "constant": true
    },
    {
      "inputs": [
        {
          "internalType": "uint256",
          "name": "",
          "type": "uint256"
        }
      ],
      "name": "patientList",
      "outputs": [
        {
          "internalType": "address",
          "name": "",
          "type": "address"
        }
      ],
      "stateMutability": "view",
      "type": "function",
      "constant": true
    },
    {
      "inputs": [],
      "name": "permissionGrantedCount",
      "outputs": [
        {
          "internalType": "uint32",
          "name": "",
          "type": "uint32"
        }
      ],
      "stateMutability": "view",
      "type": "function",
      "constant": true
    },
    {
      "inputs": [
        {
          "internalType": "string",
          "name": "_name",
          "type": "string"
        },
        {
          "internalType": "string",
          "name": "_phone",
          "type": "string"
        },
        {
          "internalType": "string",
          "name": "_gender",
          "type": "string"
        },
        {
          "internalType": "string",
          "name": "_dob",
          "type": "string"
        },
        {
          "internalType": "string",
          "name": "_height",
          "type": "string"
        },
        {
          "internalType": "string",
          "name": "_weight",
          "type": "string"
        },
        {
          "internalType": "string",
          "name": "_houseaddr",
          "type": "string"
        },
        {
          "internalType": "string",
          "name": "_bloodgroup",
          "type": "string"
        },
        {
          "internalType": "string",
          "name": "_allergies",
          "type": "string"
        },
        {
          "internalType": "string",
          "name": "_emergencyName",
          "type": "string"
        },
        {
          "internalType": "string",
          "name": "_emergencyContact",
          "type": "string"
        }
      ],
      "name": "setDetailsPatient",
      "outputs": [],
      "stateMutability": "nonpayable",
      "type": "function"
    },
    {
      "inputs": [
        {
          "internalType": "string",
          "name": "_name",
          "type": "string"
        },
        {
          "internalType": "string",
          "name": "_phone",
          "type": "string"
        },
        {
          "internalType": "string",
          "name": "_gender",
          "type": "string"
        },
        {
          "internalType": "string",
          "name": "_dob",
          "type": "string"
        },
        {
          "internalType": "string",
          "name": "_height",
          "type": "string"
        },
        {
          "internalType": "string",
          "name": "_weight",
          "type": "string"
        },
        {
          "internalType": "string",
          "name": "_houseaddr",
          "type": "string"
        },
        {
          "internalType": "string",
          "name": "_bloodgroup",
          "type": "string"
        },
        {
          "internalType": "string",
          "name": "_allergies",
          "type": "string"
        },
        {
          "internalType": "string",
          "name": "_emergencyName",
          "type": "string"
        },
        {
          "internalType": "string",
          "name": "_emergencyContact",
          "type": "string"
        }
      ],
      "name": "editDetailsPatient",
      "outputs": [],
      "stateMutability": "nonpayable",
      "type": "function"
    },
    {
      "inputs": [
        {
          "internalType": "string",
          "name": "_name",
          "type": "string"
        },
        {
          "internalType": "string",
          "name": "_phone",
          "type": "string"
        },
        {
          "internalType": "string",
          "name": "_gender",
          "type": "string"
        },
        {
          "internalType": "string",
          "name": "_dob",
          "type": "string"
        },
        {
          "internalType": "string",
          "name": "_qualification",
          "type": "string"
        },
        {
          "internalType": "string",
          "name": "_major",
          "type": "string"
        }
      ],
      "name": "setDoctor",
      "outputs": [],
      "stateMutability": "nonpayable",
      "type": "function"
    },
    {
      "inputs": [
        {
          "internalType": "string",
          "name": "_name",
          "type": "string"
        },
        {
          "internalType": "string",
          "name": "_phone",
          "type": "string"
        },
        {
          "internalType": "string",
          "name": "_gender",
          "type": "string"
        },
        {
          "internalType": "string",
          "name": "_dob",
          "type": "string"
        },
        {
          "internalType": "string",
          "name": "_qualification",
          "type": "string"
        },
        {
          "internalType": "string",
          "name": "_major",
          "type": "string"
        }
      ],
      "name": "editDoctor",
      "outputs": [],
      "stateMutability": "nonpayable",
      "type": "function"
    },
    {
      "inputs": [
        {
          "internalType": "address",
          "name": "_addr",
          "type": "address"
        },
        {
          "internalType": "string",
          "name": "_date",
          "type": "string"
        },
        {
          "internalType": "string",
          "name": "_time",
          "type": "string"
        },
        {
          "internalType": "string",
          "name": "_diagnosis",
          "type": "string"
        },
        {
          "internalType": "string",
          "name": "_description",
          "type": "string"
        },
        {
          "internalType": "string",
          "name": "_status",
          "type": "string"
        }
      ],
      "name": "setAppointment",
      "outputs": [],
      "stateMutability": "nonpayable",
      "type": "function"
    },
    {
      "inputs": [
        {
          "internalType": "address",
          "name": "_addr",
          "type": "address"
        },
        {
          "internalType": "string",
          "name": "_date",
          "type": "string"
        },
        {
          "internalType": "string",
          "name": "_time",
          "type": "string"
        },
        {
          "internalType": "string",
          "name": "_diagnosis",
          "type": "string"
        },
        {
          "internalType": "string",
          "name": "_description",
          "type": "string"
        },
        {
          "internalType": "string",
          "name": "_status",
          "type": "string"
        }
      ],
      "name": "updateAppointment",
      "outputs": [],
      "stateMutability": "nonpayable",
      "type": "function"
    },
    {
      "inputs": [
        {
          "internalType": "address",
          "name": "_address",
          "type": "address"
        }
      ],
      "name": "givePermission",
      "outputs": [
        {
          "internalType": "bool",
          "name": "success",
          "type": "bool"
        }
      ],
      "stateMutability": "nonpayable",
      "type": "function"
    },
    {
      "inputs": [
        {
          "internalType": "address",
          "name": "_address",
          "type": "address"
        }
      ],
      "name": "RevokePermission",
      "outputs": [
        {
          "internalType": "bool",
          "name": "success",
          "type": "bool"
        }
      ],
      "stateMutability": "nonpayable",
      "type": "function"
    },
    {
      "inputs": [],
      "name": "getPatients",
      "outputs": [
        {
          "internalType": "address[]",
          "name": "",
          "type": "address[]"
        }
      ],
      "stateMutability": "view",
      "type": "function",
      "constant": true
    },
    {
      "inputs": [],
      "name": "getDoctors",
      "outputs": [
        {
          "internalType": "address[]",
          "name": "",
          "type": "address[]"
        }
      ],
      "stateMutability": "view",
      "type": "function",
      "constant": true
    },
    {
      "inputs": [],
      "name": "getAppointments",
      "outputs": [
        {
          "internalType": "address[]",
          "name": "",
          "type": "address[]"
        }
      ],
      "stateMutability": "view",
      "type": "function",
      "constant": true
    },
    {
      "inputs": [
        {
          "internalType": "address",
          "name": "_address",
          "type": "address"
        }
      ],
      "name": "searchPatientDemographic",
      "outputs": [
        {
          "internalType": "string",
          "name": "",
          "type": "string"
        },
        {
          "internalType": "string",
          "name": "",
          "type": "string"
        },
        {
          "internalType": "string",
          "name": "",
          "type": "string"
        },
        {
          "internalType": "string",
          "name": "",
          "type": "string"
        },
        {
          "internalType": "string",
          "name": "",
          "type": "string"
        },
        {
          "internalType": "string",
          "name": "",
          "type": "string"
        }
      ],
      "stateMutability": "view",
      "type": "function",
      "constant": true
    },
    {
      "inputs": [
        {
          "internalType": "address",
          "name": "_address",
          "type": "address"
        }
      ],
      "name": "searchPatientMedical",
      "outputs": [
        {
          "internalType": "string",
          "name": "",
          "type": "string"
        },
        {
          "internalType": "string",
          "name": "",
          "type": "string"
        },
        {
          "internalType": "string",
          "name": "",
          "type": "string"
        },
        {
          "internalType": "string",
          "name": "",
          "type": "string"
        },
        {
          "internalType": "string",
          "name": "",
          "type": "string"
        },
        {
          "internalType": "string",
          "name": "",
          "type": "string"
        }
      ],
      "stateMutability": "view",
      "type": "function",
      "constant": true
    },
    {
      "inputs": [
        {
          "internalType": "address",
          "name": "_address",
          "type": "address"
        }
      ],
      "name": "searchDoctor",
      "outputs": [
        {
          "internalType": "string",
          "name": "",
          "type": "string"
        },
        {
          "internalType": "string",
          "name": "",
          "type": "string"
        },
        {
          "internalType": "string",
          "name": "",
          "type": "string"
        },
        {
          "internalType": "string",
          "name": "",
          "type": "string"
        },
        {
          "internalType": "string",
          "name": "",
          "type": "string"
        },
        {
          "internalType": "string",
          "name": "",
          "type": "string"
        }
      ],
      "stateMutability": "view",
      "type": "function",
      "constant": true
    },
    {
      "inputs": [
        {
          "internalType": "address",
          "name": "_address",
          "type": "address"
        }
      ],
      "name": "searchAppointment",
      "outputs": [
        {
          "internalType": "address",
          "name": "",
          "type": "address"
        },
        {
          "internalType": "string",
          "name": "",
          "type": "string"
        },
        {
          "internalType": "string",
          "name": "",
          "type": "string"
        },
        {
          "internalType": "string",
          "name": "",
          "type": "string"
        },
        {
          "internalType": "string",
          "name": "",
          "type": "string"
        },
        {
          "internalType": "string",
          "name": "",
          "type": "string"
        },
        {
          "internalType": "string",
          "name": "",
          "type": "string"
        }
      ],
      "stateMutability": "view",
      "type": "function",
      "constant": true
    },
    {
      "inputs": [
        {
          "internalType": "address",
          "name": "_address",
          "type": "address"
        }
      ],
      "name": "searchRecordDate",
      "outputs": [
        {
          "internalType": "uint256",
          "name": "",
          "type": "uint256"
        }
      ],
      "stateMutability": "view",
      "type": "function",
      "constant": true
    },
    {
      "inputs": [
        {
          "internalType": "address",
          "name": "_address",
          "type": "address"
        }
      ],
      "name": "searchDoctorDate",
      "outputs": [
        {
          "internalType": "uint256",
          "name": "",
          "type": "uint256"
        }
      ],
      "stateMutability": "view",
      "type": "function",
      "constant": true
    },
    {
      "inputs": [
        {
          "internalType": "address",
          "name": "_address",
          "type": "address"
        }
      ],
      "name": "searchAppointmentDate",
      "outputs": [
        {
          "internalType": "uint256",
          "name": "",
          "type": "uint256"
        }
      ],
      "stateMutability": "view",
      "type": "function",
      "constant": true
    },
    {
      "inputs": [],
      "name": "getPatientCount",
      "outputs": [
        {
          "internalType": "uint32",
          "name": "",
          "type": "uint32"
        }
      ],
      "stateMutability": "view",
      "type": "function",
      "constant": true
    },
    {
      "inputs": [],
      "name": "getDoctorCount",
      "outputs": [
        {
          "internalType": "uint32",
          "name": "",
          "type": "uint32"
        }
      ],
      "stateMutability": "view",
      "type": "function",
      "constant": true
    },
    {
      "inputs": [],
      "name": "getAppointmentCount",
      "outputs": [
        {
          "internalType": "uint32",
          "name": "",
          "type": "uint32"
        }
      ],
      "stateMutability": "view",
      "type": "function",
      "constant": true
    },
    {
      "inputs": [],
      "name": "getPermissionGrantedCount",
      "outputs": [
        {
          "internalType": "uint32",
          "name": "",
          "type": "uint32"
        }
      ],
      "stateMutability": "view",
      "type": "function",
      "constant": true
    },
    {
      "inputs": [
        {
          "internalType": "address",
          "name": "_address",
          "type": "address"
        }
      ],
      "name": "getAppointmentPerPatient",
      "outputs": [
        {
          "internalType": "uint32",
          "name": "",
          "type": "uint32"
        }
      ],
      "stateMutability": "view",
      "type": "function",
      "constant": true
    }
  ],
  "bytecode": "0x60806040526000600b60006101000a81548163ffffffff021916908363ffffffff1602179055506000600b60046101000a81548163ffffffff021916908363ffffffff1602179055506000600b60086101000a81548163ffffffff021916908363ffffffff1602179055506000600b600c6101000a81548163ffffffff021916908363ffffffff16021790555034801561009857600080fd5b50336000806101000a81548173ffffffffffffffffffffffffffffffffffffffff021916908373ffffffffffffffffffffffffffffffffffffffff1602179055506157fc80620000e96000396000f3fe608060405234801561001057600080fd5b50600436106101e55760003560e01c80638db2fc951161010f578063babb1d41116100a2578063caee6c8511610071578063caee6c85146105cc578063e6fce0d214610601578063e93a15b914610631578063eebc3fb214610661576101e5565b8063babb1d4114610530578063bd6f972b14610560578063c0cb24ba14610590578063c190665b146105ae576101e5565b8063a0303c41116100de578063a0303c41146104bc578063a6d1ab4e146104da578063b13d5d94146104f6578063b198de6514610514576101e5565b80638db2fc95146104305780639080af671461044c578063920419821461046857806396b80d081461049e576101e5565b80633d391f701161018757806374e011421161015657806374e01142146103ba57806378522bc4146103d657806379111c1c146103f45780638da5cb5b14610412576101e5565b80633d391f701461030e57806341f97c091461033e5780634c14b38d1461035a578063625961fc1461038a576101e5565b806324c24b2b116101c357806324c24b2b1461026857806329e4afbb146102865780632a825ba0146102a45780633bc98280146102d9576101e5565b806302516abd146101ea578063127ca4b41461021a57806312ad1c371461024a575b600080fd5b61020460048036038101906101ff91906147b4565b61067f565b60405161021191906147fc565b60405180910390f35b610234600480360381019061022f919061484d565b61071e565b6040516102419190614889565b60405180910390f35b61025261075d565b60405161025f9190614962565b60405180910390f35b6102706107eb565b60405161027d91906149a3565b60405180910390f35b61028e610805565b60405161029b91906149a3565b60405180910390f35b6102be60048036038101906102b991906147b4565b61081f565b6040516102d096959493929190614a4e565b60405180910390f35b6102f360048036038101906102ee91906147b4565b61107a565b60405161030596959493929190614a4e565b60405180910390f35b610328600480360381019061032391906147b4565b611907565b60405161033591906147fc565b60405180910390f35b61035860048036038101906103539190614c0e565b6119e8565b005b610374600480360381019061036f91906147b4565b611c75565b6040516103819190614d52565b60405180910390f35b6103a4600480360381019061039f91906147b4565b612062565b6040516103b19190614d52565b60405180910390f35b6103d460048036038101906103cf9190614d6d565b61248b565b005b6103de61276e565b6040516103eb91906149a3565b60405180910390f35b6103fc612784565b60405161040991906149a3565b60405180910390f35b61041a61279e565b6040516104279190614889565b60405180910390f35b61044a60048036038101906104459190614e86565b6127c2565b005b61046660048036038101906104619190614d6d565b6129a8565b005b610482600480360381019061047d91906147b4565b612b60565b60405161049597969594939291906150ae565b60405180910390f35b6104a66133a7565b6040516104b39190614962565b60405180910390f35b6104c4613435565b6040516104d191906149a3565b60405180910390f35b6104f460048036038101906104ef9190614e86565b61344b565b005b6104fe6137cc565b60405161050b9190614962565b60405180910390f35b61052e60048036038101906105299190614c0e565b61385a565b005b61054a6004803603810190610545919061484d565b6139e1565b6040516105579190614889565b60405180910390f35b61057a600480360381019061057591906147b4565b613a20565b6040516105879190614d52565b60405180910390f35b6105986141b6565b6040516105a591906149a3565b60405180910390f35b6105b66141cc565b6040516105c391906149a3565b60405180910390f35b6105e660048036038101906105e191906147b4565b6141e6565b6040516105f896959493929190614a4e565b60405180910390f35b61061b6004803603810190610616919061484d565b614694565b6040516106289190614889565b60405180910390f35b61064b600480360381019061064691906147b4565b6146d3565b60405161065891906149a3565b60405180910390f35b61066961472c565b60405161067691906149a3565b60405180910390f35b600080600760003373ffffffffffffffffffffffffffffffffffffffff1673ffffffffffffffffffffffffffffffffffffffff16815260200190815260200160002060008473ffffffffffffffffffffffffffffffffffffffff1673ffffffffffffffffffffffffffffffffffffffff16815260200190815260200160002060006101000a81548160ff02191690831515021790555060019050919050565b6002818154811061072e57600080fd5b906000526020600020016000915054906101000a900473ffffffffffffffffffffffffffffffffffffffff1681565b606060018054806020026020016040519081016040528092919081815260200182805480156107e157602002820191906000526020600020905b8160009054906101000a900473ffffffffffffffffffffffffffffffffffffffff1673ffffffffffffffffffffffffffffffffffffffff1681526020019060010190808311610797575b5050505050905090565b6000600b600c9054906101000a900463ffffffff16905090565b6000600b60089054906101000a900463ffffffff16905090565b606080606080606080600760008873ffffffffffffffffffffffffffffffffffffffff1673ffffffffffffffffffffffffffffffffffffffff16815260200190815260200160002060003373ffffffffffffffffffffffffffffffffffffffff1673ffffffffffffffffffffffffffffffffffffffff16815260200190815260200160002060009054906101000a900460ff166108bb57600080fd5b6000600460008973ffffffffffffffffffffffffffffffffffffffff1673ffffffffffffffffffffffffffffffffffffffff168152602001908152602001600020604051806101c001604052908160008201805461091890615176565b80601f016020809104026020016040519081016040528092919081815260200182805461094490615176565b80156109915780601f1061096657610100808354040283529160200191610991565b820191906000526020600020905b81548152906001019060200180831161097457829003601f168201915b505050505081526020016001820180546109aa90615176565b80601f01602080910402602001604051908101604052809291908181526020018280546109d690615176565b8015610a235780601f106109f857610100808354040283529160200191610a23565b820191906000526020600020905b815481529060010190602001808311610a0657829003601f168201915b50505050508152602001600282018054610a3c90615176565b80601f0160208091040260200160405190810160405280929190818152602001828054610a6890615176565b8015610ab55780601f10610a8a57610100808354040283529160200191610ab5565b820191906000526020600020905b815481529060010190602001808311610a9857829003601f168201915b50505050508152602001600382018054610ace90615176565b80601f0160208091040260200160405190810160405280929190818152602001828054610afa90615176565b8015610b475780601f10610b1c57610100808354040283529160200191610b47565b820191906000526020600020905b815481529060010190602001808311610b2a57829003601f168201915b50505050508152602001600482018054610b6090615176565b80601f0160208091040260200160405190810160405280929190818152602001828054610b8c90615176565b8015610bd95780601f10610bae57610100808354040283529160200191610bd9565b820191906000526020600020905b815481529060010190602001808311610bbc57829003601f168201915b50505050508152602001600582018054610bf290615176565b80601f0160208091040260200160405190810160405280929190818152602001828054610c1e90615176565b8015610c6b5780601f10610c4057610100808354040283529160200191610c6b565b820191906000526020600020905b815481529060010190602001808311610c4e57829003601f168201915b50505050508152602001600682018054610c8490615176565b80601f0160208091040260200160405190810160405280929190818152602001828054610cb090615176565b8015610cfd5780601f10610cd257610100808354040283529160200191610cfd565b820191906000526020600020905b815481529060010190602001808311610ce057829003601f168201915b50505050508152602001600782018054610d1690615176565b80601f0160208091040260200160405190810160405280929190818152602001828054610d4290615176565b8015610d8f5780601f10610d6457610100808354040283529160200191610d8f565b820191906000526020600020905b815481529060010190602001808311610d7257829003601f168201915b50505050508152602001600882018054610da890615176565b80601f0160208091040260200160405190810160405280929190818152602001828054610dd490615176565b8015610e215780601f10610df657610100808354040283529160200191610e21565b820191906000526020600020905b815481529060010190602001808311610e0457829003601f168201915b50505050508152602001600982018054610e3a90615176565b80601f0160208091040260200160405190810160405280929190818152602001828054610e6690615176565b8015610eb35780601f10610e8857610100808354040283529160200191610eb3565b820191906000526020600020905b815481529060010190602001808311610e9657829003601f168201915b50505050508152602001600a82018054610ecc90615176565b80601f0160208091040260200160405190810160405280929190818152602001828054610ef890615176565b8015610f455780601f10610f1a57610100808354040283529160200191610f45565b820191906000526020600020905b815481529060010190602001808311610f2857829003601f168201915b50505050508152602001600b82018054610f5e90615176565b80601f0160208091040260200160405190810160405280929190818152602001828054610f8a90615176565b8015610fd75780601f10610fac57610100808354040283529160200191610fd7565b820191906000526020600020905b815481529060010190602001808311610fba57829003601f168201915b50505050508152602001600c820160009054906101000a900473ffffffffffffffffffffffffffffffffffffffff1673ffffffffffffffffffffffffffffffffffffffff1673ffffffffffffffffffffffffffffffffffffffff168152602001600d8201548152505090508060c001518160e001518261010001518361012001518461014001518561016001519650965096509650965096505091939550919395565b606080606080606080600760008873ffffffffffffffffffffffffffffffffffffffff1673ffffffffffffffffffffffffffffffffffffffff16815260200190815260200160002060003373ffffffffffffffffffffffffffffffffffffffff1673ffffffffffffffffffffffffffffffffffffffff16815260200190815260200160002060009054906101000a900460ff1661114c576040517f08c379a0000000000000000000000000000000000000000000000000000000008152600401611143906151f3565b60405180910390fd5b6000600460008973ffffffffffffffffffffffffffffffffffffffff1673ffffffffffffffffffffffffffffffffffffffff168152602001908152602001600020604051806101c00160405290816000820180546111a990615176565b80601f01602080910402602001604051908101604052809291908181526020018280546111d590615176565b80156112225780601f106111f757610100808354040283529160200191611222565b820191906000526020600020905b81548152906001019060200180831161120557829003601f168201915b5050505050815260200160018201805461123b90615176565b80601f016020809104026020016040519081016040528092919081815260200182805461126790615176565b80156112b45780601f10611289576101008083540402835291602001916112b4565b820191906000526020600020905b81548152906001019060200180831161129757829003601f168201915b505050505081526020016002820180546112cd90615176565b80601f01602080910402602001604051908101604052809291908181526020018280546112f990615176565b80156113465780601f1061131b57610100808354040283529160200191611346565b820191906000526020600020905b81548152906001019060200180831161132957829003601f168201915b5050505050815260200160038201805461135f90615176565b80601f016020809104026020016040519081016040528092919081815260200182805461138b90615176565b80156113d85780601f106113ad576101008083540402835291602001916113d8565b820191906000526020600020905b8154815290600101906020018083116113bb57829003601f168201915b505050505081526020016004820180546113f190615176565b80601f016020809104026020016040519081016040528092919081815260200182805461141d90615176565b801561146a5780601f1061143f5761010080835404028352916020019161146a565b820191906000526020600020905b81548152906001019060200180831161144d57829003601f168201915b5050505050815260200160058201805461148390615176565b80601f01602080910402602001604051908101604052809291908181526020018280546114af90615176565b80156114fc5780601f106114d1576101008083540402835291602001916114fc565b820191906000526020600020905b8154815290600101906020018083116114df57829003601f168201915b5050505050815260200160068201805461151590615176565b80601f016020809104026020016040519081016040528092919081815260200182805461154190615176565b801561158e5780601f106115635761010080835404028352916020019161158e565b820191906000526020600020905b81548152906001019060200180831161157157829003601f168201915b505050505081526020016007820180546115a790615176565b80601f01602080910402602001604051908101604052809291908181526020018280546115d390615176565b80156116205780601f106115f557610100808354040283529160200191611620565b820191906000526020600020905b81548152906001019060200180831161160357829003601f168201915b5050505050815260200160088201805461163990615176565b80601f016020809104026020016040519081016040528092919081815260200182805461166590615176565b80156116b25780601f10611687576101008083540402835291602001916116b2565b820191906000526020600020905b81548152906001019060200180831161169557829003601f168201915b505050505081526020016009820180546116cb90615176565b80601f01602080910402602001604051908101604052809291908181526020018280546116f790615176565b80156117445780601f1061171957610100808354040283529160200191611744565b820191906000526020600020905b81548152906001019060200180831161172757829003601f168201915b50505050508152602001600a8201805461175d90615176565b80601f016020809104026020016040519081016040528092919081815260200182805461178990615176565b80156117d65780601f106117ab576101008083540402835291602001916117d6565b820191906000526020600020905b8154815290600101906020018083116117b957829003601f168201915b50505050508152602001600b820180546117ef90615176565b80601f016020809104026020016040519081016040528092919081815260200182805461181b90615176565b80156118685780601f1061183d57610100808354040283529160200191611868565b820191906000526020600020905b81548152906001019060200180831161184b57829003601f168201915b50505050508152602001600c820160009054906101000a900473ffffffffffffffffffffffffffffffffffffffff1673ffffffffffffffffffffffffffffffffffffffff1673ffffffffffffffffffffffffffffffffffffffff168152602001600d820154815250509050806000015181602001518260400151836060015184608001518560a001519650965096509650965096505091939550919395565b60006001600760003373ffffffffffffffffffffffffffffffffffffffff1673ffffffffffffffffffffffffffffffffffffffff16815260200190815260200160002060008473ffffffffffffffffffffffffffffffffffffffff1673ffffffffffffffffffffffffffffffffffffffff16815260200190815260200160002060006101000a81548160ff021916908315150217905550600b600c81819054906101000a900463ffffffff16809291906119c090615242565b91906101000a81548163ffffffff021916908363ffffffff1602179055505060019050919050565b600960003373ffffffffffffffffffffffffffffffffffffffff1673ffffffffffffffffffffffffffffffffffffffff16815260200190815260200160002060009054906101000a900460ff1615611a75576040517f08c379a0000000000000000000000000000000000000000000000000000000008152600401611a6c906152e0565b60405180910390fd5b6000600560003373ffffffffffffffffffffffffffffffffffffffff1673ffffffffffffffffffffffffffffffffffffffff168152602001908152602001600020905086816000019081611ac991906154ac565b5085816001019081611adb91906154ac565b5084816002019081611aed91906154ac565b5083816003019081611aff91906154ac565b5082816004019081611b1191906154ac565b5081816005019081611b2391906154ac565b50338160060160006101000a81548173ffffffffffffffffffffffffffffffffffffffff021916908373ffffffffffffffffffffffffffffffffffffffff1602179055504281600701819055506002339080600181540180825580915050600190039060005260206000200160009091909190916101000a81548173ffffffffffffffffffffffffffffffffffffffff021916908373ffffffffffffffffffffffffffffffffffffffff1602179055506001600960003373ffffffffffffffffffffffffffffffffffffffff1673ffffffffffffffffffffffffffffffffffffffff16815260200190815260200160002060006101000a81548160ff021916908315150217905550600b600481819054906101000a900463ffffffff1680929190611c4d90615242565b91906101000a81548163ffffffff021916908363ffffffff1602179055505050505050505050565b600080600660008473ffffffffffffffffffffffffffffffffffffffff1673ffffffffffffffffffffffffffffffffffffffff168152602001908152602001600020604051806101000160405290816000820160009054906101000a900473ffffffffffffffffffffffffffffffffffffffff1673ffffffffffffffffffffffffffffffffffffffff1673ffffffffffffffffffffffffffffffffffffffff1681526020016001820160009054906101000a900473ffffffffffffffffffffffffffffffffffffffff1673ffffffffffffffffffffffffffffffffffffffff1673ffffffffffffffffffffffffffffffffffffffff168152602001600282018054611d7f90615176565b80601f0160208091040260200160405190810160405280929190818152602001828054611dab90615176565b8015611df85780601f10611dcd57610100808354040283529160200191611df8565b820191906000526020600020905b815481529060010190602001808311611ddb57829003601f168201915b50505050508152602001600382018054611e1190615176565b80601f0160208091040260200160405190810160405280929190818152602001828054611e3d90615176565b8015611e8a5780601f10611e5f57610100808354040283529160200191611e8a565b820191906000526020600020905b815481529060010190602001808311611e6d57829003601f168201915b50505050508152602001600482018054611ea390615176565b80601f0160208091040260200160405190810160405280929190818152602001828054611ecf90615176565b8015611f1c5780601f10611ef157610100808354040283529160200191611f1c565b820191906000526020600020905b815481529060010190602001808311611eff57829003601f168201915b50505050508152602001600582018054611f3590615176565b80601f0160208091040260200160405190810160405280929190818152602001828054611f6190615176565b8015611fae5780601f10611f8357610100808354040283529160200191611fae565b820191906000526020600020905b815481529060010190602001808311611f9157829003601f168201915b50505050508152602001600682018054611fc790615176565b80601f0160208091040260200160405190810160405280929190818152602001828054611ff390615176565b80156120405780601f1061201557610100808354040283529160200191612040565b820191906000526020600020905b81548152906001019060200180831161202357829003601f168201915b5050505050815260200160078201548152505090508060e00151915050919050565b600080600560008473ffffffffffffffffffffffffffffffffffffffff1673ffffffffffffffffffffffffffffffffffffffff168152602001908152602001600020604051806101000160405290816000820180546120c090615176565b80601f01602080910402602001604051908101604052809291908181526020018280546120ec90615176565b80156121395780601f1061210e57610100808354040283529160200191612139565b820191906000526020600020905b81548152906001019060200180831161211c57829003601f168201915b5050505050815260200160018201805461215290615176565b80601f016020809104026020016040519081016040528092919081815260200182805461217e90615176565b80156121cb5780601f106121a0576101008083540402835291602001916121cb565b820191906000526020600020905b8154815290600101906020018083116121ae57829003601f168201915b505050505081526020016002820180546121e490615176565b80601f016020809104026020016040519081016040528092919081815260200182805461221090615176565b801561225d5780601f106122325761010080835404028352916020019161225d565b820191906000526020600020905b81548152906001019060200180831161224057829003601f168201915b5050505050815260200160038201805461227690615176565b80601f01602080910402602001604051908101604052809291908181526020018280546122a290615176565b80156122ef5780601f106122c4576101008083540402835291602001916122ef565b820191906000526020600020905b8154815290600101906020018083116122d257829003601f168201915b5050505050815260200160048201805461230890615176565b80601f016020809104026020016040519081016040528092919081815260200182805461233490615176565b80156123815780601f1061235657610100808354040283529160200191612381565b820191906000526020600020905b81548152906001019060200180831161236457829003601f168201915b5050505050815260200160058201805461239a90615176565b80601f01602080910402602001604051908101604052809291908181526020018280546123c690615176565b80156124135780601f106123e857610100808354040283529160200191612413565b820191906000526020600020905b8154815290600101906020018083116123f657829003601f168201915b505050505081526020016006820160009054906101000a900473ffffffffffffffffffffffffffffffffffffffff1673ffffffffffffffffffffffffffffffffffffffff1673ffffffffffffffffffffffffffffffffffffffff16815260200160078201548152505090508060e00151915050919050565b600960003373ffffffffffffffffffffffffffffffffffffffff1673ffffffffffffffffffffffffffffffffffffffff16815260200190815260200160002060009054906101000a900460ff16612517576040517f08c379a000000000000000000000000000000000000000000000000000000000815260040161250e906155f0565b60405180910390fd5b6000600660008873ffffffffffffffffffffffffffffffffffffffff1673ffffffffffffffffffffffffffffffffffffffff1681526020019081526020016000209050338160000160006101000a81548173ffffffffffffffffffffffffffffffffffffffff021916908373ffffffffffffffffffffffffffffffffffffffff160217905550868160010160006101000a81548173ffffffffffffffffffffffffffffffffffffffff021916908373ffffffffffffffffffffffffffffffffffffffff160217905550858160020190816125f191906154ac565b508481600301908161260391906154ac565b508381600501908161261591906154ac565b508281600401908161262791906154ac565b508181600601908161263991906154ac565b504281600701819055506003879080600181540180825580915050600190039060005260206000200160009091909190916101000a81548173ffffffffffffffffffffffffffffffffffffffff021916908373ffffffffffffffffffffffffffffffffffffffff160217905550600b600881819054906101000a900463ffffffff16809291906126c890615242565b91906101000a81548163ffffffff021916908363ffffffff16021790555050600a60008873ffffffffffffffffffffffffffffffffffffffff1673ffffffffffffffffffffffffffffffffffffffff168152602001908152602001600020600081819054906101000a900463ffffffff168092919061274690615242565b91906101000a81548163ffffffff021916908363ffffffff1602179055505050505050505050565b600b60049054906101000a900463ffffffff1681565b6000600b60049054906101000a900463ffffffff16905090565b60008054906101000a900473ffffffffffffffffffffffffffffffffffffffff1681565b600860003373ffffffffffffffffffffffffffffffffffffffff1673ffffffffffffffffffffffffffffffffffffffff16815260200190815260200160002060009054906101000a900460ff1661284e576040517f08c379a000000000000000000000000000000000000000000000000000000000815260040161284590615682565b60405180910390fd5b6000600460003373ffffffffffffffffffffffffffffffffffffffff1673ffffffffffffffffffffffffffffffffffffffff16815260200190815260200160002090508b8160000190816128a291906154ac565b508a8160010190816128b491906154ac565b50898160020190816128c691906154ac565b50888160030190816128d891906154ac565b50878160040190816128ea91906154ac565b50868160050190816128fc91906154ac565b508581600601908161290e91906154ac565b508481600701908161292091906154ac565b508381600801908161293291906154ac565b508281600a01908161294491906154ac565b508181600b01908161295691906154ac565b503381600c0160006101000a81548173ffffffffffffffffffffffffffffffffffffffff021916908373ffffffffffffffffffffffffffffffffffffffff160217905550505050505050505050505050565b600960003373ffffffffffffffffffffffffffffffffffffffff1673ffffffffffffffffffffffffffffffffffffffff16815260200190815260200160002060009054906101000a900460ff16612a34576040517f08c379a0000000000000000000000000000000000000000000000000000000008152600401612a2b90615714565b60405180910390fd5b6000600660008873ffffffffffffffffffffffffffffffffffffffff1673ffffffffffffffffffffffffffffffffffffffff1681526020019081526020016000209050338160000160006101000a81548173ffffffffffffffffffffffffffffffffffffffff021916908373ffffffffffffffffffffffffffffffffffffffff160217905550868160010160006101000a81548173ffffffffffffffffffffffffffffffffffffffff021916908373ffffffffffffffffffffffffffffffffffffffff16021790555085816002019081612b0e91906154ac565b5084816003019081612b2091906154ac565b5083816005019081612b3291906154ac565b5082816004019081612b4491906154ac565b5081816006019081612b5691906154ac565b5050505050505050565b60006060806060806060806000600660008a73ffffffffffffffffffffffffffffffffffffffff1673ffffffffffffffffffffffffffffffffffffffff168152602001908152602001600020604051806101000160405290816000820160009054906101000a900473ffffffffffffffffffffffffffffffffffffffff1673ffffffffffffffffffffffffffffffffffffffff1673ffffffffffffffffffffffffffffffffffffffff1681526020016001820160009054906101000a900473ffffffffffffffffffffffffffffffffffffffff1673ffffffffffffffffffffffffffffffffffffffff1673ffffffffffffffffffffffffffffffffffffffff168152602001600282018054612c7490615176565b80601f0160208091040260200160405190810160405280929190818152602001828054612ca090615176565b8015612ced5780601f10612cc257610100808354040283529160200191612ced565b820191906000526020600020905b815481529060010190602001808311612cd057829003601f168201915b50505050508152602001600382018054612d0690615176565b80601f0160208091040260200160405190810160405280929190818152602001828054612d3290615176565b8015612d7f5780601f10612d5457610100808354040283529160200191612d7f565b820191906000526020600020905b815481529060010190602001808311612d6257829003601f168201915b50505050508152602001600482018054612d9890615176565b80601f0160208091040260200160405190810160405280929190818152602001828054612dc490615176565b8015612e115780601f10612de657610100808354040283529160200191612e11565b820191906000526020600020905b815481529060010190602001808311612df457829003601f168201915b50505050508152602001600582018054612e2a90615176565b80601f0160208091040260200160405190810160405280929190818152602001828054612e5690615176565b8015612ea35780601f10612e7857610100808354040283529160200191612ea3565b820191906000526020600020905b815481529060010190602001808311612e8657829003601f168201915b50505050508152602001600682018054612ebc90615176565b80601f0160208091040260200160405190810160405280929190818152602001828054612ee890615176565b8015612f355780601f10612f0a57610100808354040283529160200191612f35565b820191906000526020600020905b815481529060010190602001808311612f1857829003601f168201915b505050505081526020016007820154815250509050600060056000836000015173ffffffffffffffffffffffffffffffffffffffff1673ffffffffffffffffffffffffffffffffffffffff16815260200190815260200160002060405180610100016040529081600082018054612fab90615176565b80601f0160208091040260200160405190810160405280929190818152602001828054612fd790615176565b80156130245780601f10612ff957610100808354040283529160200191613024565b820191906000526020600020905b81548152906001019060200180831161300757829003601f168201915b5050505050815260200160018201805461303d90615176565b80601f016020809104026020016040519081016040528092919081815260200182805461306990615176565b80156130b65780601f1061308b576101008083540402835291602001916130b6565b820191906000526020600020905b81548152906001019060200180831161309957829003601f168201915b505050505081526020016002820180546130cf90615176565b80601f01602080910402602001604051908101604052809291908181526020018280546130fb90615176565b80156131485780601f1061311d57610100808354040283529160200191613148565b820191906000526020600020905b81548152906001019060200180831161312b57829003601f168201915b5050505050815260200160038201805461316190615176565b80601f016020809104026020016040519081016040528092919081815260200182805461318d90615176565b80156131da5780601f106131af576101008083540402835291602001916131da565b820191906000526020600020905b8154815290600101906020018083116131bd57829003601f168201915b505050505081526020016004820180546131f390615176565b80601f016020809104026020016040519081016040528092919081815260200182805461321f90615176565b801561326c5780601f106132415761010080835404028352916020019161326c565b820191906000526020600020905b81548152906001019060200180831161324f57829003601f168201915b5050505050815260200160058201805461328590615176565b80601f01602080910402602001604051908101604052809291908181526020018280546132b190615176565b80156132fe5780601f106132d3576101008083540402835291602001916132fe565b820191906000526020600020905b8154815290600101906020018083116132e157829003601f168201915b505050505081526020016006820160009054906101000a900473ffffffffffffffffffffffffffffffffffffffff1673ffffffffffffffffffffffffffffffffffffffff1673ffffffffffffffffffffffffffffffffffffffff168152602001600782015481525050905081600001518160000151836040015184606001518560a0015186608001518760c0015198509850985098509850985098505050919395979092949650565b6060600380548060200260200160405190810160405280929190818152602001828054801561342b57602002820191906000526020600020905b8160009054906101000a900473ffffffffffffffffffffffffffffffffffffffff1673ffffffffffffffffffffffffffffffffffffffff16815260200190600101908083116133e1575b5050505050905090565b600b60009054906101000a900463ffffffff1681565b600860003373ffffffffffffffffffffffffffffffffffffffff1673ffffffffffffffffffffffffffffffffffffffff16815260200190815260200160002060009054906101000a900460ff16156134d8576040517f08c379a00000000000000000000000000000000000000000000000000000000081526004016134cf906157a6565b60405180910390fd5b6000600460003373ffffffffffffffffffffffffffffffffffffffff1673ffffffffffffffffffffffffffffffffffffffff16815260200190815260200160002090508b81600001908161352c91906154ac565b508a81600101908161353e91906154ac565b508981600201908161355091906154ac565b508881600301908161356291906154ac565b508781600401908161357491906154ac565b508681600501908161358691906154ac565b508581600601908161359891906154ac565b50848160070190816135aa91906154ac565b50838160080190816135bc91906154ac565b508281600a0190816135ce91906154ac565b508181600b0190816135e091906154ac565b503381600c0160006101000a81548173ffffffffffffffffffffffffffffffffffffffff021916908373ffffffffffffffffffffffffffffffffffffffff1602179055504281600d01819055506001339080600181540180825580915050600190039060005260206000200160009091909190916101000a81548173ffffffffffffffffffffffffffffffffffffffff021916908373ffffffffffffffffffffffffffffffffffffffff1602179055506001600860003373ffffffffffffffffffffffffffffffffffffffff1673ffffffffffffffffffffffffffffffffffffffff16815260200190815260200160002060006101000a81548160ff0219169083151502179055506001600760003373ffffffffffffffffffffffffffffffffffffffff1673ffffffffffffffffffffffffffffffffffffffff16815260200190815260200160002060003373ffffffffffffffffffffffffffffffffffffffff1673ffffffffffffffffffffffffffffffffffffffff16815260200190815260200160002060006101000a81548160ff021916908315150217905550600b600081819054906101000a900463ffffffff168092919061379f90615242565b91906101000a81548163ffffffff021916908363ffffffff16021790555050505050505050505050505050565b6060600280548060200260200160405190810160405280929190818152602001828054801561385057602002820191906000526020600020905b8160009054906101000a900473ffffffffffffffffffffffffffffffffffffffff1673ffffffffffffffffffffffffffffffffffffffff1681526020019060010190808311613806575b5050505050905090565b600960003373ffffffffffffffffffffffffffffffffffffffff1673ffffffffffffffffffffffffffffffffffffffff16815260200190815260200160002060009054906101000a900460ff166138e6576040517f08c379a00000000000000000000000000000000000000000000000000000000081526004016138dd906155f0565b60405180910390fd5b6000600560003373ffffffffffffffffffffffffffffffffffffffff1673ffffffffffffffffffffffffffffffffffffffff16815260200190815260200160002090508681600001908161393a91906154ac565b508581600101908161394c91906154ac565b508481600201908161395e91906154ac565b508381600301908161397091906154ac565b508281600401908161398291906154ac565b508181600501908161399491906154ac565b50338160060160006101000a81548173ffffffffffffffffffffffffffffffffffffffff021916908373ffffffffffffffffffffffffffffffffffffffff16021790555050505050505050565b600181815481106139f157600080fd5b906000526020600020016000915054906101000a900473ffffffffffffffffffffffffffffffffffffffff1681565b600080600460008473ffffffffffffffffffffffffffffffffffffffff1673ffffffffffffffffffffffffffffffffffffffff168152602001908152602001600020604051806101c0016040529081600082018054613a7e90615176565b80601f0160208091040260200160405190810160405280929190818152602001828054613aaa90615176565b8015613af75780601f10613acc57610100808354040283529160200191613af7565b820191906000526020600020905b815481529060010190602001808311613ada57829003601f168201915b50505050508152602001600182018054613b1090615176565b80601f0160208091040260200160405190810160405280929190818152602001828054613b3c90615176565b8015613b895780601f10613b5e57610100808354040283529160200191613b89565b820191906000526020600020905b815481529060010190602001808311613b6c57829003601f168201915b50505050508152602001600282018054613ba290615176565b80601f0160208091040260200160405190810160405280929190818152602001828054613bce90615176565b8015613c1b5780601f10613bf057610100808354040283529160200191613c1b565b820191906000526020600020905b815481529060010190602001808311613bfe57829003601f168201915b50505050508152602001600382018054613c3490615176565b80601f0160208091040260200160405190810160405280929190818152602001828054613c6090615176565b8015613cad5780601f10613c8257610100808354040283529160200191613cad565b820191906000526020600020905b815481529060010190602001808311613c9057829003601f168201915b50505050508152602001600482018054613cc690615176565b80601f0160208091040260200160405190810160405280929190818152602001828054613cf290615176565b8015613d3f5780601f10613d1457610100808354040283529160200191613d3f565b820191906000526020600020905b815481529060010190602001808311613d2257829003601f168201915b50505050508152602001600582018054613d5890615176565b80601f0160208091040260200160405190810160405280929190818152602001828054613d8490615176565b8015613dd15780601f10613da657610100808354040283529160200191613dd1565b820191906000526020600020905b815481529060010190602001808311613db457829003601f168201915b50505050508152602001600682018054613dea90615176565b80601f0160208091040260200160405190810160405280929190818152602001828054613e1690615176565b8015613e635780601f10613e3857610100808354040283529160200191613e63565b820191906000526020600020905b815481529060010190602001808311613e4657829003601f168201915b50505050508152602001600782018054613e7c90615176565b80601f0160208091040260200160405190810160405280929190818152602001828054613ea890615176565b8015613ef55780601f10613eca57610100808354040283529160200191613ef5565b820191906000526020600020905b815481529060010190602001808311613ed857829003601f168201915b50505050508152602001600882018054613f0e90615176565b80601f0160208091040260200160405190810160405280929190818152602001828054613f3a90615176565b8015613f875780601f10613f5c57610100808354040283529160200191613f87565b820191906000526020600020905b815481529060010190602001808311613f6a57829003601f168201915b50505050508152602001600982018054613fa090615176565b80601f0160208091040260200160405190810160405280929190818152602001828054613fcc90615176565b80156140195780601f10613fee57610100808354040283529160200191614019565b820191906000526020600020905b815481529060010190602001808311613ffc57829003601f168201915b50505050508152602001600a8201805461403290615176565b80601f016020809104026020016040519081016040528092919081815260200182805461405e90615176565b80156140ab5780601f10614080576101008083540402835291602001916140ab565b820191906000526020600020905b81548152906001019060200180831161408e57829003601f168201915b50505050508152602001600b820180546140c490615176565b80601f01602080910402602001604051908101604052809291908181526020018280546140f090615176565b801561413d5780601f106141125761010080835404028352916020019161413d565b820191906000526020600020905b81548152906001019060200180831161412057829003601f168201915b50505050508152602001600c820160009054906101000a900473ffffffffffffffffffffffffffffffffffffffff1673ffffffffffffffffffffffffffffffffffffffff1673ffffffffffffffffffffffffffffffffffffffff168152602001600d820154815250509050806101a00151915050919050565b600b600c9054906101000a900463ffffffff1681565b6000600b60009054906101000a900463ffffffff16905090565b606080606080606080600960008873ffffffffffffffffffffffffffffffffffffffff1673ffffffffffffffffffffffffffffffffffffffff16815260200190815260200160002060009054906101000a900460ff1661424557600080fd5b6000600560008973ffffffffffffffffffffffffffffffffffffffff1673ffffffffffffffffffffffffffffffffffffffff168152602001908152602001600020604051806101000160405290816000820180546142a290615176565b80601f01602080910402602001604051908101604052809291908181526020018280546142ce90615176565b801561431b5780601f106142f05761010080835404028352916020019161431b565b820191906000526020600020905b8154815290600101906020018083116142fe57829003601f168201915b5050505050815260200160018201805461433490615176565b80601f016020809104026020016040519081016040528092919081815260200182805461436090615176565b80156143ad5780601f10614382576101008083540402835291602001916143ad565b820191906000526020600020905b81548152906001019060200180831161439057829003601f168201915b505050505081526020016002820180546143c690615176565b80601f01602080910402602001604051908101604052809291908181526020018280546143f290615176565b801561443f5780601f106144145761010080835404028352916020019161443f565b820191906000526020600020905b81548152906001019060200180831161442257829003601f168201915b5050505050815260200160038201805461445890615176565b80601f016020809104026020016040519081016040528092919081815260200182805461448490615176565b80156144d15780601f106144a6576101008083540402835291602001916144d1565b820191906000526020600020905b8154815290600101906020018083116144b457829003601f168201915b505050505081526020016004820180546144ea90615176565b80601f016020809104026020016040519081016040528092919081815260200182805461451690615176565b80156145635780601f1061453857610100808354040283529160200191614563565b820191906000526020600020905b81548152906001019060200180831161454657829003601f168201915b5050505050815260200160058201805461457c90615176565b80601f01602080910402602001604051908101604052809291908181526020018280546145a890615176565b80156145f55780601f106145ca576101008083540402835291602001916145f5565b820191906000526020600020905b8154815290600101906020018083116145d857829003601f168201915b505050505081526020016006820160009054906101000a900473ffffffffffffffffffffffffffffffffffffffff1673ffffffffffffffffffffffffffffffffffffffff1673ffffffffffffffffffffffffffffffffffffffff1681526020016007820154815250509050806000015181602001518260400151836060015184608001518560a001519650965096509650965096505091939550919395565b600381815481106146a457600080fd5b906000526020600020016000915054906101000a900473ffffffffffffffffffffffffffffffffffffffff1681565b6000600a60008373ffffffffffffffffffffffffffffffffffffffff1673ffffffffffffffffffffffffffffffffffffffff16815260200190815260200160002060009054906101000a900463ffffffff169050919050565b600b60089054906101000a900463ffffffff1681565b6000604051905090565b600080fd5b600080fd5b600073ffffffffffffffffffffffffffffffffffffffff82169050919050565b600061478182614756565b9050919050565b61479181614776565b811461479c57600080fd5b50565b6000813590506147ae81614788565b92915050565b6000602082840312156147ca576147c961474c565b5b60006147d88482850161479f565b91505092915050565b60008115159050919050565b6147f6816147e1565b82525050565b600060208201905061481160008301846147ed565b92915050565b6000819050919050565b61482a81614817565b811461483557600080fd5b50565b60008135905061484781614821565b92915050565b6000602082840312156148635761486261474c565b5b600061487184828501614838565b91505092915050565b61488381614776565b82525050565b600060208201905061489e600083018461487a565b92915050565b600081519050919050565b600082825260208201905092915050565b6000819050602082019050919050565b6148d981614776565b82525050565b60006148eb83836148d0565b60208301905092915050565b6000602082019050919050565b600061490f826148a4565b61491981856148af565b9350614924836148c0565b8060005b8381101561495557815161493c88826148df565b9750614947836148f7565b925050600181019050614928565b5085935050505092915050565b6000602082019050818103600083015261497c8184614904565b905092915050565b600063ffffffff82169050919050565b61499d81614984565b82525050565b60006020820190506149b86000830184614994565b92915050565b600081519050919050565b600082825260208201905092915050565b60005b838110156149f85780820151818401526020810190506149dd565b60008484015250505050565b6000601f19601f8301169050919050565b6000614a20826149be565b614a2a81856149c9565b9350614a3a8185602086016149da565b614a4381614a04565b840191505092915050565b600060c0820190508181036000830152614a688189614a15565b90508181036020830152614a7c8188614a15565b90508181036040830152614a908187614a15565b90508181036060830152614aa48186614a15565b90508181036080830152614ab88185614a15565b905081810360a0830152614acc8184614a15565b9050979650505050505050565b600080fd5b600080fd5b7f4e487b7100000000000000000000000000000000000000000000000000000000600052604160045260246000fd5b614b1b82614a04565b810181811067ffffffffffffffff82111715614b3a57614b39614ae3565b5b80604052505050565b6000614b4d614742565b9050614b598282614b12565b919050565b600067ffffffffffffffff821115614b7957614b78614ae3565b5b614b8282614a04565b9050602081019050919050565b82818337600083830152505050565b6000614bb1614bac84614b5e565b614b43565b905082815260208101848484011115614bcd57614bcc614ade565b5b614bd8848285614b8f565b509392505050565b600082601f830112614bf557614bf4614ad9565b5b8135614c05848260208601614b9e565b91505092915050565b60008060008060008060c08789031215614c2b57614c2a61474c565b5b600087013567ffffffffffffffff811115614c4957614c48614751565b5b614c5589828a01614be0565b965050602087013567ffffffffffffffff811115614c7657614c75614751565b5b614c8289828a01614be0565b955050604087013567ffffffffffffffff811115614ca357614ca2614751565b5b614caf89828a01614be0565b945050606087013567ffffffffffffffff811115614cd057614ccf614751565b5b614cdc89828a01614be0565b935050608087013567ffffffffffffffff811115614cfd57614cfc614751565b5b614d0989828a01614be0565b92505060a087013567ffffffffffffffff811115614d2a57614d29614751565b5b614d3689828a01614be0565b9150509295509295509295565b614d4c81614817565b82525050565b6000602082019050614d676000830184614d43565b92915050565b60008060008060008060c08789031215614d8a57614d8961474c565b5b6000614d9889828a0161479f565b965050602087013567ffffffffffffffff811115614db957614db8614751565b5b614dc589828a01614be0565b955050604087013567ffffffffffffffff811115614de657614de5614751565b5b614df289828a01614be0565b945050606087013567ffffffffffffffff811115614e1357614e12614751565b5b614e1f89828a01614be0565b935050608087013567ffffffffffffffff811115614e4057614e3f614751565b5b614e4c89828a01614be0565b92505060a087013567ffffffffffffffff811115614e6d57614e6c614751565b5b614e7989828a01614be0565b9150509295509295509295565b60008060008060008060008060008060006101608c8e031215614eac57614eab61474c565b5b60008c013567ffffffffffffffff811115614eca57614ec9614751565b5b614ed68e828f01614be0565b9b505060208c013567ffffffffffffffff811115614ef757614ef6614751565b5b614f038e828f01614be0565b9a505060408c013567ffffffffffffffff811115614f2457614f23614751565b5b614f308e828f01614be0565b99505060608c013567ffffffffffffffff811115614f5157614f50614751565b5b614f5d8e828f01614be0565b98505060808c013567ffffffffffffffff811115614f7e57614f7d614751565b5b614f8a8e828f01614be0565b97505060a08c013567ffffffffffffffff811115614fab57614faa614751565b5b614fb78e828f01614be0565b96505060c08c013567ffffffffffffffff811115614fd857614fd7614751565b5b614fe48e828f01614be0565b95505060e08c013567ffffffffffffffff81111561500557615004614751565b5b6150118e828f01614be0565b9450506101008c013567ffffffffffffffff81111561503357615032614751565b5b61503f8e828f01614be0565b9350506101208c013567ffffffffffffffff81111561506157615060614751565b5b61506d8e828f01614be0565b9250506101408c013567ffffffffffffffff81111561508f5761508e614751565b5b61509b8e828f01614be0565b9150509295989b509295989b9093969950565b600060e0820190506150c3600083018a61487a565b81810360208301526150d58189614a15565b905081810360408301526150e98188614a15565b905081810360608301526150fd8187614a15565b905081810360808301526151118186614a15565b905081810360a08301526151258185614a15565b905081810360c08301526151398184614a15565b905098975050505050505050565b7f4e487b7100000000000000000000000000000000000000000000000000000000600052602260045260246000fd5b6000600282049050600182168061518e57607f821691505b6020821081036151a1576151a0615147565b5b50919050565b7f4163636573732064656e69656400000000000000000000000000000000000000600082015250565b60006151dd600d836149c9565b91506151e8826151a7565b602082019050919050565b6000602082019050818103600083015261520c816151d0565b9050919050565b7f4e487b7100000000000000000000000000000000000000000000000000000000600052601160045260246000fd5b600061524d82614984565b915063ffffffff820361526357615262615213565b5b600182019050919050565b7f2054686973206164647265737320697320616c7265616479206120646f63746f60008201527f7200000000000000000000000000000000000000000000000000000000000000602082015250565b60006152ca6021836149c9565b91506152d58261526e565b604082019050919050565b600060208201905081810360008301526152f9816152bd565b9050919050565b60008190508160005260206000209050919050565b60006020601f8301049050919050565b600082821b905092915050565b6000600883026153627fffffffffffffffffffffffffffffffffffffffffffffffffffffffffffffffff82615325565b61536c8683615325565b95508019841693508086168417925050509392505050565b6000819050919050565b60006153a96153a461539f84614817565b615384565b614817565b9050919050565b6000819050919050565b6153c38361538e565b6153d76153cf826153b0565b848454615332565b825550505050565b600090565b6153ec6153df565b6153f78184846153ba565b505050565b5b8181101561541b576154106000826153e4565b6001810190506153fd565b5050565b601f8211156154605761543181615300565b61543a84615315565b81016020851015615449578190505b61545d61545585615315565b8301826153fc565b50505b505050565b600082821c905092915050565b600061548360001984600802615465565b1980831691505092915050565b600061549c8383615472565b9150826002028217905092915050565b6154b5826149be565b67ffffffffffffffff8111156154ce576154cd614ae3565b5b6154d88254615176565b6154e382828561541f565b600060209050601f8311600181146155165760008415615504578287015190505b61550e8582615490565b865550615576565b601f19841661552486615300565b60005b8281101561554c57848901518255600182019150602085019450602081019050615527565b868310156155695784890151615565601f891682615472565b8355505b6001600288020188555050505b505050505050565b7f54686973206164647265737320646f6573206e6f742068617665207065726d6960008201527f7373696f6e200000000000000000000000000000000000000000000000000000602082015250565b60006155da6026836149c9565b91506155e58261557e565b604082019050919050565b60006020820190508181036000830152615609816155cd565b9050919050565b7f54686973206164647265737320646f6573206e6f742068617665207065726d6960008201527f7373696f6e000000000000000000000000000000000000000000000000000000602082015250565b600061566c6025836149c9565b915061567782615610565b604082019050919050565b6000602082019050818103600083015261569b8161565f565b9050919050565b7f54686973206164647265737320646f6573206e6f742068617665207065726d6960008201527f7373696f6e20746f20757064617465206e6577206170706f696e746d656e7473602082015250565b60006156fe6040836149c9565b9150615709826156a2565b604082019050919050565b6000602082019050818103600083015261572d816156f1565b9050919050565b7f54686973206164647265737320697320616c726561647920612070617469656e60008201527f7400000000000000000000000000000000000000000000000000000000000000602082015250565b60006157906021836149c9565b915061579b82615734565b604082019050919050565b600060208201905081810360008301526157bf81615783565b905091905056fea2646970667358221220206b87df7643c8d3e7ad64cc516c88eff1e8dd212f5369cc0bcca169605296d864736f6c63430008130033",
  "immutableReferences": {},
  "source": "// SPDX-License-Identifier: MIT\r\npragma solidity ^0.8.19;\r\n\r\ncontract RecordHealthCare {\r\n    // Datatype user-defined\r\n    struct Patients {\r\n        // The name of the patient\r\n        string name;\r\n        // The patient's contact phone number\r\n        string phone;\r\n        // The gender of the patient(e.g,\"Male\" or \"Female)\r\n        string gender;\r\n        // The patient's date of birth\r\n        string dob;\r\n        //The patient's height, which could be in a specific unit of measurement like centimeters\r\n        string height;\r\n        //The patient's weight, typically measured in kilograms\r\n        string weight;\r\n        // The patient's residential address, which includes details about their home location.\r\n        string houseaddr;\r\n        // The patient's blood group (e.g., \"A+\", \"B-\", etc.).\r\n        string bloodgroup;\r\n        // Any allergirs that thw patient may have, such as food allergies or drug allergies\r\n        string allergies;\r\n        // Information the patient is currently taking or has taken.\r\n        string medication;\r\n        // The name of the person to contact in case of an emergency.\r\n        string emergencyName;\r\n        // The contact information (e.g., phone number) for the emergency contact person.\r\n        string emergencyContact;\r\n        // The Ethereum address of the patient\r\n        address addr;\r\n        // A timestamp or date associated with the patient's record\r\n        uint256 date;\r\n    }\r\n    struct Doctors {\r\n        // The name of the doctor\r\n        string name;\r\n        // The contact phone number of the doctor.\r\n        string phone;\r\n        // The gender of the doctor (e.g., \"Male\" or \"Female\").\r\n        string gender;\r\n        // The doctor's date of birth.\r\n        string dob;\r\n        //  Information about the doctor's professional qualifications or degrees, indicating their level of education and specialization.\r\n        string qualification;\r\n        // The major or specialization area of the doctor's medical practice\r\n        string major;\r\n        // The Ethereum address of the doctor\r\n        address addr;\r\n        // A timestamp or date associated with the doctor's record, indicating when the information was recorded or last updated.\r\n        uint256 date;\r\n    }\r\n    struct Appointments {\r\n        // The ethereum address of the doctor involved in the appointment\r\n        address doctoraddr;\r\n        // The ethereum address of the patient involved in the appointment\r\n        address patientaddr;\r\n        // Storing the date and time of the appointment.\r\n        string date;\r\n        string time;\r\n        // For holding medical information related to the appointment.\r\n        string description;\r\n        string diagnosis;\r\n        string status;\r\n        // Representing the timestamp when the appointment record was created.\r\n        uint256 creationDate;\r\n    }\r\n\r\n    // Define arrray contain patient, doctor, appointments\r\n    address public owner;\r\n    address[] public patientList;\r\n    address[] public doctorList;\r\n    address[] public appointmentList;\r\n\r\n    mapping(address => Patients) patients;\r\n    mapping(address => Doctors) doctors;\r\n    mapping(address => Appointments) appointments;\r\n\r\n    mapping(address => mapping(address => bool)) isApproved;\r\n    mapping(address => bool) isPatient;\r\n    mapping(address => bool) isDoctor;\r\n    mapping(address => uint32) AppointmentPerPatient;\r\n\r\n    // Define original value of a number of patient, doctor, appointment = 0,\r\n    uint32 public patientCount = 0;\r\n    uint32 public doctorCount = 0;\r\n    uint32 public appointmentCount = 0;\r\n    uint32 public permissionGrantedCount = 0;\r\n\r\n    // Define modifiers to check that an account can perform a specific function\r\n    modifier onlyDoctor() {\r\n        require(isDoctor[msg.sender], \"This address does not have permission \");\r\n        _;\r\n    }\r\n    modifier onlyPatient() {\r\n        require(isPatient[msg.sender], \"This address does not have permission\");\r\n        _;\r\n    }\r\n\r\n    constructor() {\r\n        owner = msg.sender;\r\n    }\r\n\r\n    //Retrieve patient details from user sign up page and store the details into the blockchain\r\n    function setDetailsPatient(\r\n        string memory _name,\r\n        string memory _phone,\r\n        string memory _gender,\r\n        string memory _dob,\r\n        string memory _height,\r\n        string memory _weight,\r\n        string memory _houseaddr,\r\n        string memory _bloodgroup,\r\n        string memory _allergies,\r\n        string memory _emergencyName,\r\n        string memory _emergencyContact\r\n    ) public {\r\n        require(!isPatient[msg.sender], \"This address is already a patient\");\r\n        Patients storage p = patients[msg.sender];\r\n        p.name = _name;\r\n        p.phone = _phone;\r\n        p.gender = _gender;\r\n        p.dob = _dob;\r\n        p.height = _height;\r\n        p.weight = _weight;\r\n        p.houseaddr = _houseaddr;\r\n        p.bloodgroup = _bloodgroup;\r\n        p.allergies = _allergies;\r\n        p.emergencyName = _emergencyName;\r\n        p.emergencyContact = _emergencyContact;\r\n        p.addr = msg.sender;\r\n        p.date = block.timestamp;\r\n        patientList.push(msg.sender);\r\n        isPatient[msg.sender] = true;\r\n        isApproved[msg.sender][msg.sender] = true;\r\n        patientCount++;\r\n    }\r\n    // Allows patient to edit their existing record\r\n    function editDetailsPatient(\r\n        string memory _name,\r\n        string memory _phone,\r\n        string memory _gender,\r\n        string memory _dob,\r\n        string memory _height,\r\n        string memory _weight,\r\n        string memory _houseaddr,\r\n        string memory _bloodgroup,\r\n        string memory _allergies,\r\n        string memory _emergencyName,\r\n        string memory _emergencyContact\r\n    ) public onlyPatient {\r\n        Patients storage p = patients[msg.sender];\r\n        p.name = _name;\r\n        p.phone = _phone;\r\n        p.gender = _gender;\r\n        p.dob = _dob;\r\n        p.height = _height;\r\n        p.weight = _weight;\r\n        p.houseaddr = _houseaddr;\r\n        p.bloodgroup = _bloodgroup;\r\n        p.allergies = _allergies;\r\n        p.emergencyName = _emergencyName;\r\n        p.emergencyContact = _emergencyContact;\r\n        p.addr = msg.sender;\r\n    }\r\n\r\n    // Retrieve patient details from doctor registration page and store details into the blockchain\r\n    function setDoctor(\r\n        string memory _name,\r\n        string memory _phone,\r\n        string memory _gender,\r\n        string memory _dob,\r\n        string memory _qualification,\r\n        string memory _major\r\n    ) public {\r\n        require(!isDoctor[msg.sender], \" This address is already a doctor\");\r\n        Doctors storage d = doctors[msg.sender];\r\n        d.name = _name;\r\n        d.phone = _phone;\r\n        d.gender = _gender;\r\n        d.dob = _dob;\r\n        d.qualification = _qualification;\r\n        d.major = _major;\r\n        d.addr = msg.sender;\r\n        d.date = block.timestamp;\r\n        doctorList.push(msg.sender);\r\n        isDoctor[msg.sender] = true;\r\n        doctorCount++;\r\n    }\r\n\r\n    // Allows doctors to edit their existing profile\r\n    function editDoctor(\r\n        string memory _name,\r\n        string memory _phone,\r\n        string memory _gender,\r\n        string memory _dob,\r\n        string memory _qualification,\r\n        string memory _major\r\n    ) public onlyDoctor {\r\n        Doctors storage d = doctors[msg.sender];\r\n        d.name = _name;\r\n        d.phone = _phone;\r\n        d.gender = _gender;\r\n        d.dob = _dob;\r\n        d.qualification = _qualification;\r\n        d.major = _major;\r\n        d.addr = msg.sender;\r\n    }\r\n\r\n    // Retrieve appointment details from appointment page and store the details into the blockchain\r\n    function setAppointment(\r\n        address _addr,\r\n        string memory _date,\r\n        string memory _time,\r\n        string memory _diagnosis,\r\n        string memory _description,\r\n        string memory _status\r\n    ) public onlyDoctor {\r\n        Appointments storage a = appointments[_addr];\r\n        a.doctoraddr = msg.sender;\r\n        a.patientaddr = _addr;\r\n        a.date = _date;\r\n        a.time = _time;\r\n        a.diagnosis = _diagnosis;\r\n        a.description = _description;\r\n        a.status = _status;\r\n        a.creationDate = block.timestamp;\r\n        appointmentList.push(_addr);\r\n        appointmentCount++;\r\n        AppointmentPerPatient[_addr]++;\r\n    }\r\n\r\n    function updateAppointment(\r\n        address _addr,\r\n        string memory _date,\r\n        string memory _time,\r\n        string memory _diagnosis,\r\n        string memory _description,\r\n        string memory _status\r\n    ) public {\r\n        require(\r\n            isDoctor[msg.sender],\r\n            \"This address does not have permission to update new appointments\"\r\n        );\r\n        Appointments storage a = appointments[_addr];\r\n        a.doctoraddr = msg.sender;\r\n        a.patientaddr = _addr;\r\n        a.date = _date;\r\n        a.time = _time;\r\n        a.diagnosis = _diagnosis;\r\n\r\n        a.description = _description;\r\n        a.status = _status;\r\n    }\r\n\r\n    //Owner of the record must give permission to doctor only they are allowed to view records\r\n    //Hm 'givePermission' c s dng  cho php ch s hu ca hp ng thng minh cp quyn truy cp cho mt bc s c th  xem h s ca bnh nhn\r\n    function givePermission(address _address) public returns (bool success) {\r\n        // Dng m ny thc hin vic cp quyn truy cp cho bc s. N t gi tr lin quan n a ch'_address' ca bc s trong mapping 'isApproved' thnh 'true'\r\n        // iu ny c ngha l bc s  c quyn truy cp vo h s ca bnh nhn.\r\n        isApproved[msg.sender][_address] = true;\r\n        //  Dng m ny tng bin permissionGrantedCount ln mt n v.  c s dng vi mc ch  theo di s lng quyn truy cp  c cp\r\n        permissionGrantedCount++;\r\n        //  Hm tr v true  bo hiu rng vic cp quyn truy cp  c thc hin thnh cng\r\n        return true;\r\n    }\r\n\r\n    // Owner of the record can take away the permission granted to doctors to view records\r\n    // cho php ch s hu h s thu hi quyn truy cp  cp cho cc bc s xem h s\r\n    function RevokePermission(address _address) public returns (bool success) {\r\n        // Dng m ny thc hin vic thu hi quyn truy cp.\r\n        // N thit lp gi tr lin quan n a ch ca bc s '_address' trong mapping 'isApproved' thnh 'false'\r\n        // Mapping isApproved c kh nng lu tr thng tin v vic liu bc s c quyn xem h s ca bnh nhn hay khng\r\n        // t bng false => Quyn truy cp b thu hi\r\n        isApproved[msg.sender][_address] = false;\r\n        // : Dng m ny cho bit rng vic thc thi hm  thnh cng v n tr v true  ch ra rng vic thu hi quyn truy cp  c thc hin thnh cng.\r\n        return true;\r\n    }\r\n\r\n    //Retrieve a list of all patients address\r\n    function getPatients() public view returns (address[] memory) {\r\n        return patientList;\r\n    }\r\n\r\n    // Retrieve a list of all doctors address\r\n    function getDoctors() public view returns (address[] memory) {\r\n        return doctorList;\r\n    }\r\n\r\n    // Retrieve a list of all appointments address\r\n    function getAppointments() public view returns (address[] memory) {\r\n        return appointmentList;\r\n    }\r\n\r\n    //Search patient details by entering a patient address (Only record owner or doctor with permission will be allowed to access)\r\n    function searchPatientDemographic(\r\n        address _address\r\n    )\r\n        public\r\n        view\r\n        returns (\r\n            string memory,\r\n            string memory,\r\n            string memory,\r\n            string memory,\r\n            string memory,\r\n            string memory\r\n        )\r\n    {\r\n        require(isApproved[_address][msg.sender], \"Access denied\");\r\n        Patients memory p = patients[_address];\r\n        return (p.name, p.phone, p.gender, p.dob, p.height, p.weight);\r\n    }\r\n\r\n    //Search patient details by entering a patient address(Only record owner or doctor with permission will be allowed to access)\r\n    function searchPatientMedical(\r\n        address _address\r\n    )\r\n        public\r\n        view\r\n        returns (\r\n            string memory,\r\n            string memory,\r\n            string memory,\r\n            string memory,\r\n            string memory,\r\n            string memory\r\n        )\r\n    {\r\n        require(isApproved[_address][msg.sender]);\r\n        Patients memory p = patients[_address];\r\n        return (\r\n            p.houseaddr,\r\n            p.bloodgroup,\r\n            p.allergies,\r\n            p.medication,\r\n            p.emergencyName,\r\n            p.emergencyContact\r\n        );\r\n    }\r\n\r\n    // Search doctor details by entering a doctor address ( Only doctor will allowed to access )\r\n    function searchDoctor(\r\n        address _address\r\n    )\r\n        public\r\n        view\r\n        returns (\r\n            string memory,\r\n            string memory,\r\n            string memory,\r\n            string memory,\r\n            string memory,\r\n            string memory\r\n        )\r\n    {\r\n        require(isDoctor[_address]);\r\n        Doctors memory d = doctors[_address];\r\n        return (d.name, d.phone, d.gender, d.dob, d.qualification, d.major);\r\n    }\r\n\r\n    // Search appointment details by entering a patient address\r\n    function searchAppointment(\r\n        address _address\r\n    )\r\n        public\r\n        view\r\n        returns (\r\n            address,\r\n            string memory,\r\n            string memory,\r\n            string memory,\r\n            string memory,\r\n            string memory,\r\n            string memory\r\n        )\r\n    {\r\n        // Use memory for reading appointment data\r\n        Appointments memory a = appointments[_address];\r\n\r\n        // Use memory for reading doctor data\r\n        Doctors memory d = doctors[a.doctoraddr];\r\n\r\n        return (\r\n            a.doctoraddr,\r\n            d.name,\r\n            a.date,\r\n            a.time,\r\n            a.diagnosis,\r\n            a.description,\r\n            a.status\r\n        );\r\n    }\r\n\r\n    // Search patient record creation date by entering a patient address\r\n    function searchRecordDate(address _address) public view returns (uint) {\r\n        Patients memory p = patients[_address];\r\n        return (p.date);\r\n    }\r\n\r\n    //Search doctor profile creation date by entering a doctor address\r\n    function searchDoctorDate(address _address) public view returns (uint) {\r\n        Doctors memory d = doctors[_address];\r\n\r\n        return (d.date);\r\n    }\r\n\r\n    // Search appointment creation date by entering a patient address\r\n    function searchAppointmentDate(\r\n        address _address\r\n    ) public view returns (uint) {\r\n        Appointments memory a = appointments[_address];\r\n        return (a.creationDate);\r\n    }\r\n\r\n    // Retrieve patient count\r\n    function getPatientCount() public view returns (uint32) {\r\n        return patientCount;\r\n    }\r\n\r\n    // Retrieve doctor count\r\n    function getDoctorCount() public view returns (uint32) {\r\n        return doctorCount;\r\n    }\r\n\r\n    //Retrieve appointment count\r\n    function getAppointmentCount() public view returns (uint32) {\r\n        return appointmentCount;\r\n    }\r\n\r\n    //Retrieve permission granted count\r\n    function getPermissionGrantedCount() public view returns (uint32) {\r\n        return permissionGrantedCount;\r\n    }\r\n\r\n    //Retrieve permission granted count\r\n    function getAppointmentPerPatient(\r\n        address _address\r\n    ) public view returns (uint32) {\r\n        return AppointmentPerPatient[_address];\r\n    }\r\n}",
  "sourcePath": "D:\\PROJECT_BLOCKCHAIN\\blockchain\\ethereum\\contracts\\RecordHealthData.sol",
  "compiler": {
    "name": "solc",
    "version": "0.8.19+commit.7dd6d404.Emscripten.clang"
  },
  "schemaVersion": "3.4.16",
  "updatedAt": "2023-12-26T15:23:51.618Z",
  "networkType": "ethereum",
  "devdoc": {
    "kind": "dev",
    "methods": {},
    "version": 1
  },
  "userdoc": {
    "kind": "user",
    "methods": {},
    "version": 1
  }
}